:020000040800F2
:10000000000002206D5C0108A11C0008A31C000870
:10001000A51C0008A71C0008A91C0008000000007F
:1000200000000000000000000000000021D30008D4
:10003000AB1C000800000000C1D3000825D4000854
:10004000BD5C0108BD5C0108BD5C0108BD5C010828
:10005000BD5C0108BD5C0108BD5C0108BD5C010818
:10006000BD5C0108BD5C0108BD5C0108BD5C010808
:10007000BD5C0108BD5C0108BD5C0108BD5C0108F8
:10008000BD5C0108BD5C0108BD5C0108BD5C0108E8
:10009000BD5C0108BD5C0108BD5C0108BD5C0108D8
:1000A000BD5C0108BD5C0108BD5C0108BD5C0108C8
:1000B000BD5C0108BD5C0108AD1C0008BD5C010809
:1000C000BD5C0108BD5C0108BD5C0108BD5C0108A8
:1000D000BD5C0108BD5C0108BD5C0108BD5C010898
:1000E000BD1C0008BD5C010800000000BD5C0108EB
:1000F000BD5C0108BD5C0108BD5C0108BD5C010878
:10010000BD5C0108BD5C0108BD5C0108BD5C010867
:10011000BD5C0108BD5C0108BD5C0108BD5C010857
:10012000BD5C0108BD5C0108BD5C0108BD5C010847
:10013000BD5C0108C91C0008BD5C0108BD5C01086C
:1001400000000000000000000000000000000000AF
:10015000BD5C0108BD5C0108BD5C0108BD5C010817
:10016000BD5C0108BD5C0108BD5C0108BD5C010807
:10017000BD5C0108BD5C0108BD5C01080000000019
:10018000BD5C0108BD5C0108BD5C0108BD5C0108E7
:10019000BD5C0108BD5C0108BD5C0108BD5C0108D7
:1001A000BD5C0108BD5C0108BD5C0108BD5C0108C7
:1001B000BD5C0108BD5C0108BD5C0108BD5C0108B7
:1001C000BD5C0108BD5C0108BD5C0108BD5C0108A7
:1001D000BD5C0108BD5C0108BD5C0108BD5C010897
:1001E000BD5C0108BD5C0108BD5C0108BD5C010887
:1001F000BD5C0108BD5C0108BD5C0108BD5C010877
:10020000BD5C0108BD5C0108BD5C0108BD5C010866
:10021000BD5C0108BD5C0108BD5C0108BD5C010856
:10022000BD5C0108BD5C0108BD5C01080000000068
:10023000BD5C0108BD5C010800000000BD5C010858
:10024000BD5C0108BD5C0108BD5C0108BD5C010826
:10025000BD5C0108BD5C0108BD5C0108BD5C010816
:10026000BD5C0108BD5C0108BD5C0108BD5C010806
:10027000BD5C0108BD5C0108BD5C01080000000018
:10028000BD5C0108BD5C0108BD5C01080000000008
:0802900000000000BD5C010844
:1002A00010F8012B11F8013B012A28BF9A42F7D020
:1002B000D01A70470000000000000000000000009D
:1002C00001F0FF01102A2BDB10F0070F08D010F807
:1002D000013B013A8B422DD010F0070F42B3F6D10B
:1002E000F0B441EA012141EA014122F007047FF024
:1002F00000070023F0E80256083C85EA010586EA7B
:10030000010685FA47F5A3FA87F586FA47F6A5FAB6
:1003100087F68EB9EED1F0BC01F0FF0102F00702C2
:1003200032B110F8013B013A83EA010313B1F8D16D
:100330000020704701387047002D06BF354603384E
:10034000073815F0010F07D1013015F4807F02BF87
:10035000013015F4C03F0130F0BC0138704700BFD8
:10036000034613F8012B002AFBD1181A01387047F5
:1003700053B94AB9002908BF00281CBF4FF0FF310C
:100380004FF0FF3000F00CB8ADF1080C6DE904CE71
:1003900018F092F9DDF804E0DDE9022304B07047BB
:1003A000704700BF0348044B834202D0034B03B1A4
:1003B00018477047FC010020FC01002000000000ED
:1003C0000548064B1B1AD90F01EBA301491002D0B7
:1003D000034B03B118477047FC010020FC010020CB
:1003E0000000000010B5064C237843B9FFF7DAFF90
:1003F000044B13B10448AFF300800123237010BDF8
:10040000FC010020000000007489010808B5054BBC
:100410001BB105490548AFF30080BDE80840FFF770
:10042000CFBF00BF00000000000200207489010857
:1004300070B584B00024009401940294039404F0F5
:10044000A3FD01258DF800508DF80140244B019348
:1004500007238DF808308DF809408DF80A400326EF
:100460008DF80B608DF80C408DF80D408DF80E4026
:100470008DF80F50684604F0A5FD8DF80150194B1A
:1004800001930D238DF808308DF80E508DF80F4034
:10049000684604F097FD02238DF801304FF0C84301
:1004A00001931B238DF808308DF80E408DF80F5006
:1004B000684604F087FD8DF801604FF040430193DA
:1004C00018238DF808308DF80A508DF80E506846C4
:1004D00004F078FD042004F065FD04B070BD00BF99
:1004E000000004300040043008B50268034B9A4213
:1004F00000D008BD04F0C4FDFBE700BF00080040C9
:1005000072B6FEE700B59DB04C22002109A816F096
:1005100049FB2022002101A816F044FB022004F030
:1005200085FC002300932F4B9A6942F440429A6164
:100530009B6903F4404300932B4BDA6A42F00102BB
:10054000DA62DB6A03F001030093009B254B9B6991
:1005500013F4005FFAD004F061FC04F0B7FD234A05
:10056000136F23F018031367936A23F0030343F018
:1005700002039362252309934FF480330A930122E7
:100580000B920F92022312931393149261221592ED
:1005900016930422179218930C23199300231A938D
:1005A0004FF4A8531B9309A802F0F4F8B0B93F2305
:1005B000019303230293002303930823049340230E
:1005C000059306934FF4806207920893022101A8D5
:1005D00002F012FD20B91DB05DF804FBFFF790FF9B
:1005E000FFF78EFF004802580004005800440258EC
:1005F00008B5FFF71DFF434B5B6913F4003F13D1B0
:10060000BFF34F8FBFF36F8F3E4B0022C3F85022D2
:10061000BFF34F8FBFF36F8F5A6942F400325A61B4
:10062000BFF34F8FBFF36F8F364B5B6913F4803F7F
:1006300027D1344B0022C3F88420BFF34F8FD3F867
:100640008040C4F34E3000E01846C4F3C90243F6BC
:10065000E07303EA401343EA82732A49C1F8603227
:100660001346013A002BF2D1431E0028ECD1BFF310
:100670004F8F4B6943F480334B61BFF34F8FBFF310
:100680006F8F04F0CFFCFFF73DFF00F043F800F060
:100690000FFD01F027F800F043F901F093FA00F0A4
:1006A00043FF00F059FA00F015FB00F03FFB00F0AB
:1006B00073FC00F03DFD00F0B1FD00F0DBFD00F04B
:1006C00005FE01F08FF801F02BF901F05DF901F062
:1006D0008FF9282004F054FC0B4800F039FD0B483A
:1006E00007F01EFF0A4800F0DDFB09F0F9FC64206A
:1006F00004F0D8FC15F07AFA09F0DAFB0CF0D8FA1D
:10070000FEE700BF00ED00E0A00C00204C0F002031
:10071000180200202DE9F04F8FB0002409940A94AC
:100720000B940C940D94774BD3F8E02042F0100218
:10073000C3F8E020D3F8E02002F010020192019A01
:10074000D3F8E02042F00402C3F8E020D3F8E02020
:1007500002F004020292029AD3F8E02042F0200252
:10076000C3F8E020D3F8E02002F020020392039ABD
:10077000D3F8E02042F08002C3F8E020D3F8E02074
:1007800002F080020492049AD3F8E02042F00102C1
:10079000C3F8E020D3F8E02002F001020592059AA8
:1007A000D3F8E02042F00202C3F8E020D3F8E020C2
:1007B00002F002020692069AD3F8E02042F04002CC
:1007C000C3F8E020D3F8E02002F040020792079A35
:1007D000D3F8E02042F00802C3F8E020D3F8E0307C
:1007E00003F008030893089BDFF828B1224608218C
:1007F000584604F0F4FADFF820A122464FF40051E5
:10080000504604F0ECFADFF81491224604214846E1
:1008100004F0E5FA3C4F22464FF40061384604F0FC
:10082000DEFA3A4E224644F28841304604F0D7FAC6
:1008300022464FF4E061364804F0D1FA4FF0080840
:10084000CDF8248001250A950B940C9409A95846EB
:1008500004F0AEF94FF4005BCDF824B00A950B9488
:100860000C9409A9504604F0A3F9042309930A95AE
:100870000B940C9409A9484604F09AF94FF40063CC
:1008800009930A950B940C9409A9384604F090F941
:1008900044F2884309930A950B940C9409A93046B5
:1008A00004F086F94FF4E06309930A950B940C94D5
:1008B00009A9174804F07CF9CDF824800A940B9418
:1008C00009A9384604F074F94FF4805309934FF4A2
:1008D00088130A930B9409A9304604F069F9CDF8FE
:1008E00024B00A940B9409A9304604F061F9224619
:1008F0000521282004F030FB282004F03DFB0FB038
:10090000BDE8F08F00440258000C0258001802584D
:100910000000025800100258000802580004025853
:1009200000B58BB0002307930893099300930193BC
:10093000029303930493059306931E481E4A026094
:1009400043608360C3600422026103754375012222
:100950008261037743628362C3620363436380F807
:10096000383001F043FDE0B90023079307A911488F
:1009700001F068FEC0B9114B0093062301930023D8
:10098000029340F2FF7203920422049205938DF8C1
:1009900019306946074801F035FA40B90BB05DF8E7
:1009A00004FBFFF7ADFDDFE7FFF7AAFDE3E7FFF785
:1009B000A7FDF3E7200A0020002002400080F03E5F
:1009C00010B5B6B004460021319132913391349183
:1009D0003591BC2202A816F0E5F82268204B9A4215
:1009E00001D036B010BD4FF40023029301230393CE
:1009F000122304930223059306930793C0230893BD
:100A0000202309934FF41F630A9302A802F0B6FD56
:100A100018BB144BD3F8D82042F02002C3F8D820DA
:100A2000D3F8D82002F020020092009AD3F8E020F8
:100A300042F00102C3F8E020D3F8E03003F00103F4
:100A40000193019B092331930323329300233393B2
:100A500031A9054804F0ACF8C3E7FFF751FDD8E72A
:100A6000002002400044025800000258F0B5B7B020
:100A70000023319332933393349335932F4B1B6878
:100A80000BB137B0F0BD2D4B01221A60BC22002102
:100A900002A816F087F84FF08073029302A802F0C4
:100AA0006DFD002847D1264BD3F8D42042F4805264
:100AB000C3F8D420D3F8D43003F480530193019BBE
:100AC0004FF63F03319302273297002633960325D2
:100AD00034950C24359431A91A4804F069F80D2393
:100AE0003193329733963495359431A9164804F0F2
:100AF0005FF848F237333193329733963495359413
:100B000031A9124804F054F84FF6837331933297A9
:100B100033963495359431A90D4804F049F84CF2D8
:100B2000B3733193329733963495359431A909488C
:100B300004F03EF8A5E7FFF7E3FCB4E7840A0020E1
:100B400000440258001402580008025800180258C5
:100B500000100258000C025830B597B000220F92D6
:100B60001092119212921392149215920892099275
:100B70000A920B920C920D920E92019202920392A3
:100B800004920592069207924848494B036003F588
:100B90008273436082600223C360042303611021D7
:100BA00041618261C26102624FF48053436282629A
:100BB000C262026342638263C26302640F230F93C3
:100BC0001093FF24119412931391112314930FA9DE
:100BD00005F0BCFD00285FD13648354B036003F5B6
:100BE00082734360022181600023C360036110228D
:100BF00042618361C36103624FF480544462836243
:100C00004FF48044C462036343638363C363036438
:100C10000F910F25109550241194129313921124C3
:100C2000149415930891099505210A910B930C9240
:100C30000D940E9308AA0FA905F088FD00282ED167
:100C40001D481E4B0360002343600122826008227E
:100C5000C26010210161402141614FF480718161C6
:100C6000C3614FF4006101624FF4805141628362BD
:100C70000223019302920622039204920422059217
:100C8000069307930DEB020105F094FD50B90C4853
:100C900000F05CF917B030BDFFF732FC9CE7FFF7BE
:100CA0002FFCCDE7FFF72CFCF1E700BF080B00207D
:100CB00000400052BC0A0020880A00204041005237
:100CC000FC0B002008B5FFF7D1FE08BD08B5FFF703
:100CD000CDFE08BD08B51248124B0360124B4360AD
:100CE000002383600122C260036143618361C361A9
:100CF000036204F0FBF950B90021094804F054FAEA
:100D000040B90021064804F07DFA30B908BDFFF76C
:100D1000F7FBF1E7FFF7F4FBF3E7FFF7F1FBF5E78C
:100D2000A00B002000540040FFECC01008B5124892
:100D3000124B0360124B4360002383600122C260A8
:100D4000036143618361C361036204F0CFF950B969
:100D50000021094804F028FA40B90021064804F0AF
:100D600051FA30B908BDFFF7CBFBF1E7FFF7C8FB3D
:100D7000F3E7FFF7C5FBF5E7540B0020001C005814
:100D8000FFECC01010B5B8B0044600213391349187
:100D9000359136913791BC2204A815F003FF2368E2
:100DA000344A934204D0344A934231D038B010BD13
:100DB0000823049304A802F0E1FB30BB2F4CD4F8C5
:100DC000E03043F00203C4F8E030D4F8E03003F040
:100DD00002030093009BC023339312233493002318
:100DE000359336930423379333A9254803F0E0FE67
:100DF000D4F8E83043F40013C4F8E830D4F8E8300D
:100E000003F400130193019BD0E7FFF779FBD5E7CB
:100E1000102304930DEB030002F0B0FB38BB174C1A
:100E2000D4F8E03043F00803C4F8E030D4F8E03000
:100E300003F008030293029B4FF4405333931223B1
:100E400034930023359336930423379333A90D4805
:100E500003F0AEFED4F8F43043F08003C4F8F4306D
:100E6000D4F8F43003F080030393039B9EE7FFF76D
:100E700047FBD4E700540040001C005800440258CF
:100E800000040258000C02584FF0C04303600123D5
:100E900080F80438022380F80538062380F80638E5
:100EA0007047000010B50446FFF7EEFF002304E092
:100EB00004EB4302002191800133B3F5806FF7DB2F
:100EC0000C4C01228021204603F089FF022004F00F
:100ED000E9F801224FF48061204603F080FF1420DE
:100EE00004F0E0F800224FF48061204603F077FF21
:100EF00010BD00BF00180258002306E04FF0C042AA
:100F00001188034A22F813100133072BF6DD7047CE
:100F1000EC0B002000B585B018B1012811D00020DD
:100F200000E0102000910190029203934FF6FF72AF
:100F30006946054805F066FC00B1012005B05DF882
:100F400004FB0820EEE700BFFC0B002008B50023DF
:100F5000012211461846FFF7DDFF012004F0A2F838
:100F60000023012202211846FFF7D4FF00230822A4
:100F700003211846FFF7CEFF4FF408730122042126
:100F80000020FFF7C7FF40F2F921024805F05BFCA3
:100F900008BD00BFFC0B002008B50A480A4B0360DF
:100FA000FF234360012282600023C360026143612A
:100FB0008361C361036205F08BFC00B908BDFFF7D4
:100FC0009FFAFBE7300C002000500052F0B5B9B09A
:100FD0000446002133913491359136913791BC22EA
:100FE00004A815F0DFFD22682D4B9A4201D039B0DC
:100FF000F0BD4FF00073049304A802F0BFFA00287C
:101000004AD1284BD3F8D42042F48042C3F8D420EC
:10101000D3F8D42002F480420192019AD3F8E02060
:1010200042F02002C3F8E020D3F8E02002F02002D2
:101030000292029AD3F8E02042F04002C3F8E02086
:10104000D3F8E03003F040030393039B4FF498631D
:10105000339302253495002435943694092337932D
:10106000114F33A9384603F0A3FD4FF44073339377
:101070003495359436940A26379633A9384603F0CA
:1010800097FD40233393349535943694379633A99E
:10109000064803F08DFDAAE7FFF732FAB1E700BF7B
:1010A0000050005200440258001402580018025820
:1010B00008B50A480A4B0360002343607F22826020
:1010C000FF22C26003618361C361436105F0B6FC26
:1010D00000B908BDFFF714FAFBE700BF7C0C002045
:1010E0000040005810B5B0B00446BC22002101A851
:1010F00015F058FD22680C4B9A4201D030B010BD5B
:101100004FF4800301934FF480732D9301A802F0F4
:1011100035FA28B9054A136F43F400431367EDE726
:10112000FFF7EEF9F6E700BF004000580044025810
:10113000054B064A1A6000225A609A604FF48041BB
:10114000D9601A615A617047A00C002000700052EB
:10115000F0B5B9B004460021339134913591369100
:101160003791BC2204A815F01DFD2268274B9A4236
:1011700001D039B0F0BD4FF48033049304A802F0DD
:10118000FDF900283ED1224BD3F8D42042F480321E
:10119000C3F8D420D3F8D42002F480320192019A0B
:1011A000D3F8E02042F00402C3F8E020D3F8E020B6
:1011B00002F004020292029AD3F8E02042F0080200
:1011C000C3F8E020D3F8E03003F008030393039B57
:1011D0004FF4F853339302273497002635960325AE
:1011E00036950C24379433A90A4803F0E1FC042314
:1011F0003393349735963695379433A9064803F0E0
:10120000D7FCB6E7FFF77CF9BDE700BF00700052DE
:101210000044025800080258000C025808B5134850
:10122000134B03604FF48003436000238360032269
:10123000C260036143614FF000528261C361036287
:1012400043628362C3624FF0804242638363C3633D
:10125000036443648364C36403654365836506F084
:101260002FFF00B908BDFFF74BF9FBE72C0E00205C
:101270000030014008B51348134B03604FF480035E
:101280004360002383600322C260036143614FF027
:1012900000528261C361036243628362C3624FF0A2
:1012A000804242638363C363036443648364C364AF
:1012B00003654365836506F003FF00B908BDFFF7CA
:1012C0001FF9FBE7A40D0020003C004008B51248C0
:1012D000124B03604FF480034360002383600322BA
:1012E000C260036143618361C361036243628362DD
:1012F000C3624FF0804242638363C3630364436409
:101300008364C36403654365836506F0D9FE00B951
:1013100008BDFFF7F5F8FBE71C0D00200034014085
:1013200070B5BEB00446002139913A913B913C9191
:101330003D91BC220AA815F035FC2368724A9342FD
:1013400008D0724A93424DD0714A934200F0AA806D
:101350003EB070BD4FF480530A930AA802F00EF914
:1013600000283CD16B4BD3F8F02042F48052C3F8F4
:10137000F020D3F8F02002F480520192019AD3F8C1
:10138000E02042F00102C3F8E020D3F8E02002F0B0
:1013900001020292029AD3F8E02042F00202C3F85E
:1013A000E020D3F8E03003F002030393039B7023A3
:1013B000399302263A9600243B943C9405253D95AA
:1013C00039A9554803F0F4FB202339933A963B940E
:1013D0003C943D9539A9514803F0EAFBB8E7FFF783
:1013E0008FF8BFE74FF480530A930AA802F0C6F8BB
:1013F000002854D1474BD3F8E82042F40042C3F808
:10140000E820D3F8E82002F400420492049AD3F8CA
:10141000E02042F00102C3F8E020D3F8E02002F01F
:1014200001020592059AD3F8E02042F00802C3F8C1
:10143000E020D3F8E02002F008020692069AD3F8E2
:10144000E02042F00202C3F8E020D3F8E03003F0DD
:1014500002030793079B4FF40043399302253A9503
:1014600000243B943C9406263D9639A92A4803F073
:101470009FFB402339933A953B943C9405233D933D
:1014800039A9274803F094FB182339933A953B94E4
:101490003C943D9639A9214803F08AFB58E7FFF7B1
:1014A0002FF8A7E74FF400530A930AA802F066F852
:1014B00030BB184BD3F8F02042F40052C3F8F020B0
:1014C000D3F8F02002F400520892089AD3F8E020F2
:1014D00042F01002C3F8E020D3F8E03003F010032C
:1014E0000993099B7423399302233A9300233B9376
:1014F0003C9305233D9339A90A4803F059FB27E79C
:10150000FEF7FEFFD5E700BF00300140003C004081
:101510000034014000440258000002580004025800
:10152000000C02580010025800B58DB02422002192
:1015300003A815F037FB0023009301930293114891
:10154000114A0260436083604FF6FF72C26003611C
:101550008361012303930593099303A907F0DCF941
:1015600050B90023009302936946064807F0BCFB7C
:1015700028B90DB05DF804FBFEF7C2FFF1E7FEF7F6
:10158000BFFFF6E7000F00200004004082B00368B0
:10159000114A934204D0114A93420FD002B07047CF
:1015A0000F4BD3F8F02042F00102C3F8F020D3F83B
:1015B000F03003F001030093009BEFE7084BD3F8F2
:1015C000F02042F00202C3F8F020D3F8F03003F02C
:1015D00002030193019BE1E7000001400004014088
:1015E0000044025800B589B0002303930493059387
:1015F000069307930268144B9A4202D009B05DF833
:1016000004FB124BD3F8E82042F00202C3F8E820B2
:10161000D3F8E82002F002020192019AD3F8E02008
:1016200042F00402C3F8E020D3F8E03003F00403F2
:101630000293029BC023039302230493079303A9FD
:10164000034803F0B5FAD9E700040040004402580B
:101650000008025800B589B0002303930493059352
:101660000693079303681B4A934205D01A4A934294
:1016700019D009B05DF804FB184BD3F8E02042F014
:101680000202C3F8E020D3F8E03003F00203019334
:10169000019B0123039302220492079303A910489C
:1016A00003F086FAE5E70D4BD3F8E02042F00202A2
:1016B000C3F8E020D3F8E03003F002030293029B6A
:1016C0000223039304930323079303A9044803F01D
:1016D0006FFACEE7000001400004014000440258C8
:1016E0000004025810B59AB0002416941794189468
:1016F00019941394149415940C940D940E940F94BF
:101700001094119412942C22214601A815F04AFA43
:101710003248334B0360EF23436084604FF47A73A5
:10172000C360046144618023836107F095F8002859
:1017300042D14FF48053169316A9284807F038FA7F
:1017400000283CD1254807F0B7F800283AD10023FB
:1017500013931493159313A9204807F0C5FA002892
:1017600033D160230C934FF4FA730D9300230E933F
:101770000F9310931193129304220CA9174807F0AA
:101780006DF928BB002301930293039304930593FF
:101790004FF400520692079308934FF0007209929B
:1017A0000A930B9301A90D4807F0EEFA98B90B487C
:1017B000FFF750FF1AB010BDFEF7A2FEB9E7FEF723
:1017C0009FFEBFE7FEF79CFEC1E7FEF799FEC8E764
:1017D000FEF796FED6E7FEF793FEE8E74C0F0020F3
:1017E0000000014010B59AB0002416941794189484
:1017F00019941394149415940C940D940E940F94BE
:101800001094119412942C22214601A815F0CAF9C3
:101810003248334B0360EF234360846040F2E73388
:10182000C360046144618023836107F015F80028D8
:1018300041D14FF48053169316A9284807F0B8F900
:1018400000283BD1254807F037F8002839D100237C
:1018500013931493159313A9204807F045FA002811
:1018600032D160230C93C8230D9300230E930F9362
:1018700010931193129308220CA9184807F0EEF860
:1018800028BB0023019302930393049305934FF421
:1018900000520692079308934FF0007209920A9340
:1018A0000B9301A90D4807F06FFA98B90B48FFF7A1
:1018B000D1FE1AB010BDFEF723FEBAE7FEF720FEF8
:1018C000C0E7FEF71DFEC2E7FEF71AFEC9E7FEF706
:1018D00017FED6E7FEF714FEE8E700BFB40E0020BF
:1018E0000004014000B583B001904FF6FF73012260
:1018F00001A9034807F063FE019803B05DF804FBFB
:101900002810002070B50C461646002504E014F897
:10191000010BFFF7E7FF0135B542F8DB304670BD3C
:1019200008B51748174B03604FF4E13343600023B9
:101930008360C36003610C2242618361C3610362FF
:101940004362836207F0E2FE70B900210C4807F0A1
:1019500056FF60B900210A4807F076FF50B90848E1
:1019600007F02EFF48B908BDFEF7CAFDEDE7FEF708
:10197000C7FDEFE7FEF7C4FDF1E7FEF7C1FDF2E7B3
:10198000B8100020004C004008B51748174B036002
:101990004FF4E133436000238360C36003610C2292
:1019A00042618361C36103624362836207F0AEFEFA
:1019B00070B900210C4807F022FF60B900210A48E5
:1019C00007F042FF50B9084807F0FAFE48B908BDD1
:1019D000FEF796FDEDE7FEF793FDEFE7FEF790FDCE
:1019E000F1E7FEF78DFDF2E728100020001001401E
:1019F00008B51748174B03604FF4E13343600023E9
:101A00008360C36003610C2242618361C36103622E
:101A10004362836207F07AFE70B900210C4807F038
:101A2000EEFE60B900210A4807F00EFF50B90848E1
:101A300007F0C6FE48B908BDFEF762FDEDE7FEF708
:101A40005FFDEFE7FEF75CFDF1E7FEF759FDF2E71A
:101A5000980F00200048004010B5BAB0044600219D
:101A600035913691379138913991BC2206A815F0FD
:101A700099F823684E4A934207D04E4A934235D094
:101A80004D4A934263D03AB010BD0223069306A894
:101A900001F074FD38BB494BD3F8E82042F4002232
:101AA000C3F8E820D3F8E82002F400220092009A5C
:101AB000D3F8E02042F00202C3F8E020D3F8E0308F
:101AC00003F002030193019B4FF44073359302230B
:101AD00036930023379338930823399335A9384830
:101AE00003F066F8CFE7FEF70BFDD4E7012306937A
:101AF00006A801F043FD38BB304BD3F8F02042F08C
:101B00001002C3F8F020D3F8F02002F01002029285
:101B1000029AD3F8E02042F00202C3F8E020D3F8A2
:101B2000E03003F002030393039B4FF440433593EB
:101B3000022336930023379338930423399335A92E
:101B40001F4803F035F89EE7FEF7DAFCD4E70223DE
:101B5000069306A801F012FD38BB184BD3F8E82015
:101B600042F48022C3F8E820D3F8E82002F480226F
:101B70000492049AD3F8E02042F00202C3F8E02075
:101B8000D3F8E03003F002030593059B4FF4406364
:101B900035930223369300233793389307233993E1
:101BA00035A9074803F004F86DE7FEF7A9FCD4E770
:101BB000004C004000100140004800400044025822
:101BC0000004025808B50B480B4B0360092343601F
:101BD0000222C260002303618261C3610362436227
:101BE0008362C362036307F054FE00B908BDFEF7C9
:101BF00087FCFBE7481100200000084010B5B6B094
:101C00000446002131913291339134913591BC22B7
:101C100002A814F0C7FF22681E4B9A4201D036B0CA
:101C200010BD4FF4802302934FF44013239302A876
:101C300001F0A4FC50BB03F023F9174CD4F8E030BA
:101C400043F00103C4F8E030D4F8E03003F00103BE
:101C50000093009B4FF4C05331930223329300232F
:101C60003393032334930A23359331A90B4802F0AD
:101C70009FFFD4F8D83043F00063C4F8D830D4F8CC
:101C8000D83003F000630193019BC8E7FEF738FCEE
:101C9000D1E700BF0000084000440258000002588D
:101CA000FEE7FEE7FEE7FEE7FEE7704708B50248FD
:101CB00006F083FC08BD00BF5015002008B54FF4A6
:101CC000805003F09BF808BD08B5024804F099F96C
:101CD00008BD00BF5C1B002000B583B00A4BD3F8E1
:101CE000F42042F00202C3F8F420D3F8F43003F0F9
:101CF00002030193019B00220F216FF0010003F00A
:101D00002BF903B05DF804FB004402580F2801D9F9
:101D10000120704710B58AB00446002201461E20FB
:101D200003F01AF91E2003F027F91A4B1C601A4B16
:101D3000D3F8E82042F00402C3F8E820D3F8E830F2
:101D400003F004030093009B01A902A801F0E4FA48
:101D5000079BBBB901F0BCFA0346104AA2FB032360
:101D60009B0C013B0E480F4A026040F2E732C26012
:101D7000436000230361836006F06EFD30B10120F3
:101D80000AB010BD01F0A4FA4300E6E7044806F0EB
:101D9000C7FBF5E7040000200044025883DE1B4324
:101DA000501500200008004010B430300B0A9B0092
:101DB00003F00C03C45801F01F014FF01F0C0CFA84
:101DC00001FC24EA0C0CC2F384628A404CEA020251
:101DD000C2505DF8044B704710B414304B0E9B009A
:101DE00003F00403C458C1F304514FF0070C0CFA7C
:101DF00001FC24EA0C0C8A404CEA0202C2505DF855
:101E0000044B704770B582B00023019390F85030B6
:101E1000012B00F0248204460D46012380F8503047
:101E20000268936813F0040F09D0436D43F0200358
:101E300043650120002384F8503002B070BD0B6868
:101E4000C3F3130100293CD1C3F3846301219940FA
:101E5000D3690B43D3612A6869682068FFF7A4FF40
:101E60002068836813F0040300D00123826812F015
:101E7000080200D0012252EA03062ED0226893689D
:101E800013F0010F40F0E7812B68E868D2F8C0102A
:101E9000C3F3130621EA060100F01806AE48F0402D
:101EA0000340C3F313030B43C2F8C030EA68AB4BE3
:101EB0009A4200F0A1802B68002BC0F253810020D1
:101EC000B8E793FAA3F333B1B3FA83F303F01F0334
:101ED00001219940BCE72023F8E7AA682968FFF7A9
:101EE0007BFF9F4B1B6803F07043B3F1805F0BD007
:101EF0002268D36813F0100F3BD16B69D268C2F32C
:101F000082025200934006E06B692268D268C2F3F5
:101F10008202520093402969042938D02268286837
:101F200002F1600C5CF8212002F0004200F0F84061
:101F3000034313434CF82130236828696A7E012A41
:101F40001FD03146603353F8202022F000420A436C
:101F500043F8202021682A692B7E012B14D00B69BD
:101F600023F4F04302F01F0206FA02F213430B615E
:101F700084E76B69D268920802F004025200934031
:101F8000C9E74FF00041DDE74FF40066E7E722685C
:101F9000136E03F0F8432968B3EB816F1DD02268FC
:101FA000536E03F0F8432968B3EB816F1AD02268AF
:101FB000936E03F0F8432968B3EB816F17D0226862
:101FC000D36E03F0F8432968B3EB816F7FF456AF0B
:101FD000D36E23F00043D36650E7136E23F0004323
:101FE0001366DCE7536E23F000435366DFE7936E1E
:101FF00023F000439366E2E720682B68C3F31306DF
:102000003EBB9A0E013202F01F02092A8CBF002249
:102010000122002A55D05EBB990E0131890601F0DC
:10202000F8418EBB4FEA936C0CF1010C0CF01F0CC5
:10203000012202FA0CF21143AEBB9B0E013303F0F6
:102040001F0303EB43031B051943AA68FFF7C4FEF4
:1020500031E793FAA3F24AB1B2FA82F2013202F006
:102060001F02092A8CBF00220122D2E72022F5E7B5
:1020700093FAA3F131B1B1FA81F10131890601F08E
:10208000F841CEE72021F8E793FAA3F24AB1B2FA79
:1020900082F2013202F01F024FF0010C0CFA02F240
:1020A000C9E72022F5E793FAA3F343B1B3FA83F328
:1020B000013303F01F0303EB43031B05C4E7202395
:1020C000F6E7E6B9990E0131890601F0F84116BB31
:1020D0004FEA936C0CF1010C0CF01F0C012202FA78
:1020E0000CF2114336BB9B0E013303F01F0303EBCD
:1020F00043031E3B1B0543F000731943A5E793FA06
:10210000A3F131B1B1FA81F10131890601F0F84151
:10211000DDE72021F8E793FAA3F24AB1B2FA82F29E
:10212000013202F01F024FF0010C0CFA02F2D8E764
:102130002022F5E793FAA3F35BB1B3FA83F30133FB
:1021400003F01F0303EB43031E3B1B0543F0007327
:10215000D3E72023F3E700BFFFFF0F000000FF4796
:102160000010005C22683F493F48824218BF8A4203
:102170000CBF0121002118D13C4EB56805F0E07C70
:10218000A9B13849886810F0010000D00120364913
:10219000896811F0010100D0012101430CD0636D69
:1021A00043F020036365012044E6314EE5E7314901
:1021B000896811F0010FF2D12F498B4207D02F49C6
:1021C0008B4226D02E498B4234D0002032E615F4C3
:1021D000000FF4D1274B9A4201D000202AE64CF49C
:1021E0000003B26822F0E0721343B360254B1B6812
:1021F0009B09254AA2FB03239B0901335B00019342
:1022000002E0019B013B0193019B002BF9D10020CF
:1022100010E615F0807FD5D1164B9A4201D00020F0
:1022200008E64CF08073B26822F0E0721343B360AA
:102230000020FFE515F4800F0FD10E4B9A4201D01C
:102240000020F7E54CF48003B26822F0E0721343FB
:10225000B3600020EEE50020ECE50020EAE5022076
:10226000EBE500BF002002400021024000230240B5
:102270000063025800600258000084CB000052C77F
:102280000000B8CF0C000020632D3E0538B5044691
:1022900003684E494E4A934218BF8B4226D14D4B9C
:1022A0009B6813F4403F14BF0123002343B300F0A5
:1022B000EDFF05466368B3F5003F05D0B3F5403F39
:1022C0001CD0B3F5803F02D11B0CB5FBF3F502F037
:1022D000FDFE41F20303984252D83F4B9D4249D93B
:1022E0002268936843F48073936038BD3B4B9B68CE
:1022F00013F4403F14BF01230023D7E78508E6E726
:102300004FF4002002F040F905466368B3F5101F52
:102310002CD021D8B3F5E01F26D004D9B3F5001F87
:10232000D5D14509D3E7B3F5801F10D009D8B3F54F
:10233000002F0CD0B3F5402F09D0B3F5802F06D075
:10234000C5E7B3F5A01F02D0B3F5C01FBFD19B0CEA
:102350005B00B5FBF3F5BAE7B3F5201F08D0B3F582
:10236000301FB4D1050AB2E70509B0E78509AEE729
:10237000C509ACE72268936823F480739360B4E7DF
:10238000174B9D4205D82268936823F440739360ED
:10239000ABE7144B9D4207D82268936823F440733F
:1023A00043F480739360A0E70F4B9D4207D82268E7
:1023B000936823F4407343F40073936095E72268B5
:1023C000936843F4407393608FE700BF002002409E
:1023D0000021024000230240002D31010063025819
:1023E00021BCBE0041787D0181F0FA0230B583B096
:1023F00000230193002800F00A810446436DEBB1ED
:1024000023689A6812F0005F03D09968814A0A40F5
:102410009A6023689A6812F0805F1CD199687E4A9E
:102420000A4042F080529A607C4B1B689B097C4AB0
:10243000A2FB03239B090133019309E0FEF7C0FAD5
:102440000023A36584F85030DAE7019B013B019338
:10245000019B002BF9D12268936813F0805F40F054
:102460009980636D43F010036365A36D43F001032E
:10247000A3650125936813F0040300D00123616D67
:1024800011F0100F40F0BB80002B40F0B880636D5E
:1024900023F4817343F002036365936813F0010F23
:1024A0001ED16049604B9A4218BF8A420CBF01227C
:1024B000002271D1896811F0010100D001215A4B2D
:1024C0009B6813F0010300D001230B4308D1002ABD
:1024D00068D0564963688A6822F47C1213438B6083
:1024E00002F0F4FD41F20303984202D9A368102BD5
:1024F0005AD0627D236B43EA4233A2681343227FA2
:1025000043EA0243227F012A59D0626A22B102F4CF
:102510007872A16A0A4313432168C868444A02409A
:102520001A43CA6021688A6812F0040200D00122AE
:102530008B6813F0080300D0012313431BD1227DC5
:10254000E36A43EA8232C8683A4B03401343CB60E4
:1025500094F83830012B37D02268136923F0010337
:1025600013612268136923F07043616B0B4313619D
:102570002046FFF78BFEE368012B37D02268136BF0
:1025800023F00F031363636D23F0030343F0010390
:10259000636539E000256DE7274B9B6813F0010F59
:1025A0009ED194E7254995E7617D226B42EA41324D
:1025B0001343227F43EA024343F00C03A2E7226A5B
:1025C000013A43EA4243A0E7206802691C4B1340EA
:1025D000E26B511E226C42EA0142616C0A43A16C1B
:1025E0000A43134343F001030361BAE721680B6B0D
:1025F00023F00F03A269013A13430B63C3E7636D32
:1026000043F0100363650125284603B030BD012562
:10261000FAE700BFC0FFFF5FC0FFFF6F0C000020A4
:10262000632D3E05002002400021024000230240AD
:1026300003C0F0FFFCBFFFFF0060025800630258B8
:102640001EF800FC90F85020012A00F0968030B46B
:102650009AB00346012280F8502000221692179269
:102660000068474A904236D000220192019A002A1F
:1026700035D0926812F0040200D00122846814F070
:10268000040F6BD1002A69D13D4C3E4A904218BFDD
:10269000A0422DD102F500720868002839D0906858
:1026A00020F440404C68204390601868344D354C0D
:1026B000A04218BFA8421DD1AC6814F0010400D09C
:1026C00001243048806810F0010000D00120204330
:1026D00015D0002047E002F580720192C6E75A6DDE
:1026E00042F020025A65002283F8502001203DE08C
:1026F000254AD1E72548806810F0010F39D1946848
:10270000234820400C6889682143084390600020DA
:1027100029E0916821F4404191601968184C1948EA
:10272000814218BFA1420ED1A06810F0010000D074
:1027300001201449896811F0010100D001210143F1
:1027400006D000200FE01149896811F0010F12D165
:1027500090680F4901409160002004E05A6D42F0FA
:1027600020025A650120002283F850201AB030BCA4
:1027700070470020F7E70020F5E70220704700BF10
:10278000002002400021024000630258006002580D
:10279000E0F0FFFF002800F0188338B50446036816
:1027A00013F0010F25D0944A136903F03803926A9D
:1027B000102B15D0182B0FD06368B3F5803F3FD096
:1027C000002B53D18C4B1A6822F480321A601A689D
:1027D00022F480221A6038E002F00302022AEBD1D0
:1027E000854B1B6813F4003F03D06368002B00F097
:1027F000EE82236813F0020F00F0A1807E4A136975
:10280000926A13F038035AD0182B55D0E368002B86
:1028100000F0DE8078490A6822F0190213430B6049
:1028200002F03AFC0546744B1B6813F0040F40F0AD
:10283000AD8002F031FC401B0228F4D90320CDE228
:102840006D4A136843F48033136063682BB302F05E
:1028500023FC0546684B1B6813F4003FC9D102F006
:102860001BFC401B6428F5D90320B7E2B3F5A02F69
:1028700009D0614B1A6822F480321A601A6822F477
:1028800080221A60E1E75C4B1A6842F480221A60E9
:102890001A6842F480321A60D7E702F0FDFB054661
:1028A000554B1B6813F4003FA3D002F0F5FB401B0F
:1028B0006428F5D9032091E212F0030FA6D14E4B04
:1028C0001B6813F0040F03D0E368002B00F0818233
:1028D000494A136823F01903E1680B43136002F0BF
:1028E000DBFB0546444B1B6813F0040F06D102F0D6
:1028F000D3FB401B0228F5D903206FE202F0E6FB70
:1029000041F20303984212D82269402A07D03A497B
:102910004B6823F47C3343EA02334B600FE0364AC2
:10292000536823F47C3343F40033536007E0324AA6
:10293000536823F0FE43216943EA0163536023682F
:1029400013F0100F00F088802B4A136903F038034E
:10295000926A082B56D0182B50D0E369002B00F058
:10296000B880254A136843F08003136002F094FB9B
:102970000546214B1B6813F4807F40F0888002F0ED
:102980008BFB401B0228F4D9032027E202F09EFBB8
:1029900041F20303984212D82269402A07D016490F
:1029A0004B6823F47C3343EA02334B60C7E7124A97
:1029B000536823F47C3343F400335360BFE70E4A7B
:1029C000536823F0FE43216943EA01635360B6E78D
:1029D000094A136823F00103136002F05DFB05460A
:1029E000054B1B6813F0040FA9D002F055FB401BE8
:1029F0000228F5D90320F1E10044025802F0030255
:102A0000012AAAD1A14B1B6813F4807F03D0E3698C
:102A1000802B40F0E08102F059FB41F20303984221
:102A200012D8226A202A07D098494B6823F0F8432D
:102A300043EA82634B600FE0944A536823F0F84303
:102A400043F08043536007E0904AD36823F07C53FF
:102A5000216A43EA0163D360236813F0080F60D052
:102A60006369002B49D0894A536F43F001035367D0
:102A700002F012FB0546854B5B6F13F0020F50D13D
:102A800002F00AFB401B0228F5D90320A6E102F060
:102A90001DFB41F20303984212D8226A202A07D074
:102AA0007A494B6823F0F84343EA82634B60D3E7EB
:102AB000764A536823F0F84343F080435360CBE7F2
:102AC000724AD36823F07C53216A43EA0163D360DE
:102AD000C2E76E4A136823F08003136002F0DCFA49
:102AE00005466A4B1B6813F4807FB5D002F0D4FA18
:102AF000401B0228F5D9032070E1644A536F23F08C
:102B00000103536702F0C8FA0546604B5B6F13F090
:102B1000020F06D002F0C0FA401B0228F5D90320AC
:102B20005CE1236813F0200F29D0A3699BB1574AB9
:102B3000136843F48053136002F0AEFA0546534B1A
:102B40001B6813F4005F1AD102F0A6FA401B02289A
:102B5000F5D9032042E14D4A136823F480531360F2
:102B600002F09AFA0546494B1B6813F4005F06D041
:102B700002F092FA401B0228F5D903202EE12368C7
:102B800013F0040F21D1636A002B00F026813F4A25
:102B9000126902F03802182A00F0EE80022B79D078
:102BA0003A4A136823F08073136002F075FA044602
:102BB000364B1B6813F0007F00F0DC8002F06CFAEB
:102BC000001B0228F4D9032008E1314A136843F4BA
:102BD0008073136002F060FA05462D4B1B6813F4F6
:102BE000807F06D102F058FA401B6428F5D90320F3
:102BF000F4E0A368012B0AD00BBB244B1A6F22F020
:102C000001021A671A6F22F004021A6704E01F4AD1
:102C1000136F43F001031367A36833B302F03CFA68
:102C200005461A4B1B6F13F0020FACD102F034FAB9
:102C3000401B41F288339842F3D90320CEE0052BA4
:102C400009D0124B1A6F22F001021A671A6F22F094
:102C500004021A67E0E70D4B1A6F42F004021A678C
:102C60001A6F42F001021A67D6E702F015FA05461C
:102C7000064B1B6F13F0020F85D002F00DFA401BBC
:102C800041F288339842F3D90320A7E00044025868
:102C900000480258594A136823F08073136002F009
:102CA000FBF90546554B1B6813F0007F06D002F078
:102CB000F3F9401B0228F5D903208FE04F4B996AA6
:102CC0004F4A0A40A16AE06A41EA00110A439A6247
:102CD000226B013AC2F30802616B0139490289B2E1
:102CE0000A43A16B0139090401F4FE010A43E16BB7
:102CF0000139090601F0FE410A431A63DA6A22F03B
:102D00000102DA625A6B6FF3CF02A16C42EAC10290
:102D10005A63DA6A22F00C02216C0A43DA62DA6A38
:102D200022F00202616C0A43DA62DA6A42F480320B
:102D3000DA62DA6A42F40032DA62DA6A42F4802253
:102D4000DA62DA6A42F00102DA621A6842F08072EC
:102D50001A6002F0A1F90446284B1B6813F0007FAB
:102D600006D102F099F9001B0228F5D9032035E0BD
:102D7000002033E0002031E0204A916A106B012BE3
:102D80002DD001F00303A26A93422AD1C1F30511A9
:102D9000E36A994227D1C0F30802236B013B9A42B0
:102DA00023D1C0F34622636B013B9A421FD1C0F38B
:102DB0000642A36B013B9A421BD1C0F30660E36B52
:102DC000013B984217D1002008E001207047012004
:102DD00004E0012002E0012000E0002038BD0120D5
:102DE000FCE70120FAE70120F8E70120F6E70120DF
:102DF000F4E70120F2E70120F0E700BF00440258A9
:102E00000CFCFFFF754B1B6903F03803102B00F01F
:102E1000DE80182B0FD0002B40F0DC806F4B1B683E
:102E200013F0200F00F0D8806C4B1B68C3F3C10374
:102E30006B48D840704710B4684B9A6A02F003029E
:102E40009C6AC4F30510D96A01F001015B6BC3F3FE
:102E5000CC0301FB03F307EE903AF8EE677A14F423
:102E60007C7F77D0012A4AD0022A76D0002A40F00F
:102E700091805A4B1B6813F0200F23D057490A68E2
:102E8000C2F3C102564BD34007EE103AF8EE476A40
:102E900007EE100AB8EE476A86EE867A0B6BC3F32C
:102EA000080306EE903AF8EE666A9FED4E6A67EE0A
:102EB000867A76EEA77AF7EE006A77EEA67A27EEA4
:102EC000277A38E007EE100AF8EE476A9FED466A67
:102ED00086EE267A414B1B6BC3F3080306EE903A4D
:102EE000F8EE666A9FED3F6A67EE867A76EEA77A1D
:102EF000F7EE006A77EEA67A27EE277A1BE007EE58
:102F0000100AF8EE476A9FED396A86EE267A334B4F
:102F10001B6BC3F3080306EE903AF8EE666A9FED6A
:102F2000316A67EE867A76EEA77AF7EE006A77EE78
:102F3000A67A27EE277A294B1B6BC3F3462301336E
:102F400007EE903AF8EE677AC7EE276AFCEEE67A6B
:102F500017EE900A5DF8044B704707EE100AF8EE82
:102F6000476A9FED236A86EE267A1C4B1B6BC3F3E0
:102F7000080306EE903AF8EE666A9FED1A6A67EE6D
:102F8000867A76EEA77AF7EE006A77EEA67A27EED3
:102F9000277AD0E707EE100AF8EE476A9FED136A2A
:102FA00086EE267A0D4B1B6BC3F3080306EE903AB0
:102FB000F8EE666A9FED0B6A67EE867A76EEA77A80
:102FC000F7EE006A77EEA67A27EE277AB3E74FF49A
:102FD000FA0070470748704701487047004402589C
:102FE0000090D003000000390024744C0024744A7F
:102FF0000000FA4A00093D00002800F0328170B557
:103000000D4604469B4B1B6803F00F038B420BD20B
:10301000984A136823F00F030B431360136803F0FF
:103020000F038B4240F01F81236813F0040F0CD074
:103030002269914B9B6903F070039A4205D98E492E
:103040008B6923F070031A438A61236813F0080F19
:103050000CD06269884BDB6903F070039A4205D992
:103060008549CB6923F070031A43CA61236813F0C2
:10307000100F0CD0A269804BDB6903F4E0639A4225
:1030800005D97D49CB6923F4E0631A43CA612368FB
:1030900013F0200F0CD0E269774B1B6A03F070032A
:1030A0009A4205D974490B6A23F070031A430A62E5
:1030B000236813F0020F0CD0E2686F4B9B6903F09A
:1030C0000F039A4205D96C498B6923F00F031A4309
:1030D0008A61236813F0010F41D0674A936923F492
:1030E0007063A1680B4393616368022B0AD0032BC2
:1030F00027D0012B2CD0604A126812F0040F06D1A1
:103100000120ADE0126812F4003F00F0AE805A4991
:103110000A6922F0070213430B6101F0BDFF064666
:10312000554B1B6903F038036268B3EBC20F16D02E
:1031300001F0B2FF801B41F288339842F0D903209E
:103140008EE04D4A126812F0007FE0D1012087E046
:10315000494A126812F4807FD9D1012080E02368A7
:1031600013F0020F0CD0E268434B9B6903F00F038E
:103170009A4205D240498B6923F00F031A438A61B2
:103180003C4B1B6803F00F03AB420AD9394A136862
:1031900023F00F032B431360136803F00F03AB42BC
:1031A00065D1236813F0040F0CD02269324B9B6960
:1031B00003F070039A4205D22F498B6923F0700304
:1031C0001A438A61236813F0080F0CD062692A4BF6
:1031D000DB6903F070039A4205D22749CB6923F0DB
:1031E00070031A43CA61236813F0100F0CD0A26950
:1031F000214BDB6903F4E0639A4205D21E49CB6997
:1032000023F4E0631A43CA61236813F0200F0CD043
:10321000E269194B1B6A03F070039A4205D2164902
:103220000B6A23F070031A430A62FFF7EBFD1249A1
:103230008B69C3F30323114AD35C03F01F03D84007
:103240008B6903F00F03D35C03F01F0320FA03F331
:103250000B4A13600B4B18600B4B1868FEF756FDBA
:1032600070BD012070470120FAE70120F8E7012036
:10327000F6E700BF0020005200440258288A0108E7
:10328000080000200C0000200400002008B5FFF713
:10329000B9FD0B4A9369C3F303230A49CB5C03F0DE
:1032A0001F0320FA03F3926902F00F02885C00F01A
:1032B0001F0023FA00F0044A1060044A136008BD9E
:1032C00000440258288A0108080000200C00002051
:1032D00008B5FFF7DBFF054BDB69C3F30213044AB4
:1032E000D35C03F01F03D84008BD00BF0044025860
:1032F000288A010808B5FFF7C9FF054BDB69C3F34E
:103300000223044AD35C03F01F03D84008BD00BF6A
:1033100000440258288A01083F230360114B1A69B0
:1033200002F0070242609A6902F4706282609A6950
:1033300002F00F02C2609A6902F070020261DA695B
:1033400002F070024261DA6902F4E06282611B6A93
:1033500003F07003C361044B1B6803F00F030B60A1
:10336000704700BF0044025800200052404B9B6A47
:1033700003F00303032B79D070B505460E463C4A93
:10338000136823F08063136001F086FE0446384B17
:103390001B6813F0006F06D001F07EFE031B022BAA
:1033A000F5D9032070BD324B9A6A22F47C32296829
:1033B00042EA01329A626A68013AC2F30802A968D5
:1033C0000139490289B20A43E9680139090401F463
:1033D000FE010A4329690139090601F0FE410A4349
:1033E0009A63DA6A22F0C00269690A43DA62DA6A29
:1033F00022F02002A9690A43DA62DA6A22F0100296
:10340000DA62DA6B6FF3CF02E96942EAC102DA638A
:10341000DA6A42F01002DA62C6B91A46DB6A43F48D
:103420000023D362124A136843F08063136001F0F3
:1034300033FE04460E4B1B6813F0006F14D101F0ED
:103440002BFE001B0228F5D90320ABE7012E05D087
:10345000074AD36A43F40013D362E3E7044AD36A0A
:1034600043F48013D362DDE700209BE7012070471F
:1034700000440258404B9B6A03F00303032B79D0AE
:1034800070B505460E463C4A136823F0805313601E
:1034900001F002FE0446384B1B6813F0005F06D0B3
:1034A00001F0FAFD031B022BF5D9032070BD324B4E
:1034B0009A6A22F07C72296842EA01529A626A682A
:1034C000013AC2F30802A9680139490289B20A43E4
:1034D000E9680139090401F4FE010A432969013947
:1034E000090601F0FE410A431A64DA6A22F44062D6
:1034F00069690A43DA62DA6A22F40072A9690A4346
:10350000DA62DA6A22F48072DA625A6C6FF3CF02FE
:10351000E96942EAC1025A64DA6A42F48072DA6204
:10352000C6B91A46DB6A43F48003D362124A1368B1
:1035300043F08053136001F0AFFD04460E4B1B684F
:1035400013F0005F14D101F0A7FD001B0228F5D98C
:103550000320ABE7012E05D0074AD36A43F08073FE
:10356000D362E3E7044AD36A43F40003D362DDE79E
:1035700000209BE70120704700440258F8B504463C
:10358000036813F0006F30D0436EB3F5001F26D0F0
:103590000ED8ABB1B3F5801F07D102210430FFF77D
:1035A000E5FE054695B12E4621E0012635461EE092
:1035B000B3F5401F01D1002508E00126354616E08D
:1035C000954AD36A43F40033D3620025924A136DBF
:1035D00023F44013616E0B431365002607E00221BC
:1035E0002430FFF747FF0546DCE700263546236811
:1035F00013F4807F14D0636D042B2FD8DFE803F021
:10360000032127080800844AD36A43F40033D362B5
:103610003DBB814A136D23F00703616D0B431365B6
:10362000236813F4007F36D0A36D802B47D01DD8BC
:1036300023B3402B17D10021201DFFF797FE05462D
:1036400021E00021201DFFF791FE0546E0E7002163
:1036500004F12400FFF70EFF0546D9E701263546A1
:10366000DEE72E46DCE70126354614E0C02B0AD003
:10367000B3F5807F07D0012635460CE0664AD36A51
:1036800043F40033D3620DBB634A136D23F4E0733C
:10369000A16D0B431365236813F4806F3BD0D4F8FE
:1036A000A430B3F5800F2ED015D8EBB1B3F5001FC1
:1036B0000ED10021201DFFF759FE054619E000211B
:1036C00004F12400FFF7D6FE0546DCE72E46E2E7CC
:1036D000012635461FE0B3F5C00F0AD0B3F5000F41
:1036E00007D00126354616E04B4AD36A43F400332F
:1036F000D3627DB9484A936D23F46003D4F8A410D3
:103700000B43936507E0002104F12400FFF7B2FEAC
:103710000546EEE72E46236813F4006F2AD0D4F84E
:10372000A830B3F1007F51D00CD8A3B1B3F1807FA2
:1037300005D10021201DFFF719FE054610E00126E6
:10374000354617E0B3F1407F0AD0B3F1806F07D060
:10375000012635460EE0304AD36A43F40033D36283
:10376000002D3AD12C4A936D23F0E063D4F8A810D1
:103770000B439365236813F0007F13D0A36C202BB9
:1037800035D02FD833B1102B29D1234AD36A43F433
:103790000033D3628DBB204AD36C23F03003A16C7D
:1037A0000B43D364236813F4805F45D0E36DB3F516
:1037B000005F00F0898025D883B3B3F5805F1ED108
:1037C0000021201DFFF7D2FD05462CE0002104F169
:1037D0002400FFF74FFE0546C2E72E46CAE7012642
:1037E0003546DFE7302BD5D001263546DAE7022112
:1037F000201DFFF7BBFD0546CCE72E46D2E701268C
:10380000354619E0B3F5405F0DD0B3F5804F0AD0CF
:103810000126354610E000BF00440258754AD36ABD
:1038200043F40033D362002D55D1724A136D23F453
:10383000E043E16D0B431365236813F4005F16D07A
:10384000236EB3F5003F57D04AD83BB1B3F5803F64
:1038500043D10121201DFFF789FD0546002D52D1DE
:10386000644A136D23F4E023216E0B431365236830
:1038700013F4804F18D0D4F8AC30B3F1005F53D0BC
:1038800046D83BB1B3F1805F3FD10121201DFFF746
:103890006DFD0546002D4ED1564A936D23F0E04351
:1038A000D4F8AC100B439365236813F4004F51D048
:1038B000E36EB3F1805F40D0B3F1005F55D0002BD1
:1038C00040D00126354645E0002104F12400FFF7F1
:1038D000D1FD0546A7E72E46AEE701263546C6E7E9
:1038E000B3F5802FBAD0B3F5A02FB7D0B3F5403FD2
:1038F000B4D001263546BAE7012104F12400FFF7D0
:10390000B9FD0546AAE72E46B1E701263546CBE7C5
:10391000B3F1804FBED0B3F1A04FBBD0B3F1405F45
:10392000B8D001263546BFE7012104F12400FFF796
:10393000A1FD0546AEE72E46B6E72E4AD36A43F40C
:103940000033D362BDB92B4A136D23F04053E16EAF
:103950000B431365236813F0807F1BD0636C032B2C
:1039600042D8DFE803F00F0A3B0F0121201DFFF7CB
:10397000FDFC0546E6E72E46ECE71E4AD36A43F413
:103980000033D3629DBB1B4AD36C23F00303616CED
:103990000B43D364236813F4800F2DD1236813F0F5
:1039A000010F00F0A480A36F282B00F29E80DFE8B7
:1039B00003F08C9C9C9C9C9C9C9C879C9C9C9C9CB1
:1039C0009C9C959C9C9C9C9C9C9C8C9C9C9C9C9C4E
:1039D0009C9C8C9C9C9C9C9C9C9C8C000221201DF3
:1039E000FFF7C4FC0546CDE701263546D2E72E4653
:1039F000D0E700BF00440258574A136843F480736D
:103A0000136001F049FB0746534B1B6813F4807F9A
:103A100005D101F041FBC01B6428F5D90325002D19
:103A20004AD14E4B1B6FD4F8B020534013F4407F63
:103A30000CD04A4B1A6F22F44072196F41F4803156
:103A40001967196F21F4803119671A67D4F8B030FB
:103A5000B3F5807F15D08DBBD4F8B03003F440723D
:103A6000B2F5407F1ED03D4A136923F47C531361A5
:103A70003A490B6FD4F8B020C2F30B0213430B6723
:103A80008CE701F009FB0746344B1B6F13F0020F64
:103A9000E1D101F001FBC01B41F288339842F3D918
:103AA0000325D8E72D48026922F47C522C4901EA0B
:103AB000131313430361DBE72E466FE72E466DE7D2
:103AC0000121201DFFF752FC0546E5B9234A536D3D
:103AD00023F03803A16F0B43536508E0012104F183
:103AE0002400FFF7C7FC0546EFE7012635462368AB
:103AF00013F0020F16D0636F052B28D8DFE803F010
:103B00000A05200A0A0A2E46F1E70121201DFFF7C7
:103B10002DFC0546F5B9114A536D23F00703616F7B
:103B20000B435365236813F0040F2BD0D4F8903067
:103B3000052B00F2D780DFE803F01A15CE1A1A1A07
:103B4000012104F12400FFF795FC0546E2E7012678
:103B50003546E7E72E46E5E700480258004402589C
:103B6000CFFFFF000121201DFFF700FC0546002DBF
:103B700040F0BB80B74A936D23F00703D4F8901050
:103B80000B439365236813F0200F1CD0D4F88C30BE
:103B9000B3F1005F00F0BD8000F2AC8043B1B3F13F
:103BA000805F40F0A4800021201DFFF7DFFB054669
:103BB000002D40F0B580A74A536D23F0E043D4F8C0
:103BC0008C100B435365236813F0400F1CD0D4F8BE
:103BD0009830B3F5006F00F0B78000F2A68043B1D3
:103BE000B3F5806F40F09E800021201DFFF7BEFBE3
:103BF0000546002D40F0AF80964A936D23F4E053C4
:103C0000D4F898100B439365236813F0800F1CD0F1
:103C1000D4F89C30B3F5804F00F0B18000F2A08062
:103C200043B1B3F5005F40F098800021201DFFF7FD
:103C30009DFB0546002D40F0A980864A936D23F434
:103C40006043D4F89C100B439365236813F0080F6E
:103C50000DD0D4F88030B3F5805F00F099807D4AB4
:103C6000536D23F44053D4F880100B4353652368FD
:103C700013F0100F0DD0D4F89430B3F5807F00F01E
:103C80009180744A936D23F44073D4F894100B43DD
:103C90009365236813F4002F00F09980D4F8A030C6
:103CA000B3F5803F00F08880B3F5003F07D0002BCC
:103CB00040F089800021201DFFF758FB0546002DAC
:103CC00040F08480634A936D23F44033D4F8A0100D
:103CD0000B4393657BE0012104F12400FFF7CAFB4D
:103CE000054644E7012635464CE72E464AE70126BD
:103CF000354668E7B3F1804F3FF45AAFB3F1A04FB8
:103D00003FF456AFB3F1405F3FF452AF0126354662
:103D100059E7022104F12400FFF7ACFB054647E711
:103D20002E4650E7012635466EE7B3F5805F3FF437
:103D300060AFB3F5A05F3FF45CAFB3F5406F3FF405
:103D400058AF012635465FE7022104F12400FFF752
:103D500091FB05464DE72E4656E70126354674E7AA
:103D6000B3F5004F3FF466AFB3F5204F3FF462AFB9
:103D7000B3F5C04F3FF45EAF0126354665E702213B
:103D800004F12400FFF776FB054653E72E465CE777
:103D9000022104F12400FFF76DFB00283FF45FAF20
:103DA00001265CE7022104F12400FFF763FB0028F1
:103DB0003FF467AF012664E7022104F12400FFF716
:103DC00059FB05467BE70126354600E02E46236871
:103DD00013F4802F18D0D4F88430B3F5001F1FD00F
:103DE000B3F5401F07D0B3F5801F20D1194AD36A1D
:103DF00043F40033D362EDB9164A536D23F44013F4
:103E0000D4F884100B435365236813F4803F2AD001
:103E1000E36C8BB1B3F5803F1ED00126354622E01E
:103E2000012104F12400FFF725FB0546E3E7012605
:103E30003546E9E72E46E7E7064AD36A43F40033FE
:103E4000D3627DB9034AD36C23F48033E16C0B4316
:103E5000D36408E0004402580221201DFFF786FACF
:103E60000546EEE72E46236813F0005F10D1236865
:103E700013F4003F26D0E36FB3F5807F14D010D940
:103E8000B3F5007F15D0B3F5407F12D0012619E0BD
:103E9000022104F12400FFF7EDFA0028E7D0012603
:103EA000E5E733B101260DE02D4AD36A43F4003330
:103EB000D362002D49D12A4A536D23F44073E16F38
:103EC0000B435365236813F4801F06D0244A136DF7
:103ED00023F00043216F0B431365236813F0805FC9
:103EE00007D01F4A136923F48043D4F8B4100B435E
:103EF0001361236813F4001F06D0194A136D23F0D1
:103F00008073A16E0B431365236813F0804F09D0B3
:103F1000134B1A6922F400421A611A69D4F8B810D6
:103F20000A431A612368002B11DB236813F4000F86
:103F300007D00B4A536D23F44003D4F888100B4389
:103F4000536506B101263046F8BD2E46BAE7044A4D
:103F5000D36C23F04053216D0B43D364E5E700BFDE
:103F60000044025808B5FFF791F9054B1B6AC3F3EB
:103F70000213044AD35C03F01F03D84008BD00BFFE
:103F800000440258288A010810B4794B9A6A9C6A46
:103F9000C4F3053CD96AC1F30011DB6BC3F3CC0356
:103FA00001FB03F314F47C3F00F0DD8002F0030218
:103FB00007EE903AF8EE677A012A4BD0022A00F019
:103FC0009880002A40F0B280694B1B6813F0200FE4
:103FD00023D067490A68C2F3C102664BD34007EE9B
:103FE000103AF8EE476A07EE10CAB8EE476A86EE56
:103FF000867A8B6BC3F3080306EE903AF8EE666A96
:104000009FED5D6A67EE867A76EEA77AF7EE006A34
:1040100077EEA67A27EE277A38E007EE10CAF8EE98
:10402000476A9FED566A86EE267A514B9B6BC3F327
:10403000080306EE903AF8EE666A9FED4F6A67EE67
:10404000867A76EEA77AF7EE006A77EEA67A27EE02
:10405000277A1BE007EE10CAF8EE476A9FED486A20
:1040600086EE267A424B9B6BC3F3080306EE903A2A
:10407000F8EE666A9FED406A67EE867A76EEA77A7A
:10408000F7EE006A77EEA67A27EE277A384A936B26
:10409000C3F3462307EE903AF8EE677AF7EE006A2C
:1040A00077EEA67A87EE276ABCEEC66A80ED006AD4
:1040B000936BC3F3064307EE903AF8EE677A77EE18
:1040C000A67A87EE276ABCEEC66A80ED016A936B1A
:1040D000C3F3066307EE903AF8EE677A77EEA67AB6
:1040E000C7EE276AFCEEE66AC0ED026A5DF8044B93
:1040F000704707EE10CAF8EE476A9FED226A86EE17
:10410000267A1B4B9B6BC3F3080306EE903AF8EE3E
:10411000666A9FED196A67EE867A76EEA77AF7EE01
:10412000006A77EEA67A27EE277AAFE707EE10CA85
:10413000F8EE476A9FED126A86EE267A0C4B9B6B6F
:10414000C3F3080306EE903AF8EE666A9FED0A6A3A
:1041500067EE867A76EEA77AF7EE006A77EEA67AB1
:1041600027EE277A92E70023036043608360BDE770
:10417000004402580090D003000000390024744C21
:104180000024744A0000FA4A10B4794B9A6A9C6A77
:10419000C4F3055CD96AC1F300215B6CC3F3CC03A3
:1041A00001FB03F314F07C7F00F0DD8002F00302DA
:1041B00007EE903AF8EE677A012A4BD0022A00F017
:1041C0009880002A40F0B280694B1B6813F0200FE2
:1041D00023D067490A68C2F3C102664BD34007EE99
:1041E000103AF8EE476A07EE10CAB8EE476A86EE54
:1041F000867A0B6CC3F3080306EE903AF8EE666A13
:104200009FED5D6A67EE867A76EEA77AF7EE006A32
:1042100077EEA67A27EE277A38E007EE10CAF8EE96
:10422000476A9FED566A86EE267A514B1B6CC3F3A4
:10423000080306EE903AF8EE666A9FED4F6A67EE65
:10424000867A76EEA77AF7EE006A77EEA67A27EE00
:10425000277A1BE007EE10CAF8EE476A9FED486A1E
:1042600086EE267A424B1B6CC3F3080306EE903AA7
:10427000F8EE666A9FED406A67EE867A76EEA77A78
:10428000F7EE006A77EEA67A27EE277A384A136CA3
:10429000C3F3462307EE903AF8EE677AF7EE006A2A
:1042A00077EEA67A87EE276ABCEEC66A80ED006AD2
:1042B000136CC3F3064307EE903AF8EE677A77EE95
:1042C000A67A87EE276ABCEEC66A80ED016A136C97
:1042D000C3F3066307EE903AF8EE677A77EEA67AB4
:1042E000C7EE276AFCEEE66AC0ED026A5DF8044B91
:1042F000704707EE10CAF8EE476A9FED226A86EE15
:10430000267A1B4B1B6CC3F3080306EE903AF8EEBB
:10431000666A9FED196A67EE867A76EEA77AF7EEFF
:10432000006A77EEA67A27EE277AAFE707EE10CA83
:10433000F8EE476A9FED126A86EE267A0C4B1B6CEC
:10434000C3F3080306EE903AF8EE666A9FED0A6A38
:1043500067EE867A76EEA77AF7EE006A77EEA67AAF
:1043600027EE277A92E70023036043608360BDE76E
:10437000004402580090D003000000390024744C1F
:104380000024744A0000FA4A10B4794B9A6A9C6A75
:10439000C4F3051CD96A01F001015B6BC3F3CC03C4
:1043A00001FB03F314F47C7F00F0DD8002F00302D4
:1043B00007EE903AF8EE677A012A4BD0022A00F015
:1043C0009880002A40F0B280694B1B6813F0200FE0
:1043D00023D067490A68C2F3C102664BD34007EE97
:1043E000103AF8EE476A07EE10CAB8EE476A86EE52
:1043F000867A0B6BC3F3080306EE903AF8EE666A12
:104400009FED5D6A67EE867A76EEA77AF7EE006A30
:1044100077EEA67A27EE277A38E007EE10CAF8EE94
:10442000476A9FED566A86EE267A514B1B6BC3F3A3
:10443000080306EE903AF8EE666A9FED4F6A67EE63
:10444000867A76EEA77AF7EE006A77EEA67A27EEFE
:10445000277A1BE007EE10CAF8EE476A9FED486A1C
:1044600086EE267A424B1B6BC3F3080306EE903AA6
:10447000F8EE666A9FED406A67EE867A76EEA77A76
:10448000F7EE006A77EEA67A27EE277A384A136BA2
:10449000C3F3462307EE903AF8EE677AF7EE006A28
:1044A00077EEA67A87EE276ABCEEC66A80ED006AD0
:1044B000136BC3F3064307EE903AF8EE677A77EE94
:1044C000A67A87EE276ABCEEC66A80ED016A136B96
:1044D000C3F3066307EE903AF8EE677A77EEA67AB2
:1044E000C7EE276AFCEEE66AC0ED026A5DF8044B8F
:1044F000704707EE10CAF8EE476A9FED226A86EE13
:10450000267A1B4B1B6BC3F3080306EE903AF8EEBA
:10451000666A9FED196A67EE867A76EEA77AF7EEFD
:10452000006A77EEA67A27EE277AAFE707EE10CA81
:10453000F8EE476A9FED116A86EE267A0C4B1B6BEC
:10454000C3F3080306EE903AF8EE666A9FED0A6A36
:1045500067EE867A76EEA77AF7EE006A77EEA67AAD
:1045600027EE277A92E70023036043608360BDE76C
:10457000004402580090D003000000390024744C1D
:104580000024744A0000FA4A00B58BB0B0F5807F71
:1045900020D0B0F5007F70D0B0F5806F00F0C580FE
:1045A000B0F5006F00F01E81B0F5805F00F07E81F5
:1045B000B0F5002F00F0D781B0F5803F00F01B82EE
:1045C000B0F5804F00F03582B0F5004F00F08482E6
:1045D00000200CE0934B1B6D03F00703042B00F24B
:1045E000A682DFE803F007111B0325008E480BB0FD
:1045F0005DF804FB8B4B186810F00070F7D007A82B
:10460000FFF7C2FE0898F2E7864B186810F00060CA
:10461000EDD004A8FFF7B8FC0498E8E7814B1868D0
:1046200010F00050E3D001A8FFF7AEFD0198DEE7DF
:104630007C4AD36C03F04053126812F0040F07D089
:1046400033B9784B1B68C3F3C1037848D840CEE731
:10465000744A126812F4807F03D0B3F1805F00F0D7
:104660006882704A126812F4003F00F06482B3F16D
:10467000005F00F062820020B9E76A4B1B6D03F413
:10468000E073802B31D015D9C02B00F05982B3F5DF
:10469000807F1ED1634AD36C03F04053126812F03E
:1046A000040F2DD063BB5F4B1B68C3F3C1035F488E
:1046B000D8409CE77BB1402B09D15A4B186810F0C9
:1046C000006094D004A8FFF75FFC04988FE70020F7
:1046D0008DE700208BE7534B186810F0007086D0F0
:1046E00007A8FFF751FE089881E74E4B186810F0B5
:1046F00000503FF47CAF01A8FFF746FD019876E734
:10470000484A126812F4807F03D0B3F1805F00F052
:104710001982444A126812F4003F00F01582B3F186
:10472000005F00F01382002061E73E4B9B6D03F4B5
:104730006003B3F5800F35D016D9B3F5C00F00F084
:104740000882B3F5000F20D1364AD36C03F04053F2
:10475000126812F0040F30D07BBB324B1B68C3F3DE
:10476000C1033248D84042E78BB1B3F5001F0AD1EC
:104770002C4B186810F000603FF439AF04A8FFF725
:1047800003FC049833E7002031E700202FE7254B96
:10479000186810F000703FF42AAF07A8FFF7F4FD87
:1047A000089824E71F4B186810F000503FF41FAF23
:1047B00001A8FFF7E9FC019819E71A4A126812F4F8
:1047C000807F03D0B3F1805F00F0C581154A126885
:1047D00012F4003F00F0C181B3F1005F00F0BF812F
:1047E000002004E70F4B9B6D03F0E063B3F1007F03
:1047F0003CD01DD9B3F1407F00F0B481B3F1806F9C
:1048000027D1084AD36C03F04053126812F0040F0A
:1048100037D0002B35D1034B1B68C3F3C1030348CA
:10482000D840E4E6004402580080BB000090D0036A
:104830008BB1B3F1807F0AD19B4B186810F00060F8
:104840003FF4D5AE04A8FFF79FFB0498CFE6002005
:10485000CDE60020CBE6944B186810F000703FF4D2
:10486000C6AE07A8FFF790FD0898C0E68E4B186803
:1048700010F000503FF4BBAE01A8FFF785FC019893
:10488000B5E6894A126812F4807F03D0B3F1805FE5
:1048900000F06A81844A126812F4003F00F06681D9
:1048A000B3F1005F00F064810020A0E67E4B1B6D39
:1048B00003F4E043B3F5005F35D016D9B3F5405F9C
:1048C00000F05981B3F5804F20D1774AD36C03F0C3
:1048D0004053126812F0040F30D07BBB724B1B6840
:1048E000C3F3C1037148D84081E68BB1B3F5805F53
:1048F0000AD16D4B186810F000603FF478AE04A840
:10490000FFF742FB049872E6002070E600206EE696
:10491000654B186810F000703FF469AE07A8FFF708
:1049200033FD089863E6604B186810F000503FF4C0
:104930005EAE01A8FFF728FC019858E65A4A1268B3
:1049400012F4807F03D0B3F1805F00F01681564AE5
:10495000126812F4003F00F01281B3F1005F00F022
:104960001081002043E6504B9B6D03F44033B3F5B8
:10497000803F10D0B3F5003F18D0002B40F00481E9
:10498000494B186810F000603FF431AE04A8FFF7FF
:10499000FBFA04982BE6444B186810F000503FF4E3
:1049A00026AE01A8FFF7F0FB039820E63E4AD36C41
:1049B00003F04053126812F0040F07D033B93A4B9A
:1049C0001B68C3F3C1033948D84010E6364A126861
:1049D00012F4807F03D0B3F1805F00F0D780324AB9
:1049E000126812F4003F00F0D380B3F1005F00F0D2
:1049F000D1800020FBE52C4BDB6C13F4803302D01C
:104A000063B90020F3E5284B186810F000703FF4FC
:104A1000EEAD07A8FFF7B8FC0898E8E5224B186848
:104A200010F000603FF4E3AD04A8FFF7ADFA06987C
:104A3000DDE51D4B9B6D03F0E043B3F1405F37D0E4
:104A40000BD8B3F1805F19D0B3F1005F21D013B957
:104A5000FFF788FACBE50020C9E5B3F1804F33D0EA
:104A6000B3F1A04F08D1104B186810F400303FF498
:104A7000BEAD4FF4FA00BAE50020B8E50A4B18685D
:104A800010F000603FF4B3AD04A8FFF77DFA05987D
:104A9000ADE5054B186810F000503FF4A8AD01A833
:104AA000FFF772FB0298A2E5004402580090D00381
:104AB0003B4B186810F004003FF499AD1B68C3F33A
:104AC000C1033848D84092E5354B186810F480701F
:104AD0003FF48DAD34488AE5314B1B6D03F04053F4
:104AE000B3F1805F0DD0B3F1005F15D0002B54D12E
:104AF0002B4B186810F400303FF479AD4FF4FA00F6
:104B000075E5274B186810F000703FF470AD07A8EA
:104B1000FFF73AFC08986AE5214B186810F000602E
:104B20003FF465AD04A8FFF72FFA05985FE5002074
:104B30005DE51D485BE5002059E54FF4FA0056E5B8
:104B40001A4854E5184852E5002050E54FF4FA00A1
:104B50004DE516484BE5144849E5002047E54FF47C
:104B6000FA0044E5114842E50F4840E500203EE5E3
:104B70004FF4FA003BE50D4839E50B4837E50020D6
:104B800035E54FF4FA0032E5002030E506482EE521
:104B900000202CE54FF4FA0029E5002027E500BFAE
:104BA000004402580090D00300093D000080BB0083
:104BB000F0B583B000236BE085685E000324B44049
:104BC00025EA0405CC68B4402C438460456825EA96
:104BD0000C054C68C4F300149C402C43446069E00D
:104BE000DD08083550F8254003F0070C4FEA8C0C1F
:104BF0004FF00F0E0EFA0CFE24EA0E0E0C6904FAAA
:104C00000CF444EA0E0440F825406BE0092400E06F
:104C1000002404FA0EF42C430CF1020C694D45F803
:104C20002C404FF0B0442568D44325EA02064F6873
:104C300017F4801F01D042EA05064FF0B0452E6000
:104C40006D6804EA05064F6817F4001F01D042EAB8
:104C500005064FF0B0456E60D5F8845004EA0506AD
:104C60004F6817F4003F01D042EA05064FF0B04507
:104C7000C5F88460D5F880502C404E6816F4803F0B
:104C800001D042EA05044FF0B042C2F8804001333F
:104C90000A6832FA03F400F092804FF0010C0CFA2B
:104CA00003FC1CEA0202F2D04C6804F00304013C4D
:104CB000012C81D94C6804F00304032C0CD0C46887
:104CC0005D004FF0030C0CFA05FC24EA0C0C8C6818
:104CD000AC4044EA0C04C4604C6804F00304022CA9
:104CE0003FF47EAF04684FEA430E4FF0030C0CFA1A
:104CF0000EFC24EA0C0C4C6804F0030404FA0EF4D5
:104D000044EA0C0404604C6814F4403FBFD02E4CBD
:104D1000D4F8F45045F00205C4F8F450D4F8F44047
:104D200004F002040194019C4FEA930C0CF102057B
:104D3000244C54F8255003F0030E4FEA8E0E0F2436
:104D400004FA0EF425EA0405204CA0423FF460AFBB
:104D500004F58064A04222D004F58064A04220D0F3
:104D600004F58064A0421ED004F58064A0421CD0EB
:104D700004F58064A0421AD004F58064A04218D0E3
:104D800004F58064A04216D004F58064A04214D0DB
:104D900004F58064A0423FF439AF0A2439E70124C6
:104DA00037E7022435E7032433E7042431E70524F9
:104DB0002FE706242DE707242BE7082429E703B073
:104DC000F0BD00BF00040058004402580000025823
:104DD0000369194201D001207047002070470AB1D1
:104DE00081617047090481617047436901EA0302E8
:104DF00021EA030141EA02418161704708B54FF0A1
:104E0000B043D3F88830034200D108BD4FF0B0431F
:104E1000C3F8880005F07AF8F7E70000024A136843
:104E200043F480731360704700480258134BDB68EB
:104E300013F0040F07D1114BDB6803F00703834223
:104E40001AD00120704710B50C4AD36823F007032D
:104E50000343D36000F020F90446084B5B6813F469
:104E6000005F07D100F018F9001BB0F57A7FF4D984
:104E7000012000E0002010BD0020704700480258CB
:104E8000024AD36843F08073D360704700480258E9
:104E9000002807DB00F01F02400901239340024A6B
:104EA00042F82030704700BF00E100E000280CDB32
:104EB00000F01F024009012393402030034A42F8CA
:104EC0002030BFF34F8FBFF36F8F704700E100E0DA
:104ED000002804DB0901C9B2044B1954704700F0E3
:104EE0000F000901C9B2024B1954704700E400E0F9
:104EF00014ED00E000B500F00700C0F1070CBCF1B4
:104F0000040F28BF4FF0040C031D062B0FD9C31E3E
:104F10004FF0FF3E0EFA0CF021EA000199400EFA24
:104F200003FE22EA0E0241EA02005DF804FB0023C0
:104F3000EEE700000649CB6823F4E0631B041B0C7A
:104F4000000200F4E0600343024A1A43CA6070475B
:104F500000ED00E00000FA0510B50446054BD868E6
:104F6000C0F30220FFF7C6FF01462046FFF7B0FF5F
:104F700010BD00BF00ED00E008B5FFF789FF08BDD8
:104F800008B5FFF793FF08BDBFF35F8F044B5A6A64
:104F900022F480325A620022C3F89420704700BF86
:104FA00000ED00E040F00100054BC3F894005A6AA0
:104FB00042F480325A62BFF34F8FBFF36F8F704756
:104FC00000ED00E04278164BC3F898200378FBB15F
:104FD0004368134AC2F89C30017BC37A1B0643EA3C
:104FE0000173817A43EAC143417B43EA8143817B78
:104FF00043EA4143C17B43EA0143417A43EA012347
:10500000017A43EA410301780B43C2F8A0307047AC
:10501000034B0022C3F89C20C3F8A020704700BFB8
:1050200000ED00E010B50320FFF784FFFDF7EAFE76
:105030000F498B69C3F303230E4AD35C03F01F03AC
:10504000D8408B6903F00F03D35C03F01F0320FAF1
:1050500003F3094A1360094B18600F20FCF756FE52
:1050600010B10124204610BD0446FCF735FEF9E7D7
:1050700000440258288A0108080000200C00002083
:10508000034B1B78034A11680B441360704700BF41
:10509000000000209C150020014B1868704700BFDD
:1050A0009C15002038B50446FFF7F6FF0546B4F11D
:1050B000FF3F02D0044B1B781C44FFF7EDFF401B61
:1050C000A042FAD338BD00BF00000020014B186891
:1050D000000C70470010005C034A536823F460031F
:1050E00003435360704700BF00040058002857D0A6
:1050F00010B5044690F84130002B41D0242384F8A9
:1051000041302268136823F001031360636822684A
:1051100023F0706313612268936823F40043936063
:10512000E368012B31D0A368226843F40443936001
:10513000E368022B2FD0226851681A4B0B4353604F
:105140002268D36823F40043D36023696269134360
:10515000A169226843EA0123D360E369216A2268D6
:105160000B4313602268136843F0010313600020AF
:105170006064202384F84130206384F8420010BD2D
:1051800080F84030FBF7FEFDB8E7A368226843F4DF
:1051900000439360CCE723684FF400625A60CAE78B
:1051A0000120704700800002034690F84120D2B2EF
:1051B000202A23D190F84020012A21D0012280F812
:1051C0004020242280F841200068026822F0010279
:1051D00002601868026822F480520260186802684F
:1051E0001143016019680A6842F001020A60202236
:1051F00083F84120002083F8400070470220704768
:1052000002207047034690F84120D2B2202A21D1D3
:1052100090F84020012A1FD0012280F8402024224B
:1052200080F841200068026822F0010202601868DC
:10523000026822F4706242EA0122026019680A6878
:1052400042F001020A60202283F84120002083F806
:1052500040007047022070470220704730B48B68CE
:105260000A6813430A7943EAC2630A7B43EAC253DA
:105270004A7B43EA82538A7B43EA4253CA7B43EA2E
:1052800002530A7C002A40F0B0804FF400221343FE
:105290004A7C002A40F0AB804FF4003213438A7CF2
:1052A00043EA02434A6913438A6913430A7F43EA84
:1052B00002334A7F43EAC2238A7F002A40F0998062
:1052C0004FF480621343CA7F43EA422391F82020BF
:1052D000002A40F090804FF4807213434A6A1343CF
:1052E00091F8282043EA0213CA6A1343046822682B
:1052F00022F07F4222F47B0222F4FE4222F07C0262
:1053000013432360CA6B91F838301B0643EA4263AB
:1053100091F8302043EA824391F8312043EA424336
:1053200091F83220002A68D14FF4803213434A6B3F
:1053300013430468626822F07C5222F4EF2222F4C4
:10534000FF6222F007021343636091F840204B6C28
:1053500043EA02220468E5682B4B2B401343E360C9
:1053600091F854200B6D43EA420391F84C20002A37
:1053700045D1802213438A6C43EA02430468226FBA
:1053800022F0F2021204120C1343236791F8562004
:1053900091F8553042EA43020468D4F8903023F083
:1053A00003031343C4F890300268D2F8003D23F0A1
:1053B00072038C6D2343C2F8003DCB6D91F86020E1
:1053C000FAB94022134391F8612043EA021391F89D
:1053D000622043EAC2030168D1F8302D22F07B023B
:1053E0001343C1F8303D30BC704700224FE7002224
:1053F00054E7002266E700226FE7002296E70022CA
:10540000B8E70022DEE700BFF0FEFFFF10B402683D
:1054100002F580521468234B23400C682343136029
:105420000A798B6843EA02330A7B43EAC232036893
:1054300003F5805CDCF804401B4B23401343CCF89D
:1054400004304A7B0B6A43EA024C026802F5805240
:10545000D2F80041154B234043EA0C03C2F8003157
:105460000B690A7D43EA02134A7F43EA023203686A
:1054700003F5805CDCF804410D4B23401343CCF86A
:1054800004310B7F896941EAC371026802F58052D9
:10549000D2F80801074B03400B43C2F808315DF80E
:1054A000044B7047FD87FFFFFE2FFFFF00C0FEFF8C
:1054B000EFEFC0FFFFFFC07F70B5A2B00646012529
:1054C0008DF83350002412948DF841408DF84340FC
:1054D0008DF828508DF856508DF832508DF84C408C
:1054E0008DF884504FF400530F938DF85C4018945E
:1054F0008DF885408DF886404FF4C36316938DF880
:1055000030400B948DF835508DF836408DF8404082
:105510001D941B9414948DF864408DF87A408DF896
:105520004250202320938DF844508DF855404FF081
:10553000405309934FF480430E938DF8314002237A
:105540001F938DF878408DF879408DF854408DF890
:1055500034501A948DF8705009A9FFF77FFE8DF82A
:105560000450029500948DF81C408DF80D408DF884
:105570000C404FF4001306938DF8144004938DF8FB
:105580001D404FF40673089369463046FFF73EFF0F
:1055900022B070BD10B4002210E0C46802EB4203D8
:1055A0004FEAC30C04EBC303002144F80C1059600C
:1055B0009960D960911D40F821300132032AECD95D
:1055C00000238362036803F580530322C3F82C2170
:1055D000C268036803F58053C3F81421C2680368E6
:1055E00003F58053C3F820215DF8044B704710B4D5
:1055F000002114E0046901EB41034FEAC30C04EB02
:10560000C303002244F80C205A609A60DA601A61E1
:105610005A6101F1100200EB82025360013103294B
:10562000E8D9002343658365C36543660366036861
:1056300003F580530322C3F830210269036803F5A0
:105640008053C3F81C21036903F14802036803F582
:105650008053C3F828215DF8044B70472DE9F041D1
:105660009046846A00EB84039B69D1F808C0DA682D
:10567000002AC0F28381221D00EB8202D269002A37
:1056800040F07E810A6812F0040F2CD0DA686FF3C4
:105690000F024D6A2A43DA60DA6842F48032DA6037
:1056A00005682A6E42F480122A660A6812F0080F12
:1056B00019D09A6892B2CD6A42EA05429A60DA68D5
:1056C00042F40032DA60DA6822F440220D6B2A4399
:1056D000DA6005686A6E42F480126A6605682A6DAF
:1056E00042F080622A650A6812F0100F09D09A68A9
:1056F0006FF30D028D692A439A60DA6842F0806286
:10570000DA600A6812F014021CD0DA6842F08042B3
:10571000DA60DA6842F00042DA60661C032E00D9D3
:10572000E61E00EB86039B69DA68002A01DB012292
:1057300009E000EB8404A269D36823F00043D3603E
:1057400002201EE1264602F1010EDCF800201A605C
:105750009A686FF30D02DCF804502A439A60DCF873
:105760000820002A46D015685D609D68DFF818C2E1
:1057700005EA0C0C55684CEA05459D600D6815F06E
:10578000100F3FD0DD6825F4F00C0D6A4CEAC545DA
:10579000DD60DD68DFF8F4C105EA0C0CCD694CEA88
:1057A0000505DD60DD6845F48025DD600D6815F0D8
:1057B000040F06D09D6825F4404C8D6A4CEA05051F
:1057C0009D60DD6845F00055DD60DD6825F08045B1
:1057D000DD60DD6845F00045DD600D6815F0020F05
:1057E00006D0DD6825F0607CCD684CEA0505DD60FB
:1057F000002560E000225A609A686FF31D429A60AB
:105800006246BBE7DD68DFF888C105EA0C0C4D682D
:105810004CEA0505DD600D6815F0010F06D0DD6866
:1058200025F4403C4D694CEA0505DD600D6815F036
:10583000200FBBD0DD6825F0406C0D694CEA0505F2
:10584000DD60B3E700EB84039969002204E000EB1C
:105850008301896901321C46964508D9CB6823F03B
:105860000043CB60631C032BF1D9E31EEFE702205A
:1058700087E000225A609A686FF31D429A603A46A8
:105880004FE0DE686FF30E064F683E43DE600E6841
:1058900016F0010F05D0DE6826F440364F693E430E
:1058A000DE600135DE6846F00046DE60DE6826F028
:1058B0008046DE6066469768002F41D0DF6827F09B
:1058C0008057DF6006F1010CBCF1030F01D9A6F18E
:1058D000030C00EB8C039B69DE6826F00056DE604B
:1058E000DE68002EAEDB0CF1040600EB8606F669DE
:1058F000002EA7D10EF1010E97683A681A609E68D3
:105900006FF30D067A6832439A60BA68002AB0D005
:1059100016685E609E686FF31D46576846EA074644
:105920009E600E6816F0100FABD0DE686FF31106A4
:10593000CF693E43DE60DE6846F48026DE60B0E775
:10594000B8F1000F15D09A6842F000429A60DA6808
:1059500042F08052DA60C26B331D00EB8303DA61E0
:10596000866272B6036C2B440133036462B6002076
:1059700007E09A6822F000429A60E8E7022000E01F
:105980000220BDE8F08100BFFFFF00C00000FCFF67
:105990000080FFFF38B505460368D3F8004224F4C1
:1059A0007064FDF773FC114B0344114A934205D216
:1059B00044F400742B68C3F8004238BD0D4B034417
:1059C0000D4A934202D844F44074F3E70B4B03446E
:1059D0000B4A9342EED30B4B03440B4A934202D83B
:1059E00044F48074E6E744F48064E3E700D3CEFE39
:1059F000C0E1E40040F1E9FD3F787D0100796CFCF5
:105A0000005A6202001F0AFA7FF0FA02002800F032
:105A1000908030B583B00446C36E8BB32323E36616
:105A2000454BD3F8F42042F00202C3F8F420D3F837
:105A3000F43003F002030193019B237A1BBB002087
:105A4000FFF74AFB236803F580531A6842F001020E
:105A50001A60FFF721FB0546236803F580531B6896
:105A600013F0010F14D0FFF717FB401BB0F5FA7FBE
:105A7000F2D904236367E023E366012003B030BD5D
:105A800004F002FDCAE74FF40000FFF725FBD9E759
:105A90002046FFF77FFFFDF7F9FB284BA3FB002310
:105AA0009B0C2268013BC2F8DC302046FFF704FD66
:105AB000226802F58052D2F8003123F4E01343F457
:105AC0000023C2F80031626912F0030F04D00120F4
:105AD0006067E023E366D1E7216801F58051D1F8E2
