:020000040800F2
:100000000000022039850108251E0008271E00086F
:10001000291E00082B1E00082D1E000800000000ED
:10002000000000000000000000000000D1FA0008FD
:100030002F1E00080000000071FB0008D5FB00081F
:100040008985010889850108898501088985010854
:100050008985010889850108898501088985010844
:100060008985010889850108898501088985010834
:100070008985010889850108898501088985010824
:100080008985010889850108898501088985010814
:100090008985010889850108898501088985010804
:1000A00089850108898501088985010889850108F4
:1000B0008985010889850108311E000889850108A4
:1000C00089850108898501088985010889850108D4
:1000D00089850108898501088985010889850108C4
:1000E000411E00088985010800000000898501087B
:1000F00089850108898501088985010889850108A4
:100100008985010889850108898501088985010893
:100110008985010889850108898501088985010883
:100120008985010889850108898501088985010873
:10013000898501084D1E0008898501088985010807
:1001400000000000000000000000000000000000AF
:100150008985010889850108898501088985010843
:100160008985010889850108898501088985010833
:10017000898501088985010889850108000000003A
:100180008985010889850108898501088985010813
:100190008985010889850108898501088985010803
:1001A00089850108898501088985010889850108F3
:1001B00089850108898501088985010889850108E3
:1001C00089850108898501088985010889850108D3
:1001D00089850108898501088985010889850108C3
:1001E00089850108898501088985010889850108B3
:1001F00089850108898501088985010889850108A3
:100200008985010889850108898501088985010892
:100210008985010889850108898501088985010882
:100220008985010889850108898501080000000089
:100230008985010889850108000000008985010879
:100240008985010889850108898501088985010852
:100250008985010889850108898501088985010842
:100260008985010889850108898501088985010832
:100270008985010889850108898501080000000039
:100280008985010889850108898501080000000029
:0802900000000000898501084F
:1002A00010F8012B11F8013B012A28BF9A42F7D020
:1002B000D01A70470000000000000000000000009D
:1002C00001F0FF01102A2BDB10F0070F08D010F807
:1002D000013B013A8B422DD010F0070F42B3F6D10B
:1002E000F0B441EA012141EA014122F007047FF024
:1002F00000070023F0E80256083C85EA010586EA7B
:10030000010685FA47F5A3FA87F586FA47F6A5FAB6
:1003100087F68EB9EED1F0BC01F0FF0102F00702C2
:1003200032B110F8013B013A83EA010313B1F8D16D
:100330000020704701387047002D06BF354603384E
:10034000073815F0010F07D1013015F4807F02BF87
:10035000013015F4C03F0130F0BC0138704700BFD8
:10036000034613F8012B002AFBD1181A01387047F5
:1003700053B94AB9002908BF00281CBF4FF0FF310C
:100380004FF0FF3000F00CB8ADF1080C6DE904CE71
:100390001AF066FFDDF804E0DDE9022304B07047DF
:1003A000704700BF0348044B834202D0034B03B1A4
:1003B000184770472402002024020020000000009B
:1003C0000548064B1B1AD90F01EBA301491002D0B7
:1003D000034B03B118477047240200202402002079
:1003E0000000000010B5064C237843B9FFF7DAFF90
:1003F000044B13B10448AFF300800123237010BDF8
:1004000024020020000000001CB5010808B5054BBF
:100410001BB105490548AFF30080BDE80840FFF770
:10042000CFBF00BF00000000280200201CB501085B
:1004300070B584B00024009401940294039407F0F2
:10044000CFFF01258DF800508DF80140244B01931A
:1004500007238DF808308DF809408DF80A400326EF
:100460008DF80B608DF80C408DF80D408DF80E4026
:100470008DF80F50684607F0D1FF8DF80150194BE9
:1004800001930D238DF808308DF80E508DF80F4034
:10049000684607F0C3FF02238DF801304FF0C843D0
:1004A00001931B238DF808308DF80E408DF80F5006
:1004B000684607F0B3FF8DF801604FF040430193A9
:1004C00018238DF808308DF80A508DF80E506846C4
:1004D00007F0A4FF042007F091FF04B070BD00BF37
:1004E000000004300040043008B50268034B9A4213
:1004F00000D008BD07F0F0FFFBE700BF0008004098
:1005000072B6FEE700B59DB04C22002109A818F094
:10051000A9FE2022002101A818F0A4FE022007F065
:10052000D7FE002300932F4B9A6942F440429A6110
:100530009B6903F4404300932B4BDA6A42F00102BB
:10054000DA62DB6A03F001030093009B254B9B6991
:1005500013F4005FFAD007F0B3FE07F0E3FF234A7D
:10056000136F23F018031367936A23F0030343F018
:1005700002039362252309934FF480330A930122E7
:100580000B920F92022312931393149261221592ED
:1005900016930422179218930C23199300231A938D
:1005A0004FF4A8531B9309A805F064FBB0B93F238F
:1005B000019303230293002303930823049340230E
:1005C000059306934FF4806207920893022101A8D5
:1005D00005F082FF20B91DB05DF804FBFFF790FF26
:1005E000FFF78EFF004802580004005800440258EC
:1005F00008B5FFF71DFF4A4B5B6913F4003F13D1A9
:10060000BFF34F8FBFF36F8F454B0022C3F85022CB
:10061000BFF34F8FBFF36F8F5A6942F400325A61B4
:10062000BFF34F8FBFF36F8F3D4B5B6913F4803F78
:1006300027D13B4B0022C3F88420BFF34F8FD3F860
:100640008040C4F34E3000E01846C4F3C90243F6BC
:10065000E07303EA401343EA82733149C1F8603220
:100660001346013A002BF2D1431E0028ECD1BFF310
:100670004F8F4B6943F480334B61BFF34F8FBFF310
:100680006F8F07F0FBFEFFF73DFF00F053F800F01F
:10069000D1FD01F0E9F800F053F901F055FB01F04C
:1006A00005F800F069FA00F025FB00F04FFB00F0C0
:1006B00035FD00F0FFFD00F073FE00F09DFE00F040
:1006C000C7FE01F051F901F0EDF901F01FFA01F058
:1006D00051FA0CF0FFFE042112480BF0FBFB124C08
:1006E00000224FF40061204607F0CBFD322007F0D6
:1006F00005FF01224FF40061204607F0C2FD3220C1
:1007000007F0FCFE02F006F9084800F0DBFB0821C8
:1007100007480BF0DFFB0CF043FD0EF099FEFEE7FF
:1007200000ED00E0E40E0020000C02584002002022
:100730007C0F00202DE9F04F8FB0002409940A941B
:100740000B940C940D94774BD3F8E02042F01002F8
:10075000C3F8E020D3F8E02002F010020192019AE1
:10076000D3F8E02042F00402C3F8E020D3F8E02000
:1007700002F004020292029AD3F8E02042F0200232
:10078000C3F8E020D3F8E02002F020020392039A9D
:10079000D3F8E02042F08002C3F8E020D3F8E02054
:1007A00002F080020492049AD3F8E02042F00102A1
:1007B000C3F8E020D3F8E02002F001020592059A88
:1007C000D3F8E02042F00202C3F8E020D3F8E020A2
:1007D00002F002020692069AD3F8E02042F04002AC
:1007E000C3F8E020D3F8E02002F040020792079A15
:1007F000D3F8E02042F00802C3F8E020D3F8E0305C
:1008000003F008030893089BDFF828B1224608216B
:10081000584607F036FDDFF820A122464FF400517C
:10082000504607F02EFDDFF8149122460421484679
:1008300007F027FD3C4F22464FF40061384607F091
:1008400020FD3A4E224644F28841304607F019FD19
:1008500022464FF4E061364807F013FD4FF00808D8
:10086000CDF8248001250A950B940C9409A95846CB
:1008700007F0F0FB4FF4005BCDF824B00A950B9421
:100880000C9409A9504607F0E5FB042309930A9547
:100890000B940C9409A9484607F0DCFB4FF4006365
:1008A00009930A950B940C9409A9384607F0D2FBDA
:1008B00044F2884309930A950B940C9409A9304695
:1008C00007F0C8FB4FF4E06309930A950B940C946E
:1008D00009A9174807F0BEFBCDF824800A940B94B1
:1008E00009A9384607F0B6FB4FF4805309934FF43B
:1008F00088130A930B9409A9304607F0ABFBCDF897
:1009000024B00A940B9409A9304607F0A3FB2246B1
:100910000521282007F020FD282007F053FD0FB007
:10092000BDE8F08F00440258000C0258001802582D
:100930000000025800100258000802580004025833
:1009400000B58BB00023079308930993009301939C
:10095000029303930493059306931E481E4A026074
:1009600043608360C3600422026103754375012202
:100970008261037743628362C3620363436380F8E7
:10098000383004F093FFE0B90023079307A911481A
:1009900005F0BEF8C0B9114B009306230193002364
:1009A000029340F2FF7203920422049205938DF8A1
:1009B00019306946074804F053FC40B90BB05DF8A4
:1009C00004FBFFF79DFDDFE7FFF79AFDE3E7FFF785
:1009D00097FDF3E7480A0020002002400080F03E27
:1009E00010B5B6B004460021319132913391349163
:1009F0003591BC2202A818F035FC2268204B9A429F
:100A000001D036B010BD4FF40023029301230393AD
:100A1000122304930223059306930793C02308939C
:100A2000202309934FF41F630A9302A806F01AF8D3
:100A300018BB144BD3F8D82042F02002C3F8D820BA
:100A4000D3F8D82002F020020092009AD3F8E020D8
:100A500042F00102C3F8E020D3F8E03003F00103D4
:100A60000193019B09233193032332930023339392
:100A700031A9054807F0EEFAC3E7FFF741FDD8E7D3
:100A8000002002400044025800000258F0B5B7B000
:100A90000023319332933393349335932F4B1B6858
:100AA0000BB137B0F0BD2D4B01221A60BC220021E2
:100AB00002A818F0D7FB4FF08073029302A805F04C
:100AC000D1FF002847D1264BD3F8D42042F48052DE
:100AD000C3F8D420D3F8D43003F480530193019B9E
:100AE0004FF63F03319302273297002633960325B2
:100AF00034950C24359431A91A4807F0ABFA0D232C
:100B00003193329733963495359431A9164807F0CE
:100B1000A1FA48F2373331933297339634953594AE
:100B200031A9124807F096FA4FF683733193329742
:100B300033963495359431A90D4807F08BFA4CF271
:100B4000B3733193329733963495359431A909486C
:100B500007F080FAA5E7FFF7D3FCB4E7AC0A002062
:100B600000440258001402580008025800180258A5
:100B700000100258000C025830B597B000220F92B6
:100B80001092119212921392149215920892099255
:100B90000A920B920C920D920E9201920292039283
:100BA00004920592069207924848494B036003F568
:100BB0008273436082600223C360042303611021B7
:100BC00041618261C26102624FF48053436282627A
:100BD000C262026342638263C26302640F230F93A3
:100BE0001093FF24119412931391112314930FA9BE
:100BF00008F0E8FF00285FD13648354B036003F565
:100C000082734360022181600023C360036110226C
:100C100042618361C36103624FF480544462836222
:100C20004FF48044C462036343638363C363036418
:100C30000F910F25109550241194129313921124A3
:100C4000149415930891099505210A910B930C9220
:100C50000D940E9308AA0FA908F0B4FF00282ED116
:100C60001D481E4B0360002343600122826008225E
:100C7000C26010210161402141614FF480718161A6
:100C8000C3614FF4006101624FF48051416283629D
:100C900002230193029206220392049204220592F7
:100CA000069307930DEB020108F0C0FF50B90C4802
:100CB00000F05CF917B030BDFFF722FC9CE7FFF7AE
:100CC0001FFCCDE7FFF71CFCF1E700BFE40A0020A2
:100CD00000400052300B0020B00A0020404100527A
:100CE000240C002008B5FFF7D1FE08BD08B5FFF7BA
:100CF000CDFE08BD08B51248124B0360124B43608D
:100D0000002383600122C260036143618361C36188
:100D1000036207F017FC50B90021094807F070FC86
:100D200040B90021064807F099FC30B908BDFFF72B
:100D3000E7FBF1E7FFF7E4FBF3E7FFF7E1FBF5E79C
:100D40007C0B002000540040FFECC01008B5124896
:100D5000124B0360124B4360002383600122C26088
:100D6000036143618361C361036207F0EBFB50B928
:100D70000021094807F044FC40B90021064807F06B
:100D80006DFC30B908BDFFF7BBFBF1E7FFF7B8FB1F
:100D9000F3E7FFF7B5FBF5E7C80B0020001C005890
:100DA000FFECC01010B5B8B0044600213391349167
:100DB000359136913791BC2204A818F053FA236874
:100DC000344A934204D0344A934231D038B010BDF3
:100DD0000823049304A805F045FE30BB2F4CD4F83B
:100DE000E03043F00203C4F8E030D4F8E03003F020
:100DF00002030093009BC0233393122334930023F8
:100E0000359336930423379333A9254807F022F905
:100E1000D4F8E83043F40013C4F8E830D4F8E830EC
:100E200003F400130193019BD0E7FFF769FBD5E7BB
:100E3000102304930DEB030005F014FE38BB174C90
:100E4000D4F8E03043F00803C4F8E030D4F8E030E0
:100E500003F008030293029B4FF440533393122391
:100E600034930023359336930423379333A90D48E5
:100E700007F0F0F8D4F8F43043F08003C4F8F4300D
:100E8000D4F8F43003F080030393039B9EE7FFF74D
:100E900037FBD4E700540040001C005800440258BF
:100EA00000040258000C02584FF0C04303600123B5
:100EB00080F80438022380F80538062380F80638C5
:100EC0007047000010B50446FFF7EEFF002304E072
:100ED00004EB4302002191800133B3F5806FF7DB0F
:100EE0000C4C01228021204607F0CBF9022007F0AC
:100EF00005FB01224FF48061204607F0C2F914205F
:100F000007F0FCFA00224FF48061204607F0B9F99F
:100F100010BD00BF00180258002306E04FF0C04289
:100F20001188034A22F813100133072BF6DD7047AE
:100F3000140C002000B585B018B1012811D0002094
:100F400000E0102000910190029203934FF6FF728F
:100F50006946054808F092FE00B1012005B05DF831
:100F600004FB0820EEE700BF240C002008B5002396
:100F7000012211461846FFF7DDFF012007F0BEFAF7
:100F80000023012202211846FFF7D4FF0023082284
:100F900003211846FFF7CEFF4FF408730122042106
:100FA0000020FFF7C7FF40F2F921024808F087FE52
:100FB00008BD00BF240C002010B584B000230193AD
:100FC0000293ADF80C30072802DD002004B010BDFC
:100FD0000C46154B33F9103007EE103AB8EEC77BCC
:100FE0009FED0F6B27EE067BB2EE046B27EE067BC0
:100FF00053EC172B0D4901A818F010F8002301E05D
:10100000E254013303F110026A4412F80C2C002A56
:10101000F6D12046FFF7A4F980B2D7E7AFF30080FE
:10102000000000000000003F140C0020B8B50108CB
:1010300000283ED02448704701224FF480412348C5
:1010400007F01FF90134A5423AD9214956F8240086
:10105000FFF726F90028F5D158F824701D493846C5
:10106000FFF71EF90028E7D01B493846FFF718F9AB
:1010700088B11A493846FFF713F998B1184938462C
:10108000FFF70EF90028DDD101224FF480410F480F
:1010900007F0F7F8D6E701224FF480410B4807F03C
:1010A000F0F8CFE701224FF48041084807F0E9F853
:1010B000C8E72DE9F0410D46164698460024C2E7E0
:1010C0000148BDE8F08100BFD0B501080018025802
:1010D000A0B70108C0B50108C4B50108C8B501082A
:1010E000CCB5010808B51022024903480FF022FED2
:1010F00008BD00BF00000020B90F000808B5054B6F
:10110000054A92E8030083E80300012118460FF026
:1011100049FE08BD580C002048DC010808B50A4803
:101120000A4B0360FF234360012282600023C360F7
:10113000026143618361C361036208F005FE00B987
:1011400008BDFFF7DDF9FBE7600C002000500052FE
:10115000F0B5B9B004460021339134913591369100
:101160003791BC2204A818F07DF822682D4B9A42D2
:1011700001D039B0F0BD4FF00073049304A805F01E
:1011800071FC00284AD1284BD3F8D42042F4804285
:10119000C3F8D420D3F8D42002F480420192019AFB
:1011A000D3F8E02042F02002C3F8E020D3F8E0209A
:1011B00002F020020292029AD3F8E02042F04002AC
:1011C000C3F8E020D3F8E03003F040030393039B1F
:1011D0004FF4986333930225349500243594369464
:1011E00009233793114F33A9384606F033FF4FF4E4
:1011F000407333933495359436940A26379633A941
:10120000384606F027FF40233393349535943694BF
:10121000379633A9064806F01DFFAAE7FFF770F9D5
:10122000B1E700BF005000520044025800140258B9
:101230000018025808B50A480A4B036000234360AF
:101240007F228260FF22C26003618361C3614361C8
:1012500008F032FE00B908BDFFF752F9FBE700BF06
:10126000AC0C00200040005810B5B0B00446BC22C1
:10127000002101A817F0F6FF22680C4B9A4201D01A
:1012800030B010BD4FF4800301934FF480732D9361
:1012900001A805F0E7FB28B9054A136F43F40043A2
:1012A0001367EDE7FFF72CF9F6E700BF00400058A1
:1012B00000440258054B064A1A6000225A609A60A0
:1012C0004FF48041D9601A615A617047D00C0020F8
:1012D00000700052F0B5B9B004460021339134914A
:1012E000359136913791BC2204A817F0BBFF2268D4
:1012F000274B9A4201D039B0F0BD4FF480330493AC
:1013000004A805F0AFFB00283ED1224BD3F8D4202F
:1013100042F48032C3F8D420D3F8D42002F48032CF
:101320000192019AD3F8E02042F00402C3F8E020D1
:10133000D3F8E02002F004020292029AD3F8E020EF
:1013400042F00802C3F8E020D3F8E03003F00803CD
:101350000393039B4FF4F8533393022734970026EB
:101360003596032536950C24379433A90A4806F0A0
:1013700071FE04233393349735963695379433A909
:10138000064806F067FEB6E7FFF7BAF8BDE700BF0C
:10139000007000520044025800080258000C025825
:1013A00008B51348134B03604FF4800343600023D8
:1013B00083600322C260036143614FF00052826187
:1013C000C361036243628362C3624FF0804242633F
:1013D0008363C363036443648364C36403654365D5
:1013E000836509F04FFF00B908BDFFF789F8FBE7F7
:1013F0004C0D00200030014008B51348134B03602A
:101400004FF480034360002383600322C2600361C2
:1014100043614FF000528261C361036243628362A1
:10142000C3624FF0804242638363C36303644364D7
:101430008364C36403654365836509F023FF00B9D2
:1014400008BDFFF75DF8FBE7D40D0020003C00402D
:1014500008B51248124B03604FF480034360002329
:1014600083600322C260036143618361C3610362DD
:1014700043628362C3624FF0804242638363C3630B
:10148000036443648364C36403654365836509F04F
:10149000F9FE00B908BDFFF733F8FBE75C0E00204A
:1014A0000034014070B5BEB00446002139913A9134
:1014B0003B913C913D91BC220AA817F0D3FE2368D2
:1014C000724A934208D0724A93424DD0714A934275
:1014D00000F0AA803EB070BD4FF480530A930AA872
:1014E00005F0C0FA00283CD16B4BD3F8F02042F451
:1014F0008052C3F8F020D3F8F02002F48052019219
:10150000019AD3F8E02042F00102C3F8E020D3F8BA
:10151000E02002F001020292029AD3F8E02042F0A9
:101520000202C3F8E020D3F8E03003F00203039393
:10153000039B7023399302263A9600243B943C94F3
:1015400005253D9539A9554806F084FD202339939A
:101550003A963B943C943D9539A9514806F07AFD62
:10156000B8E7FEF7CDFFBFE74FF480530A930AA810
:1015700005F078FA002854D1474BD3F8E82042F41C
:101580000042C3F8E820D3F8E82002F400420492B5
:10159000049AD3F8E02042F00102C3F8E020D3F827
:1015A000E02002F001020592059AD3F8E02042F013
:1015B0000802C3F8E020D3F8E02002F00802069207
:1015C000069AD3F8E02042F00202C3F8E020D3F8F4
:1015D000E03003F002030793079B4FF40043399375
:1015E00002253A9500243B943C9406263D9639A961
:1015F0002A4806F02FFD402339933A953B943C94BA
:1016000005233D9339A9274806F024FD1823399373
:101610003A953B943C943D9639A9214806F01AFD31
:1016200058E7FEF76DFFA7E74FF400530A930AA8A7
:1016300005F018FA30BB184BD3F8F02042F40052F2
:10164000C3F8F020D3F8F02002F400520892089A70
:10165000D3F8E02042F01002C3F8E020D3F8E030E5
:1016600003F010030993099B7423399302233A93DF
:1016700000233B933C9305233D9339A90A4806F088
:10168000E9FC27E7FEF73CFFD5E700BF003001404B
:10169000003C004000340140004402580000025861
:1016A00000040258000C02580010025800B58DB01A
:1016B0002422002103A817F0D5FD002300930193F5
:1016C00002931148114A0260436083604FF6FF7233
:1016D000C26003618361012303930593099303A906
:1016E0000AF0FEF950B900230093029369460648B8
:1016F0000AF070FC28B90DB05DF804FBFEF700FF9E
:10170000F1E7FEF7FDFEF6E7300F00200004004091
:1017100082B00368114A934204D0114A93420FD019
:1017200002B070470F4BD3F8F02042F00102C3F82B
:10173000F020D3F8F03003F001030093009BEFE7B3
:10174000084BD3F8F02042F00202C3F8F020D3F89F
:10175000F03003F002030193019BE1E70000014038
:10176000000401400044025800B589B000230393EF
:1017700004930593069307930268144B9A4202D090
:1017800009B05DF804FB124BD3F8E82042F00202E6
:10179000C3F8E820D3F8E82002F002020192019A8F
:1017A000D3F8E02042F00402C3F8E020D3F8E030A0
:1017B00003F004030293029BC023039302230493C8
:1017C000079303A9034806F045FCD9E7000400404D
:1017D000004402580008025800B589B00023039362
:1017E000049305930693079303681B4A934205D01D
:1017F0001A4A934219D009B05DF804FB184BD3F88C
:10180000E02042F00202C3F8E020D3F8E03003F019
:1018100002030193019B0123039302220492079385
:1018200003A9104806F016FCE5E70D4BD3F8E020BD
:1018300042F00202C3F8E020D3F8E03003F00203E4
:101840000293029B0223039304930323079303A9A8
:10185000044806F0FFFBCEE7000001400004014011
:10186000004402580004025810B59AB0002416949F
:101870001794189419941394149415940C940D942B
:101880000E940F941094119412942C22214601A8C6
:1018900017F0E8FC3248334B0360EF234360846069
:1018A0004FF47A73C36004614461802383610AF05A
:1018B000B7F8002842D14FF48053169316A9284850
:1018C0000AF05CFA00283CD125480AF0D9F8002833
:1018D0003AD1002313931493159313A920480AF0C7
:1018E00079FB002833D160230C934FF4FA730D93E6
:1018F00000230E930F9310931193129304220CA9BB
:1019000017480AF091F928BB00230193029303932F
:10191000049305934FF400520692079308934FF0F7
:10192000007209920A930B9301A90D480AF0A2FBD9
:1019300098B90B48FFF750FF1AB010BDFEF7E0FD55
:10194000B9E7FEF7DDFDBFE7FEF7DAFDC1E7FEF719
:10195000D7FDC8E7FEF7D4FDD6E7FEF7D1FDE8E7EF
:10196000E40E00200000014010B59AB00024169447
:101970001794189419941394149415940C940D942A
:101980000E940F941094119412942C22214601A8C5
:1019900017F068FC3248334B0360EF2343608460E8
:1019A00040F2E733C36004614461802383610AF03D
:1019B00037F8002841D14FF48053169316A92848D0
:1019C0000AF0DCF900283BD125480AF059F8002834
:1019D00039D1002313931493159313A920480AF0C7
:1019E000F9FA002832D160230C93C8230D93002309
:1019F0000E930F9310931193129308220CA9184879
:101A00000AF012F928BB0023019302930393049375
:101A100005934FF400520692079308934FF000721B
:101A200009920A930B9301A90D480AF023FB98B978
:101A30000B48FFF7D1FE1AB010BDFEF761FDBAE703
:101A4000FEF75EFDC0E7FEF75BFDC2E7FEF758FD5F
:101A5000C9E7FEF755FDD6E7FEF752FDE8E700BF00
:101A60007C0F00200004014000B583B001904FF6C8
:101A7000FF73012201A903480AF015FF019803B082
:101A80005DF804FBC80F002070B50C461646002513
:101A900004E014F8010BFFF7E7FF0135B542F8DB6E
:101AA000304670BD08B51748174B03604FF4E1335B
:101AB000436000238360C36003610C224261836141
:101AC000C3610362436283620AF094FF70B900212C
:101AD0000C480BF008F860B900210A480BF028F810
:101AE00050B908480AF0E0FF48B908BDFEF708FD04
:101AF000EDE7FEF705FDEFE7FEF702FDF1E7FEF784
:101B0000FFFCF2E7E8100020004C004008B5174841
:101B1000174B03604FF4E133436000238360C360DD
:101B200003610C2242618361C36103624362836289
:101B30000AF060FF70B900210C480AF0D4FF60B9C8
:101B400000210A480AF0F4FF50B908480AF0ACFF37
:101B500048B908BDFEF7D4FCEDE7FEF7D1FCEFE78E
:101B6000FEF7CEFCF1E7FEF7CBFCF2E7C80F002052
:101B70000010014008B51748174B03604FF4E133DC
:101B8000436000238360C36003610C224261836170
:101B9000C3610362436283620AF02CFF70B90021C3
:101BA0000C480AF0A0FF60B900210A480AF0C0FF03
:101BB00050B908480AF078FF48B908BDFEF7A0FC04
:101BC000EDE7FEF79DFCEFE7FEF79AFCF1E7FEF785
:101BD00097FCF2E7581000200048004010B5BAB05A
:101BE0000446002135913691379138913991BC22C4
:101BF00006A817F037FB23684E4A934207D04E4A97
:101C0000934235D04D4A934263D03AB010BD02237F
:101C1000069306A804F026FF38BB494BD3F8E8200A
:101C200042F40022C3F8E820D3F8E82002F40022AE
:101C30000092009AD3F8E02042F00202C3F8E020BC
:101C4000D3F8E03003F002030193019B4FF440739B
:101C5000359302233693002337933893082339931F
:101C600035A9384806F0F6F9CFE7FEF749FCD4E786
:101C70000123069306A804F0F5FE38BB304BD3F8D9
:101C8000F02042F01002C3F8F020D3F8F02002F068
:101C900010020292029AD3F8E02042F00202C3F846
:101CA000E020D3F8E03003F002030393039B4FF4EA
:101CB000404335930223369300233793389304230C
:101CC000399335A91F4806F0C5F99EE7FEF718FCC1
:101CD000D4E70223069306A804F0C4FE38BB184BD1
:101CE000D3F8E82042F48022C3F8E820D3F8E820B3
:101CF00002F480220492049AD3F8E02042F0020217
:101D0000C3F8E020D3F8E03003F002030593059B0D
:101D10004FF440633593022336930023379338936F
:101D20000723399335A9074806F094F96DE7FEF7C4
:101D3000E7FBD4E7004C00400010014000480040A1
:101D4000004402580004025808B50B480B4B0360CE
:101D5000092343600222C260002303618261C361E0
:101D6000036243628362C36203630AF006FF00B941
:101D700008BDFEF7C5FBFBE7781100200000084016
:101D800010B5B6B0044600213191329133913491AF
:101D90003591BC2202A817F065FA22681E4B9A42C0
:101DA00001D036B010BD4FF4802302934FF440139E
:101DB000239302A804F056FE50BB06F0B3FA174C6A
:101DC000D4F8E03043F00103C4F8E030D4F8E03058
:101DD00003F001030093009B4FF4C053319302239F
:101DE000329300233393032334930A23359331A989
:101DF0000B4806F02FF9D4F8D83043F00063C4F84C
:101E0000D830D4F8D83003F000630193019BC8E7C1
:101E1000FEF776FBD1E700BF0000084000440258FF
:101E200000000258FEE7FEE7FEE7FEE7FEE7704728
:101E300008B5024809F0A5FC08BD00BF80150020C8
:101E400008B54FF4805006F02BFA08BD08B50248DB
:101E500007F00DFB08BD00BFA018002000B583B03F
:101E60000A4BD3F8F42042F00202C3F8F420D3F86E
:101E7000F43003F002030193019B00220F216FF065
:101E8000010006F069FA03B05DF804FB0044025853
:101E90000F2801D90120704710B58AB004460022EE
:101EA00001461E2006F058FA1E2006F08BFA1A4B47
:101EB0001C601A4BD3F8E82042F00402C3F8E82073
:101EC000D3F8E83003F004030093009B01A902A8B3
:101ED00004F092FC079BBBB904F06AFC034610486F
:101EE000A0FB03239B0C013B0E480F4A026040F20B
:101EF000E732C260436000230361836009F090FD14
:101F000030B101200AB010BD04F052FC4300E6E7F6
:101F1000044809F0E9FBF5E72C00002000440258D2
:101F200083DE1B43801500200008004010B54FF4ED
:101F3000FC6000F0D5FC0022564B1A600CE094B215
:101F400040F21F3322460021084602F09DFF032085
:101F50000DF0CBFAA21D12B2B2F5F07FEFDB002339
:101F60000CE09CB2234640F2DF120021084602F04A
:101F70008BFF03200DF0B9FAA31D1BB2B3F5487F08
:101F8000EFDB4FF4FC6000F0ABFC424B1F221A6009
:101F900000220DE094B240F21F332246002140F2AD
:101FA000DF1002F071FF03200DF09FFAA21D12B2A4
:101FB000B2F5F07FEEDB00230CE09CB2234600225A
:101FC000114640F2DF1002F05FFF03200DF08DFAA2
:101FD000A31D1BB2B3F5487FEFDB4FF6FF7000F097
:101FE0007FFC2C4B4FF478421A6000230DE09CB22A
:101FF000234640F2DF1240F21F31002002F044FF7E
:1020000003200DF072FAA31D1BB2B3F5487FEEDB7F
:1020100000220CE094B20023224640F21F31184601
:1020200002F032FF03200DF060FAA21D12B2B2F5E9
:10203000F07FEFDB4FF6FF7000F052FC154B4FF6D0
:102040001F021A6000220DE094B20023224640F2E3
:102050001F3140F2DF1002F017FF03200DF045FAA8
:10206000A21D12B2B2F5F07FEEDB00230DE09CB2B0
:102070002346002240F21F3140F2DF1002F004FF3D
:1020800003200DF032FAA31D1BB2B3F5487FEEDB3F
:1020900010BD00BF2400002010B54FF6FF7000F007
:1020A0001FFC00230D4A13600EE0C0F34F009CB2EA
:1020B000C0F5C871C0F1F0002346224689B280B253
:1020C00002F031FFA31D1BB2B3F5F07F04DA18460E
:1020D000002BEADA581CE8E710BD00BF24000020FE
:1020E000F8B505464FF6FF7000F0FAFB1F4B1F22B4
:1020F0001A602FB23E460EE08CB22A462146B0B29C
:1021000002F02CFF04EB450109B2B1F5487FF3DB87
:1021100006EB450636B2B6F5F07F01DA3946F4E74C
:1021200040F2DC500DF0E1F94FF6FF7000F0D8FB03
:102130000E4B4FF61F021A606E08354637460EE00A
:102140008CB232462146B8B202F008FF04EB4601D9
:1021500009B2B1F5487FF3DB07EB46073FB2B7F5AD
:10216000F07F01DA2946F4E7F8BD00BF2400002023
:102170002DE9F04F83B04FF6FF7000F0B1FB1E2148
:10218000002000F0F7F8434D4FF478432B60424FA6
:102190000197102400942346C8221E21002003F03A
:1021A00031F84FF6E07BC5F800B00197182600968D
:1021B0002346C8223C21002003F024F84FF4FC6A97
:1021C000C5F800A001974FF02008CDF80080234605
:1021D000C8225A21002003F015F84FF01F09C5F856
:1021E0000090012301930096042340F2D24278210B
:1021F000002002F0ABFF40F2DC500DF076F9C5F89C
:1022000000B0019700962346C822B421002002F0B6
:10221000F9FFC5F800A0214B0193CDF800802346BB
:10222000C822D221002002F0EDFF1D4B0193CDF812
:10223000008023464FF49672F021002002F0E2FF66
:10224000C5F80090174B019300942346C8224FF421
:102250008771002002F0D6FF134B019300962346AE
:10226000C8224FF49671002002F0CCFF4FF61F03F6
:102270002B600E4B019300962346C8224FF4A571A4
:10228000002002F0BFFF40F6C4100DF02EF903B09D
:10229000BDE8F08F2400002010B6010820B6010828
:1022A0002CB6010840B6010850B6010860B6010816
:1022B00008B5FFF73BFE4FF47A700DF016F9FFF703
:1022C000EBFE4FF47A700DF010F90F20FFF708FFC6
:1022D0004FF47A700DF009F9FFF74AFF08BDA82303
:1022E00003FB00F0800800BF03460138002BFAD141
:1022F000704782B0ADF80600BDF806309BB2ADF86D
:102300000630BDF806309BB24FF0C842A2F87E30CE
:1023100002B0704782B0ADF80600BDF806309BB23F
:10232000ADF80630BDF806309BB24FF0C842A2F8B7
:10233000803002B0704782B04FF0C843B3F88030AD
:102340009BB2ADF80630BDF8060080B202B070470F
:102350004FF0C843A3F87E00A3F880107047000038
:10236000034B1A894FF0C843A3F87E20704700BF83
:10237000CC15002070B505460C46404B9B8841F6B5
:102380006312934217D045F21052934257D03B4EFE
:102390007089FFF7AEFF280AFFF7BCFFE8B2FFF72E
:1023A000B9FFB089FFF7A5FF200AFFF7B3FFE0B23E
:1023B000FFF7B0FF70BD314B9B7953BB2F4B188893
:1023C000451BADB2013DADB25889FFF792FF002029
:1023D000FFF7A0FF0020FFF79DFF280AFFF79AFFF5
:1023E000E8B2FFF797FF254DA889FFF782FF200A83
:1023F000FFF790FFE0B2FFF78DFF68880138C0F368
:102400000F20FFF787FF68880138C0B2FFF782FF0F
:10241000D0E71A4E7089FFF76CFF280AFFF77AFFA2
:10242000E8B2FFF777FF30880138C0F30F20FFF7DD
:1024300071FF30880138C0B2FFF76CFFD3E70F4E51
:102440007089FFF756FF280AFFF764FF7089013093
:1024500080B2FFF74EFFE8B2FFF75CFFB089FFF7ED
:1024600048FF200AFFF756FFB089013080B2FFF71E
:1024700040FFE0B2FFF74EFF9CE700BFCC15002005
:1024800010B5744B9B79012B10D02BB9714B9A88E6
:1024900041F663139A420FD00138062800F2848077
:1024A000DFE800F07472706E6C6A1600694A9188F9
:1024B00041F663129142E8D00728EDD8DFE800F03A
:1024C00072706C6E06046A68002402E0802400E0EA
:1024D000E024604B9B8845F21052934266D0362030
:1024E00049F2413147F28972934218BF8B4201D1C0
:1024F00044F008042146FFF72BFF564B9B8841F61A
:10250000631293420AD014F0200F52D0514A11881E
:102510005288914202D24F480280418045F21052C7
:1025200093424FD04B4C6089FFF7E3FE0020FFF74A
:10253000F1FE0020FFF7EEFE20880138C0F30F20E7
:10254000FFF7E8FE20880138C0B2FFF7E3FEA0895C
:10255000FFF7CFFE0020FFF7DDFE0020FFF7DAFED9
:1025600060880138C0F30F20FFF7D4FE608801387F
:10257000C0B2FFF7CFFE10BDA024AAE76024A8E7F1
:102580002024A6E7C024A4E74024A2E78024A0E7F3
:1025900040249EE7C0249CE720249AE7602498E723
:1025A000E02496E7A02494E7002492E74FF45850E3
:1025B00096E7284A118852889142AFD9254802806F
:1025C0004180ABE7234C6089FFF793FE0020FFF7C3
:1025D000A1FE6089013080B2FFF78BFE0020FFF77B
:1025E00099FE6089023080B2FFF783FE20880138AF
:1025F000C0F30F20FFF78EFE6089033080B2FFF733
:1026000078FE20880138C0B2FFF784FEA089FFF76A
:1026100070FE0020FFF77EFEA089013080B2FFF738
:1026200068FE0020FFF776FEA089023080B2FFF737
:1026300060FE60880138C0F30F20FFF76BFEA089B1
:10264000033080B2FFF755FE60880138C0B2FFF753
:1026500061FE90E7CC15002008B5FFF78BFEFFF771
:102660007FFE034B1A884FF0C843A3F8802008BDB3
:10267000240000202DE9F04104460E4615463A4B51
:102680009B8845F2105C63453BD041F66312934250
:1026900055D1354B9B792BB9334B1888041BA4B209
:1026A000013CA4B2304F7889FFF723FE4FEA14288B
:1026B0004046FFF72FFEE4B22046FFF72BFE4046D0
:1026C000FFF728FE2046FFF725FEB889FFF711FE29
:1026D000340A2046FFF71EFEF6B23046FFF71AFE18
:1026E0002046FFF717FE3046FFF714FE1E4B1989F0
:1026F0004FF0C843A3F87E10AAB2A3F88020BDE82B
:10270000F081194F7889FFF7F4FD200AFFF702FEE8
:102710007889013080B2FFF7ECFDE0B2FFF7FAFDF7
:10272000B889FFF7E6FD300AFFF7F4FDB8890130FC
:1027300080B2FFF7DEFDF0B2FFF7ECFDD6E70A4FFF
:102740007889FFF7D6FD200AFFF7E4FDE0B2FFF736
:10275000E1FDB889FFF7CDFD300AFFF7DBFDF0B2F0
:10276000FFF7D8FDC2E700BFCC1500200000000035
:1027700008B52DED028B08EE100ABE20FFF7B9FD5B
:102780000520FFF7C7FDB8EEC87B9FED0D6B27EE68
:10279000067BBCEEC77B17EE103A98B2FFF7BAFD86
:1027A0000120FFF7B7FDFF20FFF7B4FD0020FFF782
:1027B000B1FD0020FFF7AEFDBDEC028B08BD00BFF0
:1027C000666666666666044008B5444B98710028E4
:1027D00043D1F0221A804FF4A0725A809B8845F2B0
:1027E0001052934212D041F6631293421FD03B4ADB
:1027F0002C2111812A2151812B21918145F2103206
:10280000934222D00020FFF73BFE08BD334A4FF42D
:10281000305111814FF4285151814FF42C51918145
:102820004FF4F07111804FF448715180E6E72B4A64
:102830002C2111812B2151812A2191814FF4F0719A
:1028400011804FF448715180D8E7244B4FF4A072A7
:102850001A804FF4F0725A80D4E7204B4FF4A072E4
:102860001A80F0225A809B8845F21052934216D06B
:1028700041F66312934223D0184A2C2111812A2158
:1028800051812B21918145F210329342BAD1134BE1
:102890004FF4F0721A804FF4A0725A80B2E70F4AD8
:1028A0004FF4305111814FF4285151814FF42C5184
:1028B00091814FF4487111804FF4F0715180E2E73B
:1028C000064A2C2111812A2151812B2191814FF41B
:1028D000487111804FF4F0715180D4E7CC1500207D
:1028E00038B505460A4B1A885C8802FB04F40021BF
:1028F0000846FFF73FFDFFF733FD002205E0ABB2CE
:102900004FF0C841A1F880300132A242F7D338BD60
:10291000CC15002010B5D320FFF7EBFCFFF70BFD23
:102920008A4CA080FFF707FDA080FFF704FDA08080
:102930000002A080FFF7FFFCA388184380B2A080AC
:1029400049F24133984245D1804B9B8849F241324C
:10295000934200F0FF8047F28972934200F00F82A9
:1029600045F21032934200F0DD8245F2105293425C
:1029700001F0518241F66312934202F0CA81734B17
:102980009B8849F2413145F21032934218BF8B4285
:1029900007D045F21052934203D041F6631293429E
:1029A00010D16B4BDA6922F00F02DA61DA6922F496
:1029B0007062DA61DA6942F00302DA61DA6942F4DC
:1029C0000072DA610020FFF7FFFE4FF6FF70FFF79D
:1029D00087FF10BD0420FFF78CFCFFF7ACFCA08044
:1029E000FFF7A9FCA080FFF7A6FCA0800002A08052
:1029F000FFF7A1FCA388184380B2A08048F252538D
:102A0000984200F09F80514B9A8847F289739A420E
:102A10009AD0D420FFF76DFCFFF78DFC4B4CA080C3
:102A2000FFF789FCA080FFF786FCA0800002A08051
:102A3000FFF781FCA388184380B2A08045F21033D1
:102A4000984281D0D320FFF754FCFFF774FCA0809C
:102A5000FFF771FCA080FFF76EFCA0800002A08051
:102A6000FFF769FCA388184380B2A08047F29673F1
:102A700098423FF469AF55214FF47040FFF768FC6E
:102A8000AA214FF20100FFF763FC52214FF202002E
:102A9000FFF75EFC08214FF20300FFF759FC01210C
:102AA0004FF20400FFF754FC4FF44540FFF721FCC0
:102AB000FFF741FCA0800002A0804CF20150FFF71C
:102AC00018FCFFF738FCA3881843A080052005F008
:102AD00015FDA28845F210539A423FF435AFD3203A
:102AE000FFF707FCFFF727FCA080FFF724FCA0807E
:102AF000FFF721FCA0800002A080FFF71CFCA38848
:102B000003439BB2A38049F6060293423FF41CAFF5
:102B1000A120FFF7EEFBFFF70EFCA080FFF70BFCF8
:102B2000A0800002A080FFF706FCA38803439BB2AD
:102B3000A38045F2617293427FF406AF41F66312BF
:102B4000A28001E747F28972A2805CE7CC150020E1
:102B500000410052CF20FFF7CCFB0020FFF7DAFB4B
:102B6000C120FFF7D7FB3020FFF7D4FBED20FFF7A4
:102B7000C0FB6420FFF7CEFB0320FFF7CBFB122046
:102B8000FFF7C8FB8120FFF7C5FBE820FFF7B1FB8B
:102B90008520FFF7BFFB1020FFF7BCFB7A20FFF773
:102BA000B9FBCB20FFF7A5FB3920FFF7B3FB2C20A7
:102BB000FFF7B0FB0020FFF7ADFB3420FFF7AAFBC7
:102BC0000220FFF7A7FBF720FFF793FB2020FFF77A
:102BD000A1FBEA20FFF78DFB0020FFF79BFB002005
:102BE000FFF798FBC020FFF784FB1B20FFF792FB49
:102BF000C120FFF77EFB0120FFF78CFBC520FFF70C
:102C000078FB3020FFF786FB3020FFF783FBC720DF
:102C1000FFF76FFBB720FFF77DFB3620FFF769FB5F
:102C20004820FFF777FB3A20FFF763FB5520FFF7BB
:102C300071FBB120FFF75DFB0020FFF76BFB1A2053
:102C4000FFF768FBB620FFF754FB0A20FFF762FB93
:102C5000A220FFF75FFBF220FFF74BFB0020FFF7FE
:102C600059FB2620FFF745FB0120FFF753FBE0202F
:102C7000FFF73FFB0F20FFF74DFB2A20FFF74AFB32
:102C80002820FFF747FB0820FFF744FB0E20FFF743
:102C900041FB0820FFF73EFB5420FFF73BFBA92038
:102CA000FFF738FB4320FFF735FB0A20FFF732FB25
:102CB0000F20FFF72FFB0020FFF72CFB0020FFF772
:102CC00029FB0020FFF726FB0020FFF723FBE12074
:102CD000FFF70FFB0020FFF71DFB1520FFF71AFB86
:102CE0001720FFF717FB0720FFF714FB1120FFF752
:102CF00011FB0620FFF70EFB2B20FFF70BFB5620E6
:102D0000FFF708FB3C20FFF705FB0520FFF702FB60
:102D10001020FFF7FFFA0F20FFF7FCFA3F20FFF724
:102D2000F9FA3F20FFF7F6FA0F20FFF7F3FA2B200E
:102D3000FFF7DFFA0020FFF7EDFA0020FFF7EAFACD
:102D40000120FFF7E7FA3F20FFF7E4FA2A20FFF718
:102D5000D0FA0020FFF7DEFA0020FFF7DBFA0020B0
:102D6000FFF7D8FAEF20FFF7D5FA1120FFF7C1FAE5
:102D7000782005F0C3FB2920FFF7BBFAFFE51120FF
:102D8000FFF7B7FA782005F0B9FB3620FFF7B1FA64
:102D90000020FFF7BFFA3A20FFF7ABFA0520FFF754
:102DA000B9FAB220FFF7A5FA0C20FFF7B3FA0C200E
:102DB000FFF7B0FA0020FFF7ADFA3320FFF7AAFAC9
:102DC0003320FFF7A7FAB720FFF793FA3520FFF774
:102DD000A1FABB20FFF78DFA3220FFF79BFAC02043
:102DE000FFF787FA0C20FFF795FAC220FFF781FA68
:102DF0000120FFF78FFAC320FFF77BFA1020FFF7BF
:102E000089FAC420FFF775FA2020FFF783FAC6205D
:102E1000FFF76FFA0F20FFF77DFAD020FFF769FA6E
:102E2000A420FFF777FAA120FFF774FAE020FFF75C
:102E300060FAD020FFF76EFA0020FFF76BFA02204D
:102E4000FFF768FA0720FFF765FA0A20FFF762FA32
:102E50002820FFF75FFA3220FFF75CFA4420FFF7E3
:102E600059FA4220FFF756FA0620FFF753FA0E20D0
:102E7000FFF750FA1220FFF74DFA1420FFF74AFA35
:102E80001720FFF747FAE120FFF733FAD020FFF7CA
:102E900041FA0020FFF73EFA0220FFF73BFA072035
:102EA000FFF738FA0A20FFF735FA2820FFF732FA41
:102EB0003120FFF72FFA5420FFF72CFA4720FFF7B5
:102EC00029FA0E20FFF726FA1C20FFF723FA172015
:102ED000FFF720FA1B20FFF71DFA1E20FFF71AFA52
:102EE0002A20FFF706FA0020FFF714FA0020FFF768
:102EF00011FA0020FFF70EFAEF20FFF70BFA2B2054
:102F0000FFF7F7F90020FFF705FA0020FFF702FAB4
:102F10000120FFF7FFF93F20FFF7FCF92920FFF719
:102F2000E8F92CE5ED20FFF7E4F90120FFF7F2F9CD
:102F3000FE20FFF7EFF9EE20FFF7DBF9DE20FFF7C9
:102F4000E9F92120FFF7E6F9F120FFF7D2F9012096
:102F5000FFF7E0F9DF20FFF7CCF91020FFF7DAF9EF
:102F6000C420FFF7C6F98F20FFF7D4F9C620FFF77A
:102F7000C0F90020FFF7CEF9E220FFF7CBF9E220FD
:102F8000FFF7C8F9E220FFF7C5F9BF20FFF7B1F955
:102F9000AA20FFF7BFF9B020FFF7ABF90D20FFF72C
:102FA000B9F90020FFF7B6F90D20FFF7B3F90020BB
:102FB000FFF7B0F91120FFF7ADF90020FFF7AAF9EC
:102FC0001920FFF7A7F90020FFF7A4F92120FFF748
:102FD000A1F90020FFF79EF92D20FFF79BF90020B3
:102FE000FFF798F93D20FFF795F90020FFF792F9D8
:102FF0005D20FFF78FF90020FFF78CF95D20FFF7C8
:1030000089F90020FFF786F9B120FFF772F98020D7
:10301000FFF780F90020FFF77DF98B20FFF77AF9A1
:103020000020FFF777F99620FFF774F90020FFF7EB
:1030300071F9B220FFF75DF90020FFF76BF900206E
:10304000FFF768F90220FFF765F90020FFF762F942
:103050000320FFF75FF90020FFF75CF9B320FFF7CB
:1030600048F90020FFF756F90020FFF753F9002038
:10307000FFF750F90020FFF74DF90020FFF74AF95C
:103080000020FFF747F90020FFF744F90020FFF781
:1030900041F90020FFF73EF90020FFF73BF900203F
:1030A000FFF738F90020FFF735F90020FFF732F974
:1030B0000020FFF72FF90020FFF72CF90020FFF781
:1030C00029F90020FFF726F90020FFF723F9002057
:1030D000FFF720F90020FFF71DF90020FFF71AF98C
:1030E0000020FFF717F90020FFF714F90020FFF781
:1030F00011F9B420FFF7FDF88B20FFF70BF9002042
:10310000FFF708F99620FFF705F90020FFF702F90D
:10311000A120FFF7FFF80020FFF7FCF8B520FFF72C
:10312000E8F80220FFF7F6F80020FFF7F3F8032095
:10313000FFF7F0F80020FFF7EDF80420FFF7EAF8BA
:103140000020FFF7E7F8B620FFF7D3F80020FFF7DD
:10315000E1F80020FFF7DEF8B720FFF7CAF80020FB
:10316000FFF7D8F80020FFF7D5F83F20FFF7D2F897
:103170000020FFF7CFF85E20FFF7CCF80020FFF724
:10318000C9F86420FFF7C6F80020FFF7C3F88C20C9
:10319000FFF7C0F80020FFF7BDF8AC20FFF7BAF842
:1031A0000020FFF7B7F8DC20FFF7B4F80020FFF7A6
:1031B000B1F87020FFF7AEF80020FFF7ABF89020D1
:1031C000FFF7A8F80020FFF7A5F8EB20FFF7A2F81B
:1031D0000020FFF79FF8DC20FFF79CF80020FFF7A6
:1031E00099F8B820FFF785F80020FFF793F8002042
:1031F000FFF790F80020FFF78DF80020FFF78AF81E
:103200000020FFF787F80020FFF784F80020FFF781
:1032100081F80020FFF77EF8BA20FFF76AF8242033
:10322000FFF778F80020FFF775F80020FFF772F835
:103230000020FFF76FF8C120FFF75BF82020FFF7B1
:1032400069F80020FFF766F85420FFF763F80020C4
:10325000FFF760F8FF20FFF75DF80020FFF75AF84E
:10326000C220FFF746F80A20FFF754F80020FFF7C6
:1032700051F80420FFF74EF80020FFF74BF8C32069
:10328000FFF737F83C20FFF745F80020FFF742F83A
:103290003A20FFF73FF80020FFF73CF83920FFF70E
:1032A00039F80020FFF736F83720FFF733F8002011
:1032B000FFF730F83C20FFF72DF80020FFF72AF841
:1032C0003620FFF727F80020FFF724F83220FFF719
:1032D00021F80020FFF71EF82F20FFF71BF8002031
:1032E000FFF718F82C20FFF715F80020FFF712F869
:1032F0002920FFF70FF80020FFF70CF82620FFF732
:1033000009F80020FFF706F82420FFF703F8002053
:10331000FFF700F82420FEF7FDFF0020FEF7FAFF7C
:103320002320FEF7F7FF0020FEF7F4FF3C20FEF716
:10333000F1FF0020FEF7EEFF3620FEF7EBFF002046
:10334000FEF7E8FF3220FEF7E5FF0020FEF7E2FF80
:103350002F20FEF7DFFF0020FEF7DCFF2C20FEF71A
:10336000D9FF0020FEF7D6FF2920FEF7D3FF00206B
:10337000FEF7D0FF2620FEF7CDFF0020FEF7CAFFA4
:103380002420FEF7C7FF0020FEF7C4FF2420FEF72D
:10339000C1FF0020FEF7BEFF2320FEF7BBFF002089
:1033A000FEF7B8FFC420FEF7A4FF6220FEF7B2FFCD
:1033B0000020FEF7AFFF0520FEF7ACFF0020FEF770
:1033C000A9FF8420FEF7A6FF0020FEF7A3FFF02050
:1033D000FEF7A0FF0020FEF79DFF1820FEF79AFFE2
:1033E0000020FEF797FFA420FEF794FF0020FEF7D1
:1033F00091FF1820FEF78EFF0020FEF78BFF502074
:10340000FEF788FF0020FEF785FF0C20FEF782FF05
:103410000020FEF77FFF1720FEF77CFF0020FEF75D
:1034200079FF9520FEF776FF0020FEF773FFF3206B
:10343000FEF770FF0020FEF76DFFE620FEF76AFF43
:103440000020FEF767FFC520FEF753FF3220FEF78E
:1034500061FF0020FEF75EFF4420FEF75BFF0020C7
:10346000FEF758FF6520FEF755FF0020FEF752FFDC
:103470007620FEF74FFF0020FEF74CFF8820FEF776
:1034800049FF0020FEF746FFC620FEF732FF20204E
:10349000FEF740FF0020FEF73DFF1720FEF73AFF42
:1034A0000020FEF737FF0120FEF734FF0020FEF773
:1034B00031FFC720FEF71DFF0020FEF72BFF002085
:1034C000FEF728FF0020FEF725FF0020FEF722FF71
:1034D000C820FEF70EFF0020FEF71CFF0020FEF7BD
:1034E00019FF0020FEF716FF0020FEF713FFC9208A
:1034F000FEF7FFFE0020FEF70DFF0020FEF70AFF9B
:103500000020FEF707FF0020FEF704FF0020FEF773
:1035100001FF0020FEF7FEFE0020FEF7FBFE00206C
:10352000FEF7F8FE0020FEF7F5FE0020FEF7F2FEA3
:103530000020FEF7EFFE0020FEF7ECFE0020FEF775
:10354000E9FE0020FEF7E6FE0020FEF7E3FE002085
:10355000FEF7E0FEE020FEF7CCFE1620FEF7DAFED6
:103560000020FEF7D7FE1C20FEF7D4FE0020FEF759
:10357000D1FE2120FEF7CEFE0020FEF7CBFE362046
:10358000FEF7C8FE0020FEF7C5FE4620FEF7C2FE8D
:103590000020FEF7BFFE5220FEF7BCFE0020FEF723
:1035A000B9FE6420FEF7B6FE0020FEF7B3FE7A20D7
:1035B000FEF7B0FE0020FEF7ADFE8B20FEF7AAFE60
:1035C0000020FEF7A7FE9920FEF7A4FE0020FEF7DC
:1035D000A1FEA820FEF79EFE0020FEF79BFEB9206C
:1035E000FEF798FE0020FEF795FEC420FEF792FE3F
:1035F0000020FEF78FFECA20FEF78CFE0020FEF7AB
:1036000089FED220FEF786FE0020FEF783FED92039
:10361000FEF780FE0020FEF77DFEE020FEF77AFE3A
:103620000020FEF777FEF320FEF774FE0020FEF781
:1036300071FEE120FEF75DFE1620FEF76BFE002016
:10364000FEF768FE1C20FEF765FE0020FEF762FE16
:103650002220FEF75FFE0020FEF75CFE3620FEF71C
:1036600059FE0020FEF756FE4520FEF753FE0020CF
:10367000FEF750FE5220FEF74DFE0020FEF74AFEF8
:103680006420FEF747FE0020FEF744FE7A20FEF796
:1036900041FE0020FEF73EFE8B20FEF73BFE0020A1
:1036A000FEF738FE9920FEF735FE0020FEF732FEC9
:1036B000A820FEF72FFE0020FEF72CFEB920FEF713
:1036C00029FE0020FEF726FEC420FEF723FE002080
:1036D000FEF720FECA20FEF71DFE0020FEF71AFEB0
:1036E000D220FEF717FE0020FEF714FED820FEF7CA
:1036F00011FE0020FEF70EFEE020FEF70BFE00207C
:10370000FEF708FEF320FEF705FE0020FEF702FE9E
:10371000E220FEF7EEFD0520FEF7FCFD0020FEF79F
:10372000F9FD0B20FEF7F6FD0020FEF7F3FD1B2050
:10373000FEF7F0FD0020FEF7EDFD3420FEF7EAFD78
:103740000020FEF7E7FD4420FEF7E4FD0020FEF731
:10375000E1FD4F20FEF7DEFD0020FEF7DBFD6120DE
:10376000FEF7D8FD0020FEF7D5FD7920FEF7D2FD4B
:103770000020FEF7CFFD8820FEF7CCFD0020FEF7ED
:10378000C9FD9720FEF7C6FD0020FEF7C3FDA62069
:10379000FEF7C0FD0020FEF7BDFDB720FEF7BAFD25
:1037A0000020FEF7B7FDC220FEF7B4FD0020FEF7B3
:1037B000B1FDC720FEF7AEFD0020FEF7ABFDD12026
:1037C000FEF7A8FD0020FEF7A5FDD620FEF7A2FD1E
:1037D0000020FEF79FFDDD20FEF79CFD0020FEF798
:1037E00099FDF320FEF796FD0020FEF793FDE32000
:1037F000FEF77FFD0520FEF78DFD0020FEF78AFD18
:103800000A20FEF787FD0020FEF784FD1C20FEF74E
:1038100081FD0020FEF77EFD3320FEF77BFD0020BA
:10382000FEF778FD4420FEF775FD0020FEF772FDDF
:103830005020FEF76FFD0020FEF76CFD6220FEF7C2
:1038400069FD0020FEF766FD7820FEF763FD00208D
:10385000FEF760FD8820FEF75DFD0020FEF75AFDB3
:103860009720FEF757FD0020FEF754FDA620FEF737
:1038700051FD0020FEF74EFDB720FEF74BFD002066
:10388000FEF748FDC220FEF745FD0020FEF742FD91
:10389000C720FEF73FFD0020FEF73CFDD120FEF7DC
:1038A00039FD0020FEF736FDD520FEF733FD002060
:1038B000FEF730FDDD20FEF72DFD0020FEF72AFD8E
:1038C000F320FEF727FD0020FEF724FDE420FEF79D
:1038D00010FD0120FEF71EFD0020FEF71BFD01205C
:1038E000FEF718FD0020FEF715FD0220FEF712FD81
:1038F0000020FEF70FFD2A20FEF70CFD0020FEF74A
:1039000009FD3C20FEF706FD0020FEF703FD4B20DD
:10391000FEF700FD0020FEF7FDFC5D20FEF7FAFC3F
:103920000020FEF7F7FC7420FEF7F4FC0020FEF701
:10393000F1FC8420FEF7EEFC0020FEF7EBFC932068
:10394000FEF7E8FC0020FEF7E5FCA220FEF7E2FC13
:103950000020FEF7DFFCB320FEF7DCFC0020FEF7C2
:10396000D9FCBE20FEF7D6FC0020FEF7D3FCC42015
:10397000FEF7D0FC0020FEF7CDFCCD20FEF7CAFC00
:103980000020FEF7C7FCD320FEF7C4FC0020FEF7A2
:10399000C1FCDD20FEF7BEFC0020FEF7BBFCF320DF
:1039A000FEF7B8FC0020FEF7B5FCE520FEF7A1FC11
:1039B0000020FEF7AFFC0020FEF7ACFC0020FEF775
:1039C000A9FC0020FEF7A6FC0220FEF7A3FC0020C5
:1039D000FEF7A0FC2920FEF79DFC0020FEF79AFCD4
:1039E0003C20FEF797FC0020FEF794FC4B20FEF7EE
:1039F00091FC0020FEF78EFC5D20FEF78BFC002082
:103A0000FEF788FC7420FEF785FC0020FEF782FCA0
:103A10008420FEF77FFC0020FEF77CFC9320FEF75D
:103A200079FC0020FEF776FCA220FEF773FC002054
:103A3000FEF770FCB320FEF76DFC0020FEF76AFC79
:103A4000BE20FEF767FC0020FEF764FCC420FEF7F2
:103A500061FC0020FEF75EFCCD20FEF75BFC002041
:103A6000FEF758FCD320FEF755FC0020FEF752FC71
:103A7000DC20FEF74FFC0020FEF74CFCF320FEF7A5
:103A800049FC0020FEF746FCE620FEF732FC112040
:103A9000FEF740FC0020FEF73DFC3420FEF73AFC28
:103AA0000020FEF737FC5620FEF734FC0020FEF71E
:103AB00031FC7620FEF72EFC0020FEF72BFC772051
:103AC000FEF728FC0020FEF725FC6620FEF722FC0E
:103AD0000020FEF71FFC8820FEF71CFC0020FEF7EC
:103AE00019FC9920FEF716FC0020FEF713FCBB2002
:103AF000FEF710FC0020FEF70DFC9920FEF70AFCF3
:103B00000020FEF707FC6620FEF704FC0020FEF70D
:103B100001FC5520FEF7FEFB0020FEF7FBFB5520C5
:103B2000FEF7F8FB0020FEF7F5FB4520FEF7F2FB61
:103B30000020FEF7EFFB4320FEF7ECFB0020FEF732
:103B4000E9FB4420FEF7E6FB0020FEF7E3FBE7205D
:103B5000FEF7CFFB3220FEF7DDFB0020FEF7DAFB9D
:103B60005520FEF7D7FB0020FEF7D4FB7620FEF7AA
:103B7000D1FB0020FEF7CEFB6620FEF7CBFB00203A
:103B8000FEF7C8FB6720FEF7C5FB0020FEF7C2FB6F
:103B90006720FEF7BFFB0020FEF7BCFB8720FEF787
:103BA000B9FB0020FEF7B6FB9920FEF7B3FB00201F
:103BB000FEF7B0FBBB20FEF7ADFB0020FEF7AAFB33
:103BC0009920FEF7A7FB0020FEF7A4FB7720FEF765
:103BD000A1FB0020FEF79EFB4420FEF79BFB00208C
:103BE000FEF798FB5620FEF795FB0020FEF792FBB0
:103BF0002320FEF78FFB0020FEF78CFB3320FEF71F
:103C000089FB0020FEF786FB4520FEF783FB0020A2
:103C1000FEF780FBE820FEF76CFB0020FEF77AFB46
:103C20000020FEF777FB9920FEF774FB0020FEF7DB
:103C300071FB8720FEF76EFB0020FEF76BFB8820F0
:103C4000FEF768FB0020FEF765FB7720FEF762FBBE
:103C50000020FEF75FFB6620FEF75CFB0020FEF70E
:103C600059FB8820FEF756FB0020FEF753FBAA20E5
:103C7000FEF750FB0020FEF74DFBBB20FEF74AFB92
:103C80000020FEF747FB9920FEF744FB0020FEF7DB
:103C900041FB6620FEF73EFB0020FEF73BFB552074
:103CA000FEF738FB0020FEF735FB5520FEF732FB10
:103CB0000020FEF72FFB4420FEF72CFB0020FEF730
:103CC00029FB4420FEF726FB0020FEF723FB5520AE
:103CD000FEF720FB0020FEF71DFBE920FEF709FBA5
:103CE000AA20FEF717FB0020FEF714FB0020FEF7CA
:103CF00011FB0020FEF70EFB0020FEF7FAFAAA20C7
:103D0000FEF708FBCF20FEF7F4FA0020FEF702FBD7
:103D10000020FEF7FFFA0020FEF7FCFA0020FEF775
:103D2000F9FA0020FEF7F6FA0020FEF7F3FA002079
:103D3000FEF7F0FA0020FEF7EDFA0020FEF7EAFAAF
:103D40000020FEF7E7FA0020FEF7E4FA0020FEF775
:103D5000E1FA0020FEF7DEFA0020FEF7DBFA002091
:103D6000FEF7D8FA0020FEF7D5FA0020FEF7D2FAC7
:103D7000F020FEF7BEFA0020FEF7CCFA5020FEF746
:103D8000C9FA0020FEF7C6FA0020FEF7C3FA0020A9
:103D9000FEF7C0FAF320FEF7ACFA0020FEF7BAFAFD
:103DA000F920FEF7A6FA0620FEF7B4FA1020FEF777
:103DB000B1FA2920FEF7AEFA0020FEF7ABFA3A205E
:103DC000FEF797FA5520FEF7A5FA1120FEF791FAB3
:103DD000642004F093FB2920FEF78BFA3520FEF7D0
:103DE00088FA0020FEF796FA5120FEF782FAFF20AB
:103DF000FEF790FA5320FEF77CFA2C20FEF78AFAA1
:103E00005520FEF776FA8220FEF784FA2C20FEF782
:103E100070FAFEF7B4BD55214FF47040FEF798FAE2
:103E2000AA214FF20100FEF793FA52214FF202004D
:103E3000FEF78EFA08214FF20300FEF789FA0121FE
:103E40004FF20400FEF784FA0D214FF43040FEF7E4
:103E50007FFA0D214BF20100FEF77AFA0D214BF2A9
:103E60000200FEF775FA34214FF43640FEF770FA7F
:103E700034214BF20160FEF76BFA34214BF2026001
:103E8000FEF766FA0D214FF43140FEF761FA0D217D
:103E90004BF20110FEF75CFA0D214BF20210FEF717
:103EA00057FA34214FF43740FEF752FA34214BF2DF
:103EB0000170FEF74DFA34214BF20270FEF748FA1A
:103EC00000214FF43240FEF743FA00214BF201206B
:103ED000FEF73EFA00214BF20220FEF739FA2421C8
:103EE0004FF43840FEF734FA24214BF60100FEF778
:103EF0002FFA24214BF60200FEF72AFA01214FF493
:103F00003F40FEF725FA0F214FF43340FEF720FA29
:103F10000F214BF20130FEF71BFA0F214BF202305A
:103F2000FEF716FA34214FF43940FEF711FA342126
:103F30004BF60110FEF70CFA34214BF60210FEF797
:103F400007FA08214FF43540FEF702FA08214BF238
:103F50000150FEF7FDF908214BF20250FEF7F8F987
:103F600003214FF44240FEF7F3F924214FF43A4085
:103F7000FEF7EEF924214BF60120FEF7E9F92421A2
:103F80004BF60220FEF7E4F900214FF43C40FEF727
:103F9000DFF978214BF60140FEF7DAF900214BF604
:103FA0000240FEF7D5F900214FF43D40FEF7D0F96D
:103FB00078214BF60150FEF7CBF900214BF6025069
:103FC000FEF7C6F900214FF43E40FEF7C1F9642127
:103FD0004BF60160FEF7BCF900214FF45140FEF7AB
:103FE000B7F933214DF20110FEF7B2F900214DF27D
:103FF0000210FEF7ADF934214DF20310FEF7A8F9D7
:1040000000214DF20410FEF7A3F93A214DF20510FC
:10401000FEF79EF900214DF20610FEF799F94A21AC
:104020004DF20710FEF794F900214DF20810FEF74B
:104030008FF95C214DF20910FEF78AF900214DF24B
:104040000A10FEF785F981214DF20B10FEF780F979
:1040500000214DF20C10FEF77BF9A6214DF20D1058
:10406000FEF776F900214DF20E10FEF771F9E52109
:104070004DF20F10FEF76CF901214DF21010FEF712
:1040800067F913214DF21110FEF762F901214DF28B
:104090001210FEF75DF954214DF21310FEF758F996
:1040A00001214DF21410FEF753F982214DF2151043
:1040B000FEF74EF901214DF21610FEF749F9CA211B
:1040C0004DF21710FEF744F902214DF21810FEF7D9
:1040D0003FF900214DF21910FEF73AF902214DF295
:1040E0001A10FEF735F901214DF21B10FEF730F9D9
:1040F00002214DF21C10FEF72BF934214DF21D1058
:10410000FEF726F902214DF21E10FEF721F9672174
:104110004DF21F10FEF71CF902214DF22010FEF7A0
:1041200017F984214DF22110FEF712F902214DF208
:104130002210FEF70DF9A4214DF22310FEF708F925
:1041400002214DF22410FEF703F9B7214DF225109C
:10415000FEF7FEF802214DF22610FEF7F9F8CF2106
:104160004DF22710FEF7F4F802214DF22810FEF769
:10417000EFF8DE214DF22910FEF7EAF802214DF2A8
:104180002A10FEF7E5F8F2214DF22B10FEF7E0F8C9
:1041900002214DF22C10FEF7DBF8FE214DF22D101E
:1041A000FEF7D6F803214DF22E10FEF7D1F81021BC
:1041B0004DF22F10FEF7CCF803214DF23010FEF730
:1041C000C7F833214DF23110FEF7C2F803214DF24A
:1041D0003210FEF7BDF86D214DF23310FEF7B8F83E
:1041E00000214FF45240FEF7B3F833214DF2012085
:1041F000FEF7AEF800214DF20220FEF7A9F83421B7
:104200004DF20320FEF7A4F800214DF20420FEF742
:104210009FF83A214DF20520FEF79AF800214DF261
:104220000620FEF795F84A214DF20720FEF790F898
:1042300000214DF20820FEF78BF85C214DF2092099
:10424000FEF786F800214DF20A20FEF781F8812161
:104250004DF20B20FEF77CF800214DF20C20FEF70A
:1042600077F8A6214DF20D20FEF772F800214DF2ED
:104270000E20FEF76DF8E5214DF20F20FEF768F8ED
:1042800001214DF21020FEF763F813214DF21120A9
:10429000FEF75EF801214DF21220FEF759F8542185
:1042A0004DF21320FEF754F801214DF21420FEF7D1
:1042B0004FF882214DF21520FEF74AF801214DF208
:1042C0001620FEF745F8CA214DF21720FEF740F8F8
:1042D00002214DF21820FEF73BF800214DF2192083
:1042E000FEF736F802214DF21A20FEF731F80121CF
:1042F0004DF21B20FEF72CF802214DF21C20FEF798
:1043000027F834214DF21D20FEF722F802214DF24C
:104310001E20FEF71DF867214DF21F20FEF718F84A
:1043200002214DF22020FEF713F884214DF22120C6
:10433000FEF70EF802214DF22220FEF709F8A42123
:104340004DF22320FEF704F802214DF22420FDF760
:10435000FFFFB7214DF22520FDF7FAFF02214DF2B4
:104360002620FDF7F5FFCF214DF22720FDF7F0FFC6
:1043700002214DF22820FDF7EBFFDE214DF229202E
:10438000FDF7E6FF02214DF22A20FDF7E1FFF221C1
:104390004DF22B20FDF7DCFF02214DF22C20FDF722
:1043A000D7FFFE214DF22D20FDF7D2FF03214DF264
:1043B0002E20FDF7CDFF10214DF22F20FDF7C8FF75
:1043C00003214DF23020FDF7C3FF33214DF23120A0
:1043D000FDF7BEFF03214DF23220FDF7B9FF6D213D
:1043E0004DF23320FDF7B4FF00214FF45340FDF7A9
:1043F000AFFF33214DF20130FDF7AAFF00214DF24E
:104400000230FDF7A5FF34214DF20330FDF7A0FF88
:1044100000214DF20430FDF79BFF3A214DF20530AB
:10442000FDF796FF00214DF20630FDF791FF4A217E
:104430004DF20730FDF78CFF00214DF20830FDF7FB
:1044400087FF5C214DF20930FDF782FF00214DF21C
:104450000A30FDF77DFF81214DF20B30FDF778FF2B
:1044600000214DF20C30FDF773FFA6214DF20D3007
:10447000FDF76EFF00214DF20E30FDF769FFE521DB
:104480004DF20F30FDF764FF01214DF21030FDF7C2
:104490005FFF13214DF21130FDF75AFF01214DF25C
:1044A0001230FDF755FF54214DF21330FDF750FF48
:1044B00001214DF21430FDF74BFF82214DF21530F2
:1044C000FDF746FF01214DF21630FDF741FFCA21ED
:1044D0004DF21730FDF73CFF02214DF21830FDF789
:1044E00037FF00214DF21930FDF732FF02214DF266
:1044F0001A30FDF72DFF01214DF21B30FDF728FF8B
:1045000002214DF21C30FDF723FF34214DF21D3006
:10451000FDF71EFF02214DF21E30FDF719FF672146
:104520004DF21F30FDF714FF02214DF22030FDF750
:104530000FFF84214DF22130FDF70AFF02214DF2D9
:104540002230FDF705FFA4214DF22330FDF700FFD7
:1045500002214DF22430FDF7FBFEB7214DF225304C
:10456000FDF7F6FE02214DF22630FDF7F1FECF21D8
:104570004DF22730FDF7ECFE02214DF22830FDF719
:10458000E7FEDE214DF22930FDF7E2FE02214DF279
:104590002A30FDF7DDFEF2214DF22B30FDF7D8FE7B
:1045A00002214DF22C30FDF7D3FEFE214DF22D30CD
:1045B000FDF7CEFE03214DF22E30FDF7C9FE10218E
:1045C0004DF22F30FDF7C4FE03214DF23030FDF7E0
:1045D000BFFE33214DF23130FDF7BAFE03214DF21B
:1045E0003230FDF7B5FE6D214DF23330FDF7B0FEF0
:1045F00000214FF45440FDF7ABFE33214DF2014052
:10460000FDF7A6FE00214DF20240FDF7A1FE342188
:104610004DF20340FDF79CFE00214DF20440FDF7F2
:1046200097FE3A214DF20540FDF792FE00214DF232
:104630000640FDF78DFE4A214DF20740FDF788FE4A
:1046400000214DF20840FDF783FE5C214DF2094048
:10465000FDF77EFE00214DF20A40FDF779FE812133
:104660004DF20B40FDF774FE00214DF20C40FDF7BA
:104670006FFEA6214DF20D40FDF76AFE00214DF2BE
:104680000E40FDF765FEE5214DF20F40FDF760FE9F
:1046900001214DF21040FDF75BFE13214DF2114058
:1046A000FDF756FE01214DF21240FDF751FE542157
:1046B0004DF21340FDF74CFE01214DF21440FDF781
:1046C00047FE82214DF21540FDF742FE01214DF2D9
:1046D0001640FDF73DFECA214DF21740FDF738FEAA
:1046E00002214DF21840FDF733FE00214DF2194032
:1046F000FDF72EFE02214DF21A40FDF729FE0121A1
:104700004DF21B40FDF724FE02214DF21C40FDF747
:104710001FFE34214DF21D40FDF71AFE02214DF21D
:104720001E40FDF715FE67214DF21F40FDF710FEFC
:1047300002214DF22040FDF70BFE84214DF2214075
:10474000FDF706FE02214DF22240FDF701FEA421F5
:104750004DF22340FDF7FCFD02214DF22440FDF710
:10476000F7FDB7214DF22540FDF7F2FD02214DF294
:104770002640FDF7EDFDCF214DF22740FDF7E8FD86
:1047800002214DF22840FDF7E3FDDE214DF22940E4
:10479000FDF7DEFD02214DF22A40FDF7D9FDF221A1
:1047A0004DF22B40FDF7D4FD02214DF22C40FDF7D8
:1047B000CFFDFE214DF22D40FDF7CAFD03214DF244
:1047C0002E40FDF7C5FD10214DF22F40FDF7C0FD35
:1047D00003214DF23040FDF7BBFD33214DF2314056
:1047E000FDF7B6FD03214DF23240FDF7B1FD6D211D
:1047F0004DF23340FDF7ACFD00214FF45540FDF77D
:10480000A7FD33214DF20150FDF7A2FD00214DF22D
:104810000250FDF79DFD34214DF20350FDF798FD48
:1048200000214DF20450FDF793FD3A214DF2055061
:10483000FDF78EFD00214DF20650FDF789FD4A215E
:104840004DF20750FDF784FD00214DF20850FDF7B1
:104850007FFD5C214DF20950FDF77AFD00214DF2FC
:104860000A50FDF775FD81214DF20B50FDF770FDEB
:1048700000214DF20C50FDF76BFDA6214DF20D50BD
:10488000FDF766FD00214DF20E50FDF761FDE521BB
:104890004DF20F50FDF75CFD01214DF21050FDF778
:1048A00057FD13214DF21150FDF752FD01214DF23C
:1048B0001250FDF74DFD54214DF21350FDF748FD08
:1048C00001214DF21450FDF743FD82214DF21550A8
:1048D000FDF73EFD01214DF21650FDF739FDCA21CD
:1048E0004DF21750FDF734FD02214DF21850FDF73F
:1048F0002FFD00214DF21950FDF72AFD02214DF246
:104900001A50FDF725FD01214DF21B50FDF720FD4A
:1049100002214DF21C50FDF71BFD34214DF21D50BC
:10492000FDF716FD02214DF21E50FDF711FD672126
:104930004DF21F50FDF70CFD02214DF22050FDF706
:1049400007FD84214DF22150FDF702FD02214DF2B9
:104950002250FDF7FDFCA4214DF22350FDF7F8FC99
:1049600002214DF22450FDF7F3FCB7214DF2255002
:10497000FDF7EEFC02214DF22650FDF7E9FCCF21B8
:104980004DF22750FDF7E4FC02214DF22850FDF7CF
:10499000DFFCDE214DF22950FDF7DAFC02214DF259
:1049A0002A50FDF7D5FCF2214DF22B50FDF7D0FC3B
:1049B00002214DF22C50FDF7CBFCFE214DF22D5083
:1049C000FDF7C6FC03214DF22E50FDF7C1FC10216E
:1049D0004DF22F50FDF7BCFC03214DF23050FDF796
:1049E000B7FC33214DF23150FDF7B2FC03214DF2FB
:1049F0003250FDF7ADFC6D214DF23350FDF7A8FCB0
:104A000000214FF45640FDF7A3FC33214DF2016025
:104A1000FDF79EFC00214DF20260FDF799FC342168
:104A20004DF20360FDF794FC00214DF20460FDF7A8
:104A30008FFC3A214DF20560FDF78AFC00214DF212
:104A40000660FDF785FC4A214DF20760FDF780FC0A
:104A500000214DF20860FDF77BFC5C214DF20960FE
:104A6000FDF776FC00214DF20A60FDF771FC812113
:104A70004DF20B60FDF76CFC00214DF20C60FDF770
:104A800067FCA6214DF20D60FDF762FC00214DF29E
:104A90000E60FDF75DFCE5214DF20F60FDF758FC5F
:104AA00001214DF21060FDF753FC13214DF211600E
:104AB000FDF74EFC01214DF21260FDF749FC542137
:104AC0004DF21360FDF744FC01214DF21460FDF737
:104AD0003FFC82214DF21560FDF73AFC01214DF2B9
:104AE0001660FDF735FCCA214DF21760FDF730FC6A
:104AF00002214DF21860FDF72BFC00214DF21960E8
:104B0000FDF726FC02214DF21A60FDF721FC012180
:104B10004DF21B60FDF71CFC02214DF21C60FDF7FD
:104B200017FC34214DF21D60FDF712FC02214DF2FD
:104B30001E60FDF70DFC67214DF21F60FDF708FCBC
:104B400002214DF22060FDF703FC84214DF221602B
:104B5000FDF7FEFB02214DF22260FDF7F9FBA421D7
:104B60004DF22360FDF7F4FB02214DF22460FDF7C6
:104B7000EFFBB7214DF22560FDF7EAFB02214DF274
:104B80002660FDF7E5FBCF214DF22760FDF7E0FB46
:104B900002214DF22860FDF7DBFBDE214DF229609A
:104BA000FDF7D6FB02214DF22A60FDF7D1FBF22181
:104BB0004DF22B60FDF7CCFB02214DF22C60FDF78E
:104BC000C7FBFE214DF22D60FDF7C2FB03214DF224
:104BD0002E60FDF7BDFB10214DF22F60FDF7B8FBF5
:104BE00003214DF23060FDF7B3FB33214DF231600C
:104BF000FDF7AEFB03214DF23260FDF7A9FB6D21FD
:104C00004DF23360FDF7A4FB55214FF47040FDF7E2
:104C10009FFBAA214FF20100FDF79AFB52214FF2B0
:104C20000200FDF795FB08214FF20300FDF790FB12
:104C300000214FF20400FDF78BFBCC214FF43140F3
:104C4000FDF786FB00214BF20110FDF781FB0521EA
:104C50004FF43640FDF77CFB70214FF43740FDF7F1
:104C600077FB70214BF20170FDF772FB01214FF4CD
:104C70003840FDF76DFB03214BF60100FDF768FBA3
:104C800003214BF60200FDF763FB03214BF6030003
:104C9000FDF75EFB02214FF43C40FDF759FB00217C
:104CA0004BF60140FDF754FB00214BF60240FDF7A7
:104CB0004FFBD0214FF44940FDF74AFB02214CF64F
:104CC0000110FDF745FB50214CF60210FDF740FBAB
:104CD00050214CF60310FDF73BFB50214CF604101D
:104CE000FDF736FB00214FF45450FDF731FB552101
:104CF0004FF46850FDF72CFB4FF48850FDF7F9FA9C
:104D00007820FDF7ECFA4FF42450FDF7F2FAFDF7A6
:104D100036BEE220FDF7EDFA1D20FDF7FBFA02207A
:104D2000FDF7F8FA0420FDF7F5FA6420FDF7D7FA4D
:104D3000E020FDF7DEFA0120FDF7ECFA0A2003F08F
:104D4000DDFBE020FDF7D5FA0320FDF7E3FA0C20A8
:104D500003F0D4FB0120FDF7CCFA0A2003F0CEFBD0
:104D6000E620FDF7C6FA2F20FDF7D4FAFF20FDF765
:104D7000D1FAFF20FDF7CEFAB020FDF7BAFA2020D5
:104D8000FDF7C8FA0020FDF7C5FA0320FDF7C2FAC7
:104D900040F21F30FDF7BEFA0120FDF7BBFA40F2EA
:104DA000DF10FDF7B7FA0020FDF7B4FAB420FDF7E5
:104DB000A0FA0420FDF7AEFA40F21F40FDF7AAFA70
:104DC0000020FDF7A7FA2E20FDF7A4FA0020FDF73A
:104DD000A1FA0020FDF79EFA0020FDF79BFA0020C3
:104DE000FDF798FAB620FDF784FA0220FDF792FA53
:104DF0004FF40370FDF78EFA0020FDF78BFA1720B1
:104E0000FDF788FA1520FDF785FA0020FDF782FAF4
:104E10000020FDF77FFAF020FDF76BFA0320FDF785
:104E200079FA2920FDF765FAD020FDF762FA002013
:104E3000FDF770FABE20FDF75CFA0520FDF76AFA6F
:104E4000FE20FDF767FA0120FDF764FA0020FDF768
:104E500061FA0020FDF75EFA0020FDF75BFAB8204A
:104E6000FDF747FA0320FDF755FA0120FDF752FA46
:104E7000BA20FDF73EFA0120FDF74CFA6420FDF759
:104E800077FCFDF77CBD00BF2DE9F04F83B0804675
:104E9000A2EB000A8946A3EB010BBAF1000F0DDD6E
:104EA00001220092BBF1000F14DD01230193DA45CA
:104EB0001CDD564600252F462C461BE0BAF1000F9C
:104EC00005D0A0EB020A4FF0FF320092EAE7CDF8DE
:104ED00000A0E7E7BBF1000F05D0A1EB030B4FF0FB
:104EE000FF330193E3E7CDF804B0E0E75E46E1E786
:104EF0000134A4B2731C9C4212DC1FFA89F11FFA20
:104F000088F0FDF7A9FB57445D44BE4202DABF1B9F
:104F1000009B9844AE42EBDAAD1B019B9944E7E756
:104F200003B0BDE8F08FF8B507460E4615461C469F
:104F30000B46FFF7A9FF23463A4631463846FFF7AE
:104F4000A3FF23462A4621463846FFF79DFF234606
:104F50002A4631462846FFF797FFF8BD2DE9F04F66
:104F600085B080460F4600925300C3F103030193BE
:104F7000002608E0009AB31A9B000A3301991944ED
:104F80000191531E0093009B9E4247DCB5B205EB96
:104F9000080B1FFA8BFBBDF800403B1B9BB2029332
:104FA00019465846FDF758FB04EB080A1FFA8AFA1F
:104FB0007B1B9AB2039211465046FDF74DFB05EB61
:104FC00007091FFA89F949465046FDF745FB04EBEE
:104FD000070A1FFA8AFA51465846FDF73DFBA8EB2F
:104FE0000505ADB251462846FDF736FBA8EB040493
:104FF000A4B249462046FDF72FFB02992846FDF74B
:105000002BFB03992046FDF727FB0136019A002A66
:10501000B0DAB30006331A440192B4E705B0BDE834
:10502000F08F00002DE9F04F83B0824688461F467E
:105030009DF830B013F0070318BF012303EBD7032B
:10504000790811FB03F3DBB20093203AD3B201934A
:1050500044464FF0000949E0019B03EB43032E4A0D
:1050600002EB830313F80950002623E02B4B019A2F
:1050700003EB021313F80950F6E7019B03EBC3039C
:10508000274A02EB830313F80950EDE7254B1A6812
:1050900021465046FDF7EEFA6D00EDB20134A4B2A0
:1050A000214B5B88A34233D9A4EB0803BB4210D049
:1050B0000136F6B2072E15D815F0800FE6D1BBF1F8
:1050C000000FE9D1194B1A6821465046FDF7D2FA74
:1050D000E2E70AF1010A1FFA8AFA134B1B885345CB
:1050E00016D9444609F101095FFA89F9009B9945EF
:1050F0000ED20C2FB0D0102FB8D0182FBDD0202F2B
:1051000006D10B4B019A03EBC21313F80950ABE71E
:1051100003B0BDE8F08F00BF50DC0108C4E0010817
:10512000B4E6010824000020CC1500202000002057
:1051300010F401080246012002E002FB00F01946CB
:105140004B1EDBB20029F8D1704700002DE9F04F6B
:1051500083B08246894690461D469DF830609DF892
:1051600034B000273C462BE01BF0800F0CD17008B8
:1051700000FB04A00BF001030093334620224946B4
:1051800080B2FFF74FFF19E0700800FB04A00BF09E
:105190000103009333463022494680B2FFF742FFB5
:1051A0000CE07008303200FB04A00BF00103009308
:1051B0003346D2B2494680B2FFF734FF0134E4B23D
:1051C000AC421AD2291BC9B20139C9B20A20FFF771
:1051D000B1FFB8FBF0F00A4AA2FB0032D20802EBA2
:1051E0008202A0EB4202D2B2002FDAD16B1E9C42A7
:1051F000D7DA002AB8D00127D3E703B0BDE8F08F93
:10520000CDCCCCCC2DE9F04782B082460D469DF83E
:1052100028700B9E02441FFA82F90B441FFA83F890
:1052200004460CE0454517D2002300933B4629462F
:105230002046FFF7F7FE04EB5704A4B2013632789C
:10524000A2F12003DBB25E2B06D84C45EAD35FFA0D
:105250008AF43D44ADB2E5E702B0BDE8F087000056
:10526000F0B583B00022019290F85020012A00F09E
:1052700055820346012280F850200068826812F0AF
:10528000040F09D05A6D42F020025A650120002215
:1052900083F8502003B0F0BD0A68C2F31304002C59
:1052A0004ED1C2F3846201249440C2692243C26198
:1052B0001D684C683035220A920002F00C02A85892
:1052C00004F01F0E1F2404FA0EF420EA04000C68F8
:1052D000C4F3846C0CFA0EFC40EA0C00A8501C6865
:1052E000A26812F0040200D00122A06810F00800A9
:1052F00000D0012002432FD01868826812F0010FFD
:1053000040F008820A68CD68D0F8C040C2F31306A6
:1053100024EA060405F0180CB24D25FA0CF52A40D3
:10532000C2F313022243C0F8C020C868AE4A9042BC
:1053300000F0B0800A68002AC0F26B810020A6E766
:1053400092FAA2F232B1B2FA82F202F01F02012402
:105350009440AAE72022F8E70F688D681434780E8D
:10536000800000F004002658C7F3045E4FF0070CDD
:105370000CFA0EFC26EA0C0C05FA0EF54CEA0505B3
:1053800025509A48006800F07040B0F1805F0BD063
:105390001C68E06810F0100F39D14869E468C4F364
:1053A00082046400A04006E048691C68E468C4F315
:1053B00082046400A0400D69042D36D01F680E6879
:1053C000603757F8254004F0004406F0F8463043B3
:1053D000204347F8250018680E694C7E012C1ED02A
:1053E0001546603050F8264024F000442C4340F825
:1053F00026401D680C69087E012813D0286920F416
:10540000F04004F01F04A24002432A6174E7486997
:10541000E468A40804F004046400A040CBE74FF063
:105420000045DEE74FF40062E8E71868026E02F01C
:10543000F8420C68B2EB846F1DD01868426E02F01F
:10544000F8420C68B2EB846F1AD01868826E02F0D2
:10545000F8420C68B2EB846F17D01868C26E02F085
:10546000F8420C68B2EB846F7FF446AFC26E22F054
:105470000042C26640E7026E22F000420266DCE7AC
:10548000426E22F000424266DFE7826E22F0004266
:105490008266E2E71C680A68C2F31305002D34D166
:1054A000900E013000F01F0009288CBF0020012061
:1054B000002861D0002D37D1900E0130800600F019
:1054C000F840002D3CD1960E013606F01F0701264C
:1054D000BE403043002D41D1920E013202F01F0236
:1054E00002EB42021205024388681434550EAD00E7
:1054F00005F004056659C2F304520727974026EACF
:10550000070690403043605114E792FAA2F048B188
:10551000B0FA80F0013000F01F0009288CBF002095
:105520000120C5E72020F5E792FAA2F030B1B0FAE9
:1055300080F00130800600F0F840C2E72020F8E754
:1055400092FAA2F646B1B6FA86F6013606F01F06C2
:10555000012707FA06F6BCE72026F6E792FAA2F240
:1055600042B1B2FA82F2013202F01F0202EB4202B1
:105570001205B8E72022F6E7CDB9900E013080067B
:1055800000F0F840FDB9960E013606F01F0701261F
:10559000BE40304365BB920E013202F01F0202EBA7
:1055A00042021E3A120542F0007202439CE792FA50
:1055B000A2F030B1B0FA80F00130800600F0F8407F
:1055C000E0E72020F8E792FAA2F646B1B6FA86F6AE
:1055D000013606F01F06012707FA06F6D9E720264E
:1055E000F6E700BFFFFF0F000000FF470010005C60
:1055F00092FAA2F25AB1B2FA82F2013202F01F021A
:1056000002EB42021E3A120542F00072CDE7202260
:10561000F3E719684248434CA14218BF81420CBFCE
:105620000120002021D1404EB56805F0E077F0B1AF
:105630003B48806810F0010000D00120394CA4687C
:1056400014F0010400D0012420430CBF01200020ED
:10565000002859D03548824212D03548824231D094
:10566000344882423FD0002011E6334EDCE7334815
:10567000806810F0010000D0012080F00100E7E711
:1056800015F4000FE9D12D4A914201D00020FEE52A
:1056900047F40002B16821F0E0710A43B260284A81
:1056A000126892092749A1FB0212920901325200A5
:1056B000019202E0019A013A0192019A002AF9D17D
:1056C0000020E4E515F0807FCAD11C4A914201D048
:1056D0000020DCE547F08072B16821F0E0710A43F8
:1056E000B2600020D3E515F4800F15D1134A914222
:1056F00001D00020CBE547F48002B16821F0E071D1
:105700000A43B2600020C2E55A6D42F020025A6599
:105710000120BCE50020BAE50020B8E50220B9E58B
:10572000002002400021024000230240000084CB00
:10573000000052C70000B8CF006302580060025852
:1057400030000020632D3E0538B5044603684F49FC
:105750004F4A934218BF8B4223D14E4B9B6813F4A0
:10576000403F14BF012300234BB300F0FFFF054669
:105770006368B3F5003F1CD0B3F5403F1DD0B3F5CF
:10578000803F16D002F0CEFE41F20303984257D874
:10579000414B9D424ED92268936843F480739360D5
:1057A00038BD3E4B9B6813F4403F14BF01230023D8
:1057B000DAE71B0CB5FBF3F5E4E78508E2E74FF405
:1057C000002002F037F905466368B3F5101F2DD0AD
:1057D00022D8B3F5E01F27D004D9B3F5001FD1D1EB
:1057E0004509CFE7B3F5801F0DD006D9B3F5A01F4B
:1057F00009D0B3F5C01F06D0C4E7B3F5002F02D01F
:10580000B3F5402F04D19B0C5B00B5FBF3F5B9E772
:10581000B3F5802FF7D0B5E7B3F5201F08D0B3F567
:10582000301FAFD1050AADE70509ABE78509A9E748
:10583000C509A7E72268936823F480739360AFE7F4
:10584000174B9D4205D82268936823F440739360F8
:10585000A6E7144B9D4207D82268936823F440734F
:1058600043F4807393609BE70F4B9D4207D82268F7
:10587000936823F4407343F40073936090E72268C5
:10588000936843F4407393608AE700BF00200240AE
:105890000021024000230240002D31010063025824
:1058A00021BCBE0041787D0181F0FA0230B583B0A1
:1058B00000230193002800F010810446436DEBB1F2
:1058C00023689A6812F0005F03D09968844A0A40FE
:1058D0009A6023689A6812F0805F1CD19968814AA7
:1058E0000A4042F080529A607F4B1B689B097F4AB6
:1058F000A2FB03239B090133019309E0FBF770F836
:105900000023A36584F85030DAE7019B013B019343
:10591000019B002BF9D12268936813F0805F40F05F
:105920009C80636D43F010036365A36D43F0010336
:10593000A3650125936813F0040300D00123616D72
:1059400011F0100F40F0C180002B40F0BE80636D5D
:1059500023F4817343F002036365936813F0010F2E
:1059600021D16349634B9A4218BF8A420CBF01227E
:10597000002274D18B6813F0010300D001235D492C
:10598000896811F0010100D001210B430CBF0123F4
:10599000002343B1002A6BD0574963688A6822F418
:1059A0007C1213438B6002F0BDFD41F20303984269
:1059B00002D9A368102B5DD0627D236B43EA42338A
:1059C000A2681343227F43EA0243227F012A5CD06C
:1059D000626A22B102F47872A16A0A431343216811
:1059E000C868464A02401343CB6021688B6813F0B5
:1059F000040300D001238A6812F0080200D00122BB
:105A000013431BD1227DE36A43EA8232C8683C4BD0
:105A100003401343CB6094F83830012B3AD022680E
:105A2000136923F0010313612268136923F07043A3
:105A3000616B0B4313612046FFF786FEE368012B81
:105A40003AD02268136B23F00F031363636D23F0C6
:105A5000030343F0010363653CE000256AE7294B3B
:105A60009B6813F0010300D0012383F0010390E74A
:105A7000254992E7617D226B42EA41321343227F3E
:105A800043EA024343F00C039FE7226A013A43EAE8
:105A900042439DE7206802691C4B1340E26B511E94
:105AA000226C42EA0142616C0A43A16C0A4313432F
:105AB00043F001030361B7E721680B6B23F00F0389
:105AC000A269013A13430B63C0E7636D43F010030F
:105AD00063650125284603B030BD0125FAE700BF04
