:020000040800F2
:10000000000002208D820108C11C0008C31C0008EA
:10001000C51C0008C71C0008C91C0008000000001F
:10002000000000000000000000000000C1F900080E
:10003000CB1C00080000000061FA0008C5FA0008A7
:10004000DD820108DD820108DD820108DD82010810
:10005000DD820108DD820108DD820108DD82010800
:10006000DD820108DD820108DD820108DD820108F0
:10007000DD820108DD820108DD820108DD820108E0
:10008000DD820108DD820108DD820108DD820108D0
:10009000DD820108DD820108DD820108DD820108C0
:1000A000DD820108DD820108DD820108DD820108B0
:1000B000DD820108DD820108CD1C0008DD82010817
:1000C000DD820108DD820108DD820108DD82010890
:1000D000DD820108DD820108DD820108DD82010880
:1000E000DD1C0008DD82010800000000DD8201083F
:1000F000DD820108DD820108DD820108DD82010860
:10010000DD820108DD820108DD820108DD8201084F
:10011000DD820108DD820108DD820108DD8201083F
:10012000DD820108DD820108DD820108DD8201082F
:10013000DD820108E91C0008DD820108DD8201087A
:1001400000000000000000000000000000000000AF
:10015000DD820108DD820108DD820108DD820108FF
:10016000DD820108DD820108DD820108DD820108EF
:10017000DD820108DD820108DD8201080000000047
:10018000DD820108DD820108DD820108DD820108CF
:10019000DD820108DD820108DD820108DD820108BF
:1001A000DD820108DD820108DD820108DD820108AF
:1001B000DD820108DD820108DD820108DD8201089F
:1001C000DD820108DD820108DD820108DD8201088F
:1001D000DD820108DD820108DD820108DD8201087F
:1001E000DD820108DD820108DD820108DD8201086F
:1001F000DD820108DD820108DD820108DD8201085F
:10020000DD820108DD820108DD820108DD8201084E
:10021000DD820108DD820108DD820108DD8201083E
:10022000DD820108DD820108DD8201080000000096
:10023000DD820108DD82010800000000DD82010886
:10024000DD820108DD820108DD820108DD8201080E
:10025000DD820108DD820108DD820108DD820108FE
:10026000DD820108DD820108DD820108DD820108EE
:10027000DD820108DD820108DD8201080000000046
:10028000DD820108DD820108DD8201080000000036
:0802900000000000DD820108FE
:1002A00010F8012B11F8013B012A28BF9A42F7D020
:1002B000D01A70470000000000000000000000009D
:1002C00001F0FF01102A2BDB10F0070F08D010F807
:1002D000013B013A8B422DD010F0070F42B3F6D10B
:1002E000F0B441EA012141EA014122F007047FF024
:1002F00000070023F0E80256083C85EA010586EA7B
:10030000010685FA47F5A3FA87F586FA47F6A5FAB6
:1003100087F68EB9EED1F0BC01F0FF0102F00702C2
:1003200032B110F8013B013A83EA010313B1F8D16D
:100330000020704701387047002D06BF354603384E
:10034000073815F0010F07D1013015F4807F02BF87
:10035000013015F4C03F0130F0BC0138704700BFD8
:10036000034613F8012B002AFBD1181A01387047F5
:1003700053B94AB9002908BF00281CBF4FF0FF310C
:100380004FF0FF3000F00CB8ADF1080C6DE904CE71
:100390001AF044FCDDF804E0DDE9022304B0704704
:1003A000704700BF0348044B834202D0034B03B1A4
:1003B00018477047040200200402002000000000DB
:1003C0000548064B1B1AD90F01EBA301491002D0B7
:1003D000034B03B1184770470402002004020020B9
:1003E0000000000010B5064C237843B9FFF7DAFF90
:1003F000044B13B10448AFF300800123237010BDF8
:100400000402002000000000D8AE010808B5054B2A
:100410001BB105490548AFF30080BDE80840FFF770
:10042000CFBF00BF0000000008020020D8AE0108C6
:1004300070B584B00024009401940294039407F0F2
:1004400065FF01258DF800508DF80140244B019384
:1004500007238DF808308DF809408DF80A400326EF
:100460008DF80B608DF80C408DF80D408DF80E4026
:100470008DF80F50684607F067FF8DF80150194B53
:1004800001930D238DF808308DF80E508DF80F4034
:10049000684607F059FF02238DF801304FF0C8433A
:1004A00001931B238DF808308DF80E408DF80F5006
:1004B000684607F049FF8DF801604FF04043019313
:1004C00018238DF808308DF80A508DF80E506846C4
:1004D00007F03AFF042007F027FF04B070BD00BF0B
:1004E000000004300040043008B50268034B9A4213
:1004F00000D008BD07F086FFFBE700BF0008004002
:1005000072B6FEE700B59DB04C22002109A818F094
:1005100015FD2022002101A818F010FD022007F08F
:100520005DFE002300932F4B9A6942F440429A618A
:100530009B6903F4404300932B4BDA6A42F00102BB
:10054000DA62DB6A03F001030093009B254B9B6991
:1005500013F4005FFAD007F039FE07F079FF234A61
:10056000136F23F018031367936A23F0030343F018
:1005700002039362252309934FF480330A930122E7
:100580000B920F92022312931393149261221592ED
:1005900016930422179218930C23199300231A938D
:1005A0004FF4A8531B9309A805F0CCFAB0B93F2328
:1005B000019303230293002303930823049340230E
:1005C000059306934FF4806207920893022101A8D5
:1005D00005F0EAFE20B91DB05DF804FBFFF790FFBF
:1005E000FFF78EFF004802580004005800440258EC
:1005F00008B5FFF71DFF4A4B5B6913F4003F13D1A9
:10060000BFF34F8FBFF36F8F454B0022C3F85022CB
:10061000BFF34F8FBFF36F8F5A6942F400325A61B4
:10062000BFF34F8FBFF36F8F3D4B5B6913F4803F78
:1006300027D13B4B0022C3F88420BFF34F8FD3F860
:100640008040C4F34E3000E01846C4F3C90243F6BC
:10065000E07303EA401343EA82733149C1F8603220
:100660001346013A002BF2D1431E0028ECD1BFF310
:100670004F8F4B6943F480334B61BFF34F8FBFF310
:100680006F8F07F091FEFFF73DFF00F053F800F089
:100690001FFD01F037F800F053F901F0A3FA00F064
:1006A00053FF00F069FA00F025FB00F04FFB00F06B
:1006B00083FC00F04DFD00F0C1FD00F0EBFD00F00B
:1006C00015FE01F09FF801F03BF901F06DF901F022
:1006D0009FF90CF07FFE042112480BF07BFB124CBB
:1006E00000224FF40061204607F051FD322007F050
:1006F0009BFE01224FF40061204607F048FD3220A6
:1007000007F092FE02F052F8084800F0DBFB0821E7
:1007100007480BF05FFB0CF0C3FC0EF013FEFEE786
:1007200000ED00E0540F0020000C025820020020D1
:10073000BC0E00202DE9F04F8FB0002409940A94DC
:100740000B940C940D94774BD3F8E02042F01002F8
:10075000C3F8E020D3F8E02002F010020192019AE1
:10076000D3F8E02042F00402C3F8E020D3F8E02000
:1007700002F004020292029AD3F8E02042F0200232
:10078000C3F8E020D3F8E02002F020020392039A9D
:10079000D3F8E02042F08002C3F8E020D3F8E02054
:1007A00002F080020492049AD3F8E02042F00102A1
:1007B000C3F8E020D3F8E02002F001020592059A88
:1007C000D3F8E02042F00202C3F8E020D3F8E020A2
:1007D00002F002020692069AD3F8E02042F04002AC
:1007E000C3F8E020D3F8E02002F040020792079A15
:1007F000D3F8E02042F00802C3F8E020D3F8E0305C
:1008000003F008030893089BDFF828B1224608216B
:10081000584607F0BCFCDFF820A122464FF40051F7
:10082000504607F0B4FCDFF81491224604214846F4
:1008300007F0ADFC3C4F22464FF40061384607F00C
:10084000A6FC3A4E224644F28841304607F09FFC0F
:1008500022464FF4E061364807F099FC4FF0080853
:10086000CDF8248001250A950B940C9409A95846CB
:1008700007F076FB4FF4005BCDF824B00A950B949B
:100880000C9409A9504607F06BFB042309930A95C1
:100890000B940C9409A9484607F062FB4FF40063DF
:1008A00009930A950B940C9409A9384607F058FB54
:1008B00044F2884309930A950B940C9409A9304695
:1008C00007F04EFB4FF4E06309930A950B940C94E8
:1008D00009A9174807F044FBCDF824800A940B942B
:1008E00009A9384607F03CFB4FF4805309934FF4B5
:1008F00088130A930B9409A9304607F031FBCDF811
:1009000024B00A940B9409A9304607F029FB22462B
:100910000521282007F0E6FC282007F0F3FC0FB0A3
:10092000BDE8F08F00440258000C0258001802582D
:100930000000025800100258000802580004025833
:1009400000B58BB00023079308930993009301939C
:10095000029303930493059306931E481E4A026074
:1009600043608360C3600422026103754375012202
:100970008261037743628362C3620363436380F8E7
:10098000383004F00BFFE0B90023079307A91148A2
:1009900005F030F8C0B9114B0093062301930023F2
:1009A000029340F2FF7203920422049205938DF8A1
:1009B00019306946074804F0FDFB40B90BB05DF8FB
:1009C00004FBFFF79DFDDFE7FFF79AFDE3E7FFF785
:1009D00097FDF3E7280A0020002002400080F03E47
:1009E00010B5B6B004460021319132913391349163
:1009F0003591BC2202A818F0A1FA2268204B9A4235
:100A000001D036B010BD4FF40023029301230393AD
:100A1000122304930223059306930793C02308939C
:100A2000202309934FF41F630A9302A805F07EFF69
:100A300018BB144BD3F8D82042F02002C3F8D820BA
:100A4000D3F8D82002F020020092009AD3F8E020D8
:100A500042F00102C3F8E020D3F8E03003F00103D4
:100A60000193019B09233193032332930023339392
:100A700031A9054807F074FAC3E7FFF741FDD8E74D
:100A8000002002400044025800000258F0B5B7B000
:100A90000023319332933393349335932F4B1B6858
:100AA0000BB137B0F0BD2D4B01221A60BC220021E2
:100AB00002A818F043FA4FF08073029302A805F0E1
:100AC00035FF002847D1264BD3F8D42042F480527A
:100AD000C3F8D420D3F8D43003F480530193019B9E
:100AE0004FF63F03319302273297002633960325B2
:100AF00034950C24359431A91A4807F031FA0D23A6
:100B00003193329733963495359431A9164807F0CE
:100B100027FA48F237333193329733963495359428
:100B200031A9124807F01CFA4FF6837331933297BC
:100B300033963495359431A90D4807F011FA4CF2EB
:100B4000B3733193329733963495359431A909486C
:100B500007F006FAA5E7FFF7D3FCB4E78C0A0020FC
:100B600000440258001402580008025800180258A5
:100B700000100258000C025830B597B000220F92B6
:100B80001092119212921392149215920892099255
:100B90000A920B920C920D920E9201920292039283
:100BA00004920592069207924848494B036003F568
:100BB0008273436082600223C360042303611021B7
:100BC00041618261C26102624FF48053436282627A
:100BD000C262026342638263C26302640F230F93A3
:100BE0001093FF24119412931391112314930FA9BE
:100BF00008F06EFF00285FD13648354B036003F5DF
:100C000082734360022181600023C360036110226C
:100C100042618361C36103624FF480544462836222
:100C20004FF48044C462036343638363C363036418
:100C30000F910F25109550241194129313921124A3
:100C4000149415930891099505210A910B930C9220
:100C50000D940E9308AA0FA908F03AFF00282ED190
:100C60001D481E4B0360002343600122826008225E
:100C7000C26010210161402141614FF480718161A6
:100C8000C3614FF4006101624FF48051416283629D
:100C900002230193029206220392049204220592F7
:100CA000069307930DEB020108F046FF50B90C487C
:100CB00000F05CF917B030BDFFF722FC9CE7FFF7AE
:100CC0001FFCCDE7FFF71CFCF1E700BF100B002075
:100CD00000400052C40A0020900A00204041005207
:100CE000040C002008B5FFF7D1FE08BD08B5FFF7DA
:100CF000CDFE08BD08B51248124B0360124B43608D
:100D0000002383600122C260036143618361C36188
:100D1000036207F0ADFB50B90021094807F006FC5B
:100D200040B90021064807F02FFC30B908BDFFF795
:100D3000E7FBF1E7FFF7E4FBF3E7FFF7E1FBF5E79C
:100D4000A80B002000540040FFECC01008B512486A
:100D5000124B0360124B4360002383600122C26088
:100D6000036143618361C361036207F081FB50B992
:100D70000021094807F0DAFB40B90021064807F0D6
:100D800003FC30B908BDFFF7BBFBF1E7FFF7B8FB89
:100D9000F3E7FFF7B5FBF5E75C0B0020001C0058FC
:100DA000FFECC01010B5B8B0044600213391349167
:100DB000359136913791BC2204A818F0BFF823680A
:100DC000344A934204D0344A934231D038B010BDF3
:100DD0000823049304A805F0A9FD30BB2F4CD4F8D8
:100DE000E03043F00203C4F8E030D4F8E03003F020
:100DF00002030093009BC0233393122334930023F8
:100E0000359336930423379333A9254807F0A8F880
:100E1000D4F8E83043F40013C4F8E830D4F8E830EC
:100E200003F400130193019BD0E7FFF769FBD5E7BB
:100E3000102304930DEB030005F078FD38BB174C2D
:100E4000D4F8E03043F00803C4F8E030D4F8E030E0
:100E500003F008030293029B4FF440533393122391
:100E600034930023359336930423379333A90D48E5
:100E700007F076F8D4F8F43043F08003C4F8F43087
:100E8000D4F8F43003F080030393039B9EE7FFF74D
:100E900037FBD4E700540040001C005800440258BF
:100EA00000040258000C02584FF0C04303600123B5
:100EB00080F80438022380F80538062380F80638C5
:100EC0007047000010B50446FFF7EEFF002304E072
:100ED00004EB4302002191800133B3F5806FF7DB0F
:100EE0000C4C01228021204607F051F9022007F026
:100EF0009BFA01224FF48061204607F048F9142044
:100F000007F092FA00224FF48061204607F03FF983
:100F100010BD00BF00180258002306E04FF0C04289
:100F20001188034A22F813100133072BF6DD7047AE
:100F3000F40B002000B585B018B1012811D00020B5
:100F400000E0102000910190029203934FF6FF728F
:100F50006946054808F018FE00B1012005B05DF8AB
:100F600004FB0820EEE700BF040C002008B50023B6
:100F7000012211461846FFF7DDFF012007F054FA61
:100F80000023012202211846FFF7D4FF0023082284
:100F900003211846FFF7CEFF4FF408730122042106
:100FA0000020FFF7C7FF40F2F921024808F00DFECC
:100FB00008BD00BF040C002008B50A480A4B0360B6
:100FC000FF234360012282600023C360026143610A
:100FD0008361C361036208F03DFE00B908BDFFF7FD
:100FE0008FFAFBE7380C002000500052F0B5B9B082
:100FF0000446002133913491359136913791BC22CA
:1010000004A817F09BFF22682D4B9A4201D039B0FB
:10101000F0BD4FF00073049304A805F087FC00288E
:101020004AD1284BD3F8D42042F48042C3F8D420CC
:10103000D3F8D42002F480420192019AD3F8E02040
:1010400042F02002C3F8E020D3F8E02002F02002B2
:101050000292029AD3F8E02042F04002C3F8E02066
:10106000D3F8E03003F040030393039B4FF49863FD
:10107000339302253495002435943694092337930D
:10108000114F33A9384606F06BFF4FF4407333938A
:101090003495359436940A26379633A9384606F0A7
:1010A0005FFF40233393349535943694379633A9B4
:1010B000064806F055FFAAE7FFF722FAB1E700BF9E
:1010C0000050005200440258001402580018025800
:1010D00008B50A480A4B0360002343607F22826000
:1010E000FF22C26003618361C361436108F068FE4F
:1010F00000B908BDFFF704FAFBE700BF840C00202D
:101100000040005810B5B0B00446BC22002101A830
:1011100017F014FF22680C4B9A4201D030B010BD7A
:101120004FF4800301934FF480732D9301A805F0D1
:10113000FDFB28B9054A136F43F400431367EDE73D
:10114000FFF7DEF9F6E700BF004000580044025800
:10115000054B064A1A6000225A609A604FF480419B
:10116000D9601A615A617047A80C002000700052C3
:10117000F0B5B9B0044600213391349135913691E0
:101180003791BC2204A817F0D9FE2268274B9A4257
:1011900001D039B0F0BD4FF48033049304A805F0BA
:1011A000C5FB00283ED1224BD3F8D42042F4803234
:1011B000C3F8D420D3F8D42002F480320192019AEB
:1011C000D3F8E02042F00402C3F8E020D3F8E02096
:1011D00002F004020292029AD3F8E02042F00802E0
:1011E000C3F8E020D3F8E03003F008030393039B37
:1011F0004FF4F8533393022734970026359603258E
:1012000036950C24379433A90A4806F0A9FE042326
:101210003393349735963695379433A9064806F0BC
:101220009FFEB6E7FFF76CF9BDE700BF0070005204
:101230000044025800080258000C025808B5134830
:10124000134B03604FF48003436000238360032249
:10125000C260036143614FF000528261C361036267
:1012600043628362C3624FF0804242638363C3631D
:10127000036443648364C36403654365836509F061
:1012800085FF00B908BDFFF73BF9FBE7340E0020EE
:101290000030014008B51348134B03604FF480033E
:1012A0004360002383600322C260036143614FF007
:1012B00000528261C361036243628362C3624FF082
:1012C000804242638363C363036443648364C3648F
:1012D00003654365836509F059FF00B908BDFFF751
:1012E0000FF9FBE7AC0D0020003C004008B51248A8
:1012F000124B03604FF4800343600023836003229A
:10130000C260036143618361C361036243628362BC
:10131000C3624FF0804242638363C36303644364E8
:101320008364C36403654365836509F02FFF00B9D7
:1013300008BDFFF7E5F8FBE7240D0020003401406D
:1013400070B5BEB00446002139913A913B913C9171
:101350003D91BC220AA817F0F1FD2368724A93421E
:1013600008D0724A93424DD0714A934200F0AA804D
:101370003EB070BD4FF480530A930AA805F0D6FA28
:1013800000283CD16B4BD3F8F02042F48052C3F8D4
:10139000F020D3F8F02002F480520192019AD3F8A1
:1013A000E02042F00102C3F8E020D3F8E02002F090
:1013B00001020292029AD3F8E02042F00202C3F83E
:1013C000E020D3F8E03003F002030393039B702383
:1013D000399302263A9600243B943C9405253D958A
:1013E00039A9554806F0BCFD202339933A963B9421
:1013F0003C943D9539A9514806F0B2FDB8E7FFF796
:101400007FF8BFE74FF480530A930AA805F08EFADD
:10141000002854D1474BD3F8E82042F40042C3F8E7
:10142000E820D3F8E82002F400420492049AD3F8AA
:10143000E02042F00102C3F8E020D3F8E02002F0FF
:1014400001020592059AD3F8E02042F00802C3F8A1
:10145000E020D3F8E02002F008020692069AD3F8C2
:10146000E02042F00202C3F8E020D3F8E03003F0BD
:1014700002030793079B4FF40043399302253A95E3
:1014800000243B943C9406263D9639A92A4806F050
:1014900067FD402339933A953B943C9405233D9353
:1014A00039A9274806F05CFD182339933A953B94F7
:1014B0003C943D9639A9214806F052FD58E7FFF7C4
:1014C0001FF8A7E74FF400530A930AA805F02EFA75
:1014D00030BB184BD3F8F02042F40052C3F8F02090
:1014E000D3F8F02002F400520892089AD3F8E020D2
:1014F00042F01002C3F8E020D3F8E03003F010030C
:101500000993099B7423399302233A9300233B9355
:101510003C9305233D9339A90A4806F021FD27E7AE
:10152000FEF7EEFFD5E700BF00300140003C004071
:1015300000340140004402580000025800040258E0
:10154000000C02580010025800B58DB02422002172
:1015500003A817F0F3FC00230093019302931148B2
:10156000114A0260436083604FF6FF72C2600361FC
:101570008361012303930593099303A90AF032FAC7
:1015800050B9002300930293694606480AF0A2FC72
:1015900028B90DB05DF804FBFEF7B2FFF1E7FEF7E6
:1015A000AFFFF6E7080F00200004004082B0036898
:1015B000114A934204D0114A93420FD002B07047AF
:1015C0000F4BD3F8F02042F00102C3F8F020D3F81B
:1015D000F03003F001030093009BEFE7084BD3F8D2
:1015E000F02042F00202C3F8F020D3F8F03003F00C
:1015F00002030193019BE1E7000001400004014068
:101600000044025800B589B0002303930493059366
:10161000069307930268144B9A4202D009B05DF812
:1016200004FB124BD3F8E82042F00202C3F8E82092
:10163000D3F8E82002F002020192019AD3F8E020E8
:1016400042F00402C3F8E020D3F8E03003F00403D2
:101650000293029BC023039302230493079303A9DD
:10166000034806F07DFCD9E700040040004402581E
:101670000008025800B589B0002303930493059332
:101680000693079303681B4A934205D01A4A934274
:1016900019D009B05DF804FB184BD3F8E02042F0F4
:1016A0000202C3F8E020D3F8E03003F00203019314
:1016B000019B0123039302220492079303A910487C
:1016C00006F04EFCE5E70D4BD3F8E02042F00202B5
:1016D000C3F8E020D3F8E03003F002030293029B4A
:1016E0000223039304930323079303A9044806F0FA
:1016F00037FCCEE7000001400004014000440258DE
:101700000004025810B59AB0002416941794189447
:1017100019941394149415940C940D940E940F949E
:101720001094119412942C22214601A817F006FC63
:101730003248334B0360EF23436084604FF47A7385
:10174000C36004614461802383610AF0EBF80028E0
:1017500042D14FF48053169316A928480AF08EFA06
:1017600000283CD125480AF00DF900283AD1002381
:1017700013931493159313A920480AF0ABFB002888
:1017800033D160230C934FF4FA730D9300230E931F
:101790000F9310931193129304220CA917480AF087
:1017A000C3F928BB00230193029303930493059389
:1017B0004FF400520692079308934FF0007209927B
:1017C0000A930B9301A90D480AF0D4FB98B90B4872
:1017D000FFF750FF1AB010BDFEF792FEB9E7FEF713
:1017E0008FFEBFE7FEF78CFEC1E7FEF789FEC8E774
:1017F000FEF786FED6E7FEF783FEE8E7540F0020EB
:101800000000014010B59AB0002416941794189463
:1018100019941394149415940C940D940E940F949D
:101820001094119412942C22214601A817F086FBE3
:101830003248334B0360EF234360846040F2E73368
:10184000C36004614461802383610AF06BF800285F
:1018500041D14FF48053169316A928480AF00EFA86
:1018600000283BD125480AF08DF8002839D1002303
:1018700013931493159313A920480AF02BFB002807
:1018800032D160230C93C8230D9300230E930F9342
:1018900010931193129308220CA918480AF044F9E6
:1018A00028BB0023019302930393049305934FF401
:1018B00000520692079308934FF0007209920A9320
:1018C0000B9301A90D480AF055FB98B90B48FFF797
:1018D000D1FE1AB010BDFEF713FEBAE7FEF710FEF8
:1018E000C0E7FEF70DFEC2E7FEF70AFEC9E7FEF706
:1018F00007FED6E7FEF704FEE8E700BFBC0E0020B7
:101900000004014000B583B001904FF6FF7301223F
:1019100001A903480AF049FF019803B05DF804FBF0
:101920003010002070B50C461646002504E014F86F
:10193000010BFFF7E7FF0135B542F8DB304670BD1C
:1019400008B51748174B03604FF4E1334360002399
:101950008360C36003610C2242618361C3610362DF
:10196000436283620AF0C8FF70B900210C480BF093
:101970003CF860B900210A480BF05CF850B90848FF
:101980000BF014F848B908BDFEF7BAFDEDE7FEF715
:10199000B7FDEFE7FEF7B4FDF1E7FEF7B1FDF2E7C3
:1019A000C0100020004C004008B51748174B0360DA
:1019B0004FF4E133436000238360C36003610C2272
:1019C00042618361C3610362436283620AF094FFF0
:1019D00070B900210C480BF008F860B900210A48E2
:1019E0000BF028F850B908480AF0E0FF48B908BDE4
:1019F000FEF786FDEDE7FEF783FDEFE7FEF780FDDE
:101A0000F1E7FEF77DFDF2E7301000200010014005
:101A100008B51748174B03604FF4E13343600023C8
:101A20008360C36003610C2242618361C36103620E
:101A3000436283620AF060FF70B900210C480AF02B
:101A4000D4FF60B900210A480AF0F4FF50B90848F1
:101A50000AF0ACFF48B908BDFEF752FDEDE7FEF70E
:101A60004FFDEFE7FEF74CFDF1E7FEF749FDF2E72A
:101A7000A00F00200048004010B5BAB00446002175
:101A800035913691379138913991BC2206A817F0DB
:101A900055FA23684E4A934207D04E4A934235D0B6
:101AA0004D4A934263D03AB010BD0223069306A874
:101AB00004F03CFF38BB494BD3F8E82042F4002245
:101AC000C3F8E820D3F8E82002F400220092009A3C
:101AD000D3F8E02042F00202C3F8E020D3F8E0306F
:101AE00003F002030193019B4FF4407335930223EB
:101AF00036930023379338930823399335A9384810
:101B000006F02EFACFE7FEF7FBFCD4E7012306939D
:101B100006A804F00BFF38BB304BD3F8F02042F09E
:101B20001002C3F8F020D3F8F02002F01002029265
:101B3000029AD3F8E02042F00202C3F8E020D3F882
:101B4000E03003F002030393039B4FF440433593CB
:101B5000022336930023379338930423399335A90E
:101B60001F4806F0FDF99EE7FEF7CAFCD4E7022302
:101B7000069306A804F0DAFE38BB184BD3F8E82029
:101B800042F48022C3F8E820D3F8E82002F480224F
:101B90000492049AD3F8E02042F00202C3F8E02055
:101BA000D3F8E03003F002030593059B4FF4406344
:101BB00035930223369300233793389307233993C1
:101BC00035A9074806F0CCF96DE7FEF799FCD4E794
:101BD000004C004000100140004800400044025802
:101BE0000004025808B50B480B4B036009234360FF
:101BF0000222C260002303618261C3610362436207
:101C00008362C36203630AF03AFF00B908BDFEF7BE
:101C100077FCFBE7501100200000084010B5B6B07B
:101C20000446002131913291339134913591BC2297
:101C300002A817F083F922681E4B9A4201D036B0F1
:101C400010BD4FF4802302934FF44013239302A856
:101C500004F06CFE50BB06F0EBFA174CD4F8E03001
:101C600043F00103C4F8E030D4F8E03003F001039E
:101C70000093009B4FF4C05331930223329300230F
:101C80003393032334930A23359331A90B4806F089
:101C900067F9D4F8D83043F00063C4F8D830D4F8EA
:101CA000D83003F000630193019BC8E7FEF728FCDE
:101CB000D1E700BF0000084000440258000002586D
:101CC000FEE7FEE7FEE7FEE7FEE7704708B50248DD
:101CD00009F0D9FC08BD00BF5815002008B54FF425
:101CE000805006F063FA08BD08B5024807F04BFBC8
:101CF00008BD00BF4419002000B583B00A4BD3F8DB
:101D0000F42042F00202C3F8F420D3F8F43003F0D8
:101D100002030193019B00220F216FF0010006F0E6
:101D2000E1FA03B05DF804FB004402580F2801D922
:101D30000120704710B58AB00446002201461E20DB
:101D400006F0D0FA1E2006F0DDFA1A4B1C601A4B82
:101D5000D3F8E82042F00402C3F8E820D3F8E830D2
:101D600003F004030093009B01A902A804F0ACFC5B
:101D7000079BBBB904F084FC0346104AA2FB032373
:101D80009B0C013B0E480F4A026040F2E732C260F2
:101D9000436000230361836009F0C4FD30B101207A
:101DA0000AB010BD04F06CFC4300E6E7044809F0FB
:101DB0001DFCF5E70C0000200044025883DE1B43A5
:101DC000581500200008004010B54FF4FC6000F0EA
:101DD000D3FC0022564B1A600CE094B240F21F3341
:101DE00022460021084602F09BFF03200DF0F5FA81
:101DF000A21D12B2B2F5F07FEFDB00230CE09CB223
:101E0000234640F2DF120021084602F089FF03203A
:101E10000DF0E3FAA31D1BB2B3F5487FEFDB4FF4DF
:101E2000FC6000F0A9FC424B1F221A6000220DE06A
:101E300094B240F21F332246002140F2DF1002F03C
:101E40006FFF03200DF0C9FAA21D12B2B2F5F07FA8
:101E5000EEDB00230CE09CB223460022114640F248
:101E6000DF1002F05DFF03200DF0B7FAA31D1BB2D7
:101E7000B3F5487FEFDB4FF6FF7000F07DFC2C4B95
:101E80004FF478421A6000230DE09CB2234640F2E2
:101E9000DF1240F21F31002002F042FF03200DF05C
:101EA0009CFAA31D1BB2B3F5487FEEDB00220CE0C9
:101EB00094B20023224640F21F31184602F030FF50
:101EC00003200DF08AFAA21D12B2B2F5F07FEFDB0B
:101ED0004FF6FF7000F050FC154B4FF61F021A60D2
:101EE00000220DE094B20023224640F21F3140F25E
:101EF000DF1002F015FF03200DF06FFAA21D12B2E1
:101F0000B2F5F07FEEDB00230DE09CB22346002209
:101F100040F21F3140F2DF1002F002FF03200DF00B
:101F20005CFAA31D1BB2B3F5487FEEDB10BD00BF0A
:101F30000400002010B54FF6FF7000F01DFC0023D8
:101F40000D4A13600EE0C0F34F009CB2C0F5C8719B
:101F5000C0F1F0002346224689B280B202F02FFF82
:101F6000A31D1BB2B3F5F07F04DA1846002BEADAA2
:101F7000581CE8E710BD00BF04000020F8B5054676
:101F80004FF6FF7000F0F8FB1F4B1F221A602FB2B4
:101F90003E460EE08CB22A462146B0B202F02AFF3D
:101FA00004EB450109B2B1F5487FF3DB06EB4506CA
:101FB00036B2B6F5F07F01DA3946F4E740F2DC508C
:101FC0000DF00BFA4FF6FF7000F0D6FB0E4B4FF6FC
:101FD0001F021A606E08354637460EE08CB2324654
:101FE0002146B8B202F006FF04EB460109B2B1F592
:101FF000487FF3DB07EB46073FB2B7F5F07F01DA26
:102000002946F4E7F8BD00BF040000202DE9F04F99
:1020100083B04FF6FF7000F0AFFB1E21002000F0F0
:10202000F7F8434D4FF478432B60424F019710244B
:1020300000942346C8221E21002003F05FF84FF6CB
:10204000E07BC5F800B00197182600962346C82209
:102050003C21002003F052F84FF4FC6AC5F800A0C0
:1020600001974FF02008CDF800802346C8225A215E
:10207000002003F043F84FF01F09C5F8009001233A
:1020800001930096042340F2D2427821002002F00E
:10209000D9FF40F2DC500DF0A0F9C5F800B001976F
:1020A00000962346C822B421002003F027F8C5F883
:1020B00000A0214B0193CDF800802346C822D221F5
:1020C000002003F01BF81D4B0193CDF80080234640
:1020D0004FF49672F021002003F010F8C5F800903C
:1020E000174B019300942346C8224FF487710020B8
:1020F00003F004F8134B019300962346C8224FF4D3
:102100009671002002F0FAFF4FF61F032B600E4B72
:10211000019300962346C8224FF4A571002002F0D7
:10212000EDFF40F6C4100DF058F903B0BDE8F08F94
:102130000400002070AF010880AF01088CAF0108D7
:10214000A0AF0108B0AF0108C0AF010808B5FFF7A4
:102150003BFE4FF47A700DF040F9FFF7EBFE4FF4C1
:102160007A700DF03AF90F20FFF708FF4FF47A70FC
:102170000DF033F9FFF74AFF08BDA82303FB00F079
:10218000800800BF03460138002BFAD1704782B0A7
:10219000ADF80600BDF806309BB2ADF80630BDF8CC
:1021A00006309BB24FF0C842A2F87E3002B07047B2
:1021B00082B0ADF80600BDF806309BB2ADF806302F
:1021C000BDF806309BB24FF0C842A2F8803002B092
:1021D000704782B04FF0C843B3F880309BB2ADF87F
:1021E0000630BDF8060080B202B070474FF0C84319
:1021F000A3F87E00A3F8801070470000034B1A89F3
:102200004FF0C843A3F87E20704700BFA4150020FC
:1022100070B505460C46404B9B8841F663129342CD
:1022200017D045F21052934257D03B4E7089FFF7BA
:10223000AEFF280AFFF7BCFFE8B2FFF7B9FFB0898D
:10224000FFF7A5FF200AFFF7B3FFE0B2FFF7B0FFEB
:1022500070BD314B9B7953BB2F4A13881D1AADB209
:10226000013DADB25089FFF792FF0020FFF7A0FFBC
:102270000020FFF79DFF280AFFF79AFFE8B2FFF75B
:1022800097FF254DA889FFF782FF200AFFF790FFEF
:10229000E0B2FFF78DFF68880138C0F30F20FFF729
:1022A00087FF68880138C0B2FFF782FFD0E71A4E77
:1022B0007089FFF76CFF280AFFF77AFFE8B2FFF793
:1022C00077FF30880138C0F30F20FFF771FF3088A7
:1022D0000138C0B2FFF76CFFD3E70F4E7089FFF7EC
:1022E00056FF280AFFF764FF7089013080B2FFF7BC
:1022F0004EFFE8B2FFF75CFFB089FFF748FF200A06
:10230000FFF756FFB089013080B2FFF740FFE0B21F
:10231000FFF74EFF9CE700BFA415002010B5744BDB
:102320009B79012B10D02BB9714B9A8841F663131E
:102330009A420FD00138062800F28480DFE800F0CE
:1023400072706E6C6A681400694A918841F6631273
:102350009142E8D0072873D8DFE800F06E706A6C0D
:1023600004726866802400E0E024614B9B8845F29B
:102370001052934268D0362049F2413147F28972B7
:10238000934218BF8B4201D144F008042146FFF765
:102390002DFF574B9B8841F6631293420AD014F0ED
:1023A000200F54D0524A11885288914202D250488C
:1023B0000280418045F21052934251D04C4C6089CA
:1023C000FFF7E5FE0020FFF7F3FE0020FFF7F0FE29
:1023D00020880138C0F30F20FFF7EAFE208801387B
:1023E000C0B2FFF7E5FEA089FFF7D1FE0020FFF79E
:1023F000DFFE0020FFF7DCFE60880138C0F30F200D
:10240000FFF7D6FE60880138C0B2FFF7D1FE10BDDD
:10241000A024AAE76024A8E72024A6E7C024A4E714
:102420004024A2E78024A0E740249EE7C0249CE744
:1024300020249AE7602498E7A02496E7E02494E714
:10244000002492E7002490E74FF4585094E7284A7C
:10245000118852889142ADD9254802804180A9E770
:10246000234C6089FFF793FE0020FFF7A1FE6089EF
:10247000013080B2FFF78BFE0020FFF799FE6089E4
:10248000023080B2FFF783FE20880138C0F30F20AE
:10249000FFF78EFE6089033080B2FFF778FE208858
:1024A0000138C0B2FFF784FEA089FFF770FE00205C
:1024B000FFF77EFEA089013080B2FFF768FE0020A2
:1024C000FFF776FEA089023080B2FFF760FE6088D9
:1024D0000138C0F30F20FFF76BFEA089033080B2F4
:1024E000FFF755FE60880138C0B2FFF761FE8EE746
:1024F000A415002008B5FFF78BFEFFF77FFE034B06
:102500001A884FF0C843A3F8802008BD04000020BB
:102510002DE9F04104460E4615463A4B9B8845F29C
:10252000105C63453BD041F66312934255D1354B65
:102530009B792BB9334B1B881B1A9BB2013B9CB276
:10254000304F7889FFF723FE4FEA14284046FFF703
:102550002FFEE4B22046FFF72BFE4046FFF728FE91
:102560002046FFF725FEB889FFF711FE340A204602
:10257000FFF71EFEF6B23046FFF71AFE2046FFF7C1
:1025800017FE3046FFF714FE1E4B19894FF0C84363
:10259000A3F87E10AAB2A3F88020BDE8F081194FFD
:1025A0007889FFF7F4FD200AFFF702FE78890130F1
:1025B00080B2FFF7ECFDE0B2FFF7FAFDB889FFF754
:1025C000E6FD300AFFF7F4FDB889013080B2FFF76D
:1025D000DEFDF0B2FFF7ECFDD6E70A4F7889FFF792
:1025E000D6FD200AFFF7E4FDE0B2FFF7E1FDB88970
:1025F000FFF7CDFD300AFFF7DBFDF0B2FFF7D8FDA6
:10260000C2E700BFA415002008B52DED028B08EE2F
:10261000100ABE20FFF7BBFD0520FFF7C9FDB8EE8D
:10262000C87B9FED0D6B27EE067BBCEEC77B17EEDC
:10263000103A98B2FFF7BCFD0120FFF7B9FDFF206B
:10264000FFF7B6FD0020FFF7B3FD0020FFF7B0FD58
:10265000BDEC028B08BD00BF666666666666044018
:1026600008B5444B9871002843D1F0221A804FF4EA
:10267000A0725A809B8845F21052934212D041F6C4
:10268000631293421FD03B4A2C2111812A21518190
:102690002B21918145F21032934222D00020FFF786
:1026A0003DFE08BD334A4FF4305111814FF428519B
:1026B00051814FF42C5191814FF4F07111804FF4FE
:1026C00048715180E6E72B4A2C2111812B21518141
:1026D0002A2191814FF4F07111804FF4487151809B
:1026E000D8E7244B4FF4A0721A804FF4F0725A804E
:1026F000D4E7204B4FF4A0721A80F0225A809B88B6
:1027000045F21052934216D041F66312934223D001
:10271000184A2C2111812A2151812B21918145F2C6
:1027200010329342BAD1134B4FF4F0721A804FF427
:10273000A0725A80B2E70F4A4FF4305111814FF422
:10274000285151814FF42C5191814FF448711180DF
:102750004FF4F0715180E2E7064A2C2111812A21C1
:1027600051812B2191814FF4487111804FF4F07108
:102770005180D4E7A415002038B505460A4B1A88C5
:102780005C8802FB04F400210846FFF741FDFFF7D7
:1027900035FD002205E0ABB24FF0C841A1F8803012
:1027A0000132A242F7D338BDA415002010B5D320C2
:1027B000FFF7EDFCFFF70DFD8A4CA080FFF709FD48
:1027C000A080FFF706FDA0800002A080FFF701FDBA
:1027D000A388184380B2A08049F24133984245D182
:1027E000804B9B8849F24132934200F0FF8047F2D0
:1027F0008972934200F00F8245F21032934200F04A
:10280000DD8245F21052934201F0518241F663128B
:10281000934202F0CA81734B9B8849F2413145F2E1
:102820001032934218BF8B4207D045F210529342A8
:1028300003D041F66312934210D16B4BDA6922F058
:102840000F02DA61DA6922F47062DA61DA6942F061
:102850000302DA61DA6942F40072DA610020FFF7FC
:10286000FFFE4FF6FF70FFF787FF10BD0420FFF754
:102870008EFCFFF7AEFCA080FFF7ABFCA080FFF75B
:10288000A8FCA0800002A080FFF7A3FCA388184347
:1028900080B2A08048F25253984200F09F80514B82
:1028A0009A8847F289739A429AD0D420FFF76FFC36
:1028B000FFF78FFC4B4CA080FFF78BFCA080FFF74D
:1028C00088FCA0800002A080FFF783FCA388184347
:1028D00080B2A08045F21033984281D0D320FFF718
:1028E00056FCFFF776FCA080FFF773FCA080FFF793
:1028F00070FCA0800002A080FFF76BFCA388184347
:1029000080B2A08047F2967398423FF469AF552198
:102910004FF47040FFF76AFCAA214FF20100FFF765
:1029200065FC52214FF20200FFF760FC08214FF2D4
:102930000300FFF75BFC01214FF20400FFF756FC98
:102940004FF44540FFF723FCFFF743FCA080000253
:10295000A0804CF20150FFF71AFCFFF73AFCA38865
:102960000343A380052005F05FFDA28845F21053C4
:102970009A423FF435AFD320FFF709FCFFF729FC5B
:10298000A080FFF726FCA080FFF723FCA0800002B8
:10299000A080FFF71EFCA38803439BB2A38049F6E7
:1029A000060293423FF41CAFA120FFF7F0FBFFF7B4
:1029B00010FCA080FFF70DFCA0800002A080FFF7B4
:1029C00008FCA38803439BB2A38045F26172934243
:1029D0007FF406AF41F66312A28001E747F28972E5
:1029E000A2805CE7A415002000410052CF20FFF731
:1029F000CEFB0020FFF7DCFBC120FFF7D9FB302026
:102A0000FFF7D6FBED20FFF7C2FB6420FFF7D0FBFA
:102A10000320FFF7CDFB1220FFF7CAFB8120FFF751
:102A2000C7FBE820FFF7B3FB8520FFF7C1FB1020B1
:102A3000FFF7BEFB7A20FFF7BBFBCB20FFF7A7FB1E
:102A40003920FFF7B5FB2C20FFF7B2FB0020FFF782
:102A5000AFFB3420FFF7ACFB0220FFF7A9FBF72008
:102A6000FFF795FB2020FFF7A3FBEA20FFF78FFB82
:102A70000020FFF79DFB0020FFF79AFBC020FFF727
:102A800086FB1B20FFF794FBC120FFF780FB012092
:102A9000FFF78EFBC520FFF77AFB3020FFF788FB9E
:102AA0003020FFF785FBC720FFF771FBB720FFF74A
:102AB0007FFB3620FFF76BFB4820FFF779FB3A20BE
:102AC000FFF765FB5520FFF773FBB120FFF75FFBB6
:102AD0000020FFF76DFB1A20FFF76AFBB620FFF717
:102AE00056FB0A20FFF764FBA220FFF761FBF220F0
:102AF000FFF74DFB0020FFF75BFB2620FFF747FBAE
:102B00000120FFF755FBE020FFF741FB0F20FFF707
:102B10004FFB2A20FFF74CFB2820FFF749FB08203A
:102B2000FFF746FB0E20FFF743FB0820FFF740FBB3
:102B30005420FFF73DFBA920FFF73AFB4320FFF7A6
:102B400037FB0A20FFF734FB0F20FFF731FB002093
:102B5000FFF72EFB0020FFF72BFB0020FFF728FBE1
:102B60000020FFF725FBE120FFF711FB0020FFF716
:102B70001FFB1520FFF71CFB1720FFF719FB072091
:102B8000FFF716FB1120FFF713FB0620FFF710FBE2
:102B90002B20FFF70DFB5620FFF70AFB3C20FFF729
:102BA00007FB0520FFF704FB1020FFF701FB0F20B8
:102BB000FFF7FEFA3F20FFF7FBFA3F20FFF7F8FA96
:102BC0000F20FFF7F5FA2B20FFF7E1FA0020FFF7BF
:102BD000EFFA0020FFF7ECFA0120FFF7E9FA3F20B7
:102BE000FFF7E6FA2A20FFF7D2FA0020FFF7E0FA13
:102BF0000020FFF7DDFA0020FFF7DAFAEF20FFF7F9
:102C0000D7FA1120FFF7C3FA782005F00DFC292030
:102C1000FFF7BDFAFFE51120FFF7B9FA782005F0BC
:102C200003FC3620FFF7B3FA0020FFF7C1FA3A2081
:102C3000FFF7ADFA0520FFF7BBFAB220FFF7A7FABE
:102C40000C20FFF7B5FA0C20FFF7B2FA0020FFF7CF
:102C5000AFFA3320FFF7ACFA3320FFF7A9FAB72019
:102C6000FFF795FA3520FFF7A3FABB20FFF78FFA9D
:102C70003220FFF79DFAC020FFF789FA0C20FFF7FA
:102C800097FAC220FFF783FA0120FFF791FAC320D9
:102C9000FFF77DFA1020FFF78BFAC420FFF777FAD1
:102CA0002020FFF785FAC620FFF771FA0F20FFF703
:102CB0007FFAD020FFF76BFAA420FFF779FAA12062
:102CC000FFF776FAE020FFF762FAD020FFF770FAFC
:102CD0000020FFF76DFA0220FFF76AFA0720FFF7DE
:102CE00067FA0A20FFF764FA2820FFF761FA32201A
:102CF000FFF75EFA4420FFF75BFA4220FFF758FA2D
:102D00000620FFF755FA0E20FFF752FA1220FFF7C0
:102D10004FFA1420FFF74CFA1720FFF749FAE12089
:102D2000FFF735FAD020FFF743FA0020FFF740FA0B
:102D30000220FFF73DFA0720FFF73AFA0A20FFF7D3
:102D400037FA2820FFF734FA3120FFF731FA542000
:102D5000FFF72EFA4720FFF72BFA0E20FFF728FA8D
:102D60001C20FFF725FA1720FFF722FA1B20FFF798
:102D70001FFA1E20FFF71CFA2A20FFF708FA00208E
:102D8000FFF716FA0020FFF713FA0020FFF710FAFA
:102D9000EF20FFF70DFA2B20FFF7F9F90020FFF7DE
:102DA00007FA0020FFF704FA0120FFF701FA3F209D
:102DB000FFF7FEF92920FFF7EAF92CE5ED20FFF7F0
:102DC000E6F90120FFF7F4F9FE20FFF7F1F9EE2014
:102DD000FFF7DDF9DE20FFF7EBF92120FFF7E8F937
:102DE000F120FFF7D4F90120FFF7E2F9DF20FFF728
:102DF000CEF91020FFF7DCF9C420FFF7C8F98F20C7
:102E0000FFF7D6F9C620FFF7C2F90020FFF7D0F987
:102E1000E220FFF7CDF9E220FFF7CAF9E220FFF741
:102E2000C7F9BF20FFF7B3F9AA20FFF7C1F9B02017
:102E3000FFF7ADF90D20FFF7BBF90020FFF7B8F958
:102E40000D20FFF7B5F90020FFF7B2F91120FFF7C9
:102E5000AFF90020FFF7ACF91920FFF7A9F900201E
:102E6000FFF7A6F92120FFF7A3F90020FFF7A0F94B
:102E70002D20FFF79DF90020FFF79AF93D20FFF77D
:102E800097F90020FFF794F95D20FFF791F90020F2
:102E9000FFF78EF95D20FFF78BF90020FFF788F927
:102EA000B120FFF774F98020FFF782F90020FFF7C7
:102EB0007FF98B20FFF77CF90020FFF779F9962046
:102EC000FFF776F90020FFF773F9B220FFF75FF9FB
:102ED0000020FFF76DF90020FFF76AF90220FFF7E5
:102EE00067F90020FFF764F90320FFF761F900207C
:102EF000FFF75EF9B320FFF74AF90020FFF758F912
:102F00000020FFF755F90020FFF752F90020FFF7E6
:102F10004FF90020FFF74CF90020FFF749F9002096
:102F2000FFF746F90020FFF743F90020FFF740F9CB
:102F30000020FFF73DF90020FFF73AF90020FFF7E6
:102F400037F90020FFF734F90020FFF731F90020AE
:102F5000FFF72EF90020FFF72BF90020FFF728F9E3
:102F60000020FFF725F90020FFF722F90020FFF7E6
:102F70001FF90020FFF71CF90020FFF719F90020C6
:102F8000FFF716F90020FFF713F9B420FFF7FFF859
:102F90008B20FFF70DF90020FFF70AF99620FFF7C5
:102FA00007F90020FFF704F9A120FFF701F900203D
:102FB000FFF7FEF8B520FFF7EAF80220FFF7F8F870
:102FC0000020FFF7F5F80320FFF7F2F80020FFF7E5
:102FD000EFF80420FFF7ECF80020FFF7E9F8B6203F
:102FE000FFF7D5F80020FFF7E3F80020FFF7E0F83F
:102FF000B720FFF7CCF80020FFF7DAF80020FFF742
:10300000D7F83F20FFF7D4F80020FFF7D1F85E2073
:10301000FFF7CEF80020FFF7CBF86420FFF7C8F8E1
:103020000020FFF7C5F88C20FFF7C2F80020FFF75B
:10303000BFF8AC20FFF7BCF80020FFF7B9F8DC20A0
:10304000FFF7B6F80020FFF7B3F87020FFF7B0F8ED
:103050000020FFF7ADF89020FFF7AAF80020FFF757
:10306000A7F8EB20FFF7A4F80020FFF7A1F8DC2079
:10307000FFF79EF80020FFF79BF8B820FFF787F8CE
:103080000020FFF795F80020FFF792F80020FFF7E7
:103090008FF80020FFF78CF80020FFF789F8002058
:1030A000FFF786F80020FFF783F80020FFF780F88D
:1030B000BA20FFF76CF82420FFF77AF80020FFF71A
:1030C00077F80020FFF774F80020FFF771F8C120AF
:1030D000FFF75DF82020FFF76BF80020FFF768F896
:1030E0005420FFF765F80020FFF762F8FF20FFF794
:1030F0005FF80020FFF75CF8C220FFF748F80A20CD
:10310000FFF756F80020FFF753F80420FFF750F8B8
:103110000020FFF74DF8C320FFF739F83C20FFF7F8
:1031200047F80020FFF744F83A20FFF741F8002065
:10313000FFF73EF83920FFF73BF80020FFF738F89B
:103140003720FFF735F80020FFF732F83C20FFF773
:103150002FF80020FFF72CF83620FFF729F8002081
:10316000FFF726F83220FFF723F80020FFF720F8BA
:103170002F20FFF71DF80020FFF71AF82C20FFF78B
:1031800017F80020FFF714F82920FFF711F80020A6
:10319000FFF70EF82620FFF70BF80020FFF708F8DE
:1031A0002420FFF705F80020FFF702F82420FEF79F
:1031B000FFFF0020FEF7FCFF2320FEF7F9FF0020B1
:1031C000FEF7F6FF3C20FEF7F3FF0020FEF7F0FFCE
:1031D0003620FEF7EDFF0020FEF7EAFF3220FEF773
:1031E000E7FF0020FEF7E4FF2F20FEF7E1FF0020BD
:1031F000FEF7DEFF2C20FEF7DBFF0020FEF7D8FFF6
:103200002920FEF7D5FF0020FEF7D2FF2620FEF78B
:10321000CFFF0020FEF7CCFF2420FEF7C9FF0020DF
:10322000FEF7C6FF2420FEF7C3FF0020FEF7C0FF15
:103230002320FEF7BDFF0020FEF7BAFFC420FEF7F3
:10324000A6FF6220FEF7B4FF0020FEF7B1FF0520C5
:10325000FEF7AEFF0020FEF7ABFF8420FEF7A8FFCD
:103260000020FEF7A5FFF020FEF7A2FF0020FEF7EA
:103270009FFF1820FEF79CFF0020FEF799FFA42077
:10328000FEF796FF0020FEF793FF1820FEF790FF51
:103290000020FEF78DFF5020FEF78AFF0020FEF78A
:1032A00087FF0C20FEF784FF0020FEF781FF172028
:1032B000FEF77EFF0020FEF77BFF9520FEF778FFEC
:1032C0000020FEF775FFF320FEF772FF0020FEF7E7
:1032D0006FFFE620FEF76CFF0020FEF769FFC520B8
:1032E000FEF755FF3220FEF763FF0020FEF760FF78
:1032F0004420FEF75DFF0020FEF75AFF6520FEF731
:1033000057FF0020FEF754FF7620FEF751FF002004
:10331000FEF74EFF8820FEF74BFF0020FEF748FF28
:10332000C620FEF734FF2020FEF742FF0020FEF704
:103330003FFF1720FEF73CFF0020FEF739FF01207A
:10334000FEF736FF0020FEF733FFC720FEF71FFF12
:103350000020FEF72DFF0020FEF72AFF0020FEF7D9
:1033600027FF0020FEF724FFC820FEF710FF0020F3
:10337000FEF71EFF0020FEF71BFF0020FEF718FFE0
:103380000020FEF715FFC920FEF701FF0020FEF721
:103390000FFF0020FEF70CFF0020FEF709FF0020C2
:1033A000FEF706FF0020FEF703FF0020FEF700FFF8
:1033B0000020FEF7FDFE0020FEF7FAFE0020FEF7DB
:1033C000F7FE0020FEF7F4FE0020FEF7F1FE0020DD
:1033D000FEF7EEFE0020FEF7EBFE0020FEF7E8FE13
:1033E0000020FEF7E5FE0020FEF7E2FEE020FEF7FB
:1033F000CEFE1620FEF7DCFE0020FEF7D9FE1C20D4
:10340000FEF7D6FE0020FEF7D3FE2120FEF7D0FE09
:103410000020FEF7CDFE3620FEF7CAFE0020FEF7A4
:10342000C7FE4620FEF7C4FE0020FEF7C1FE522074
:10343000FEF7BEFE0020FEF7BBFE6420FEF7B8FEDE
:103440000020FEF7B5FE7A20FEF7B2FE0020FEF760
:10345000AFFE8B20FEF7ACFE0020FEF7A9FE992000
:10346000FEF7A6FE0020FEF7A3FEA820FEF7A0FEB2
:103470000020FEF79DFEB920FEF79AFE0020FEF721
:1034800097FEC420FEF794FE0020FEF791FECA20AE
:10349000FEF78EFE0020FEF78BFED220FEF788FEA0
:1034A0000020FEF785FED920FEF782FE0020FEF701
:1034B0007FFEE020FEF77CFE0020FEF779FEF32081
:1034C000FEF776FE0020FEF773FEE120FEF75FFEBA
:1034D0001620FEF76DFE0020FEF76AFE1C20FEF7A8
:1034E00067FE0020FEF764FE2220FEF761FE00204A
:1034F000FEF75EFE3620FEF75BFE0020FEF758FE6C
:103500004520FEF755FE0020FEF752FE5220FEF742
:103510004FFE0020FEF74CFE6420FEF749FE00201F
:10352000FEF746FE7A20FEF743FE0020FEF740FE3F
:103530008B20FEF73DFE0020FEF73AFE9920FEF7B5
:1035400037FE0020FEF734FEA820FEF731FE0020F3
:10355000FEF72EFEB920FEF72BFE0020FEF728FE18
:10356000C420FEF725FE0020FEF722FECA20FEF74B
:103570001FFE0020FEF71CFED220FEF719FE0020E1
:10358000FEF716FED820FEF713FE0020FEF710FE11
:10359000E020FEF70DFE0020FEF70AFEF320FEF706
:1035A00007FE0020FEF704FEE220FEF7F0FD0520F6
:1035B000FEF7FEFD0020FEF7FBFD0B20FEF7F8FDF9
:1035C0000020FEF7F5FD1B20FEF7F2FD0020FEF7C0
:1035D000EFFD3420FEF7ECFD0020FEF7E9FD44206E
:1035E000FEF7E6FD0020FEF7E3FD4F20FEF7E0FDCD
:1035F0000020FEF7DDFD6120FEF7DAFD0020FEF77A
:10360000D7FD7920FEF7D4FD0020FEF7D1FD8820FC
:10361000FEF7CEFD0020FEF7CBFD9720FEF7C8FD9C
:103620000020FEF7C5FDA620FEF7C2FD0020FEF734
:10363000BFFDB720FEF7BCFD0020FEF7B9FDC2209C
:10364000FEF7B6FD0020FEF7B3FDC720FEF7B0FD84
:103650000020FEF7ADFDD120FEF7AAFD0020FEF709
:10366000A7FDD620FEF7A4FD0020FEF7A1FDDD207A
:10367000FEF79EFD0020FEF79BFDF320FEF798FD70
:103680000020FEF795FDE320FEF781FD0520FEF703
:103690008FFD0020FEF78CFD0A20FEF789FD00203B
:1036A000FEF786FD1C20FEF783FD0020FEF780FD5F
:1036B0003320FEF77DFD0020FEF77AFD4420FEF763
:1036C00077FD0020FEF774FD5020FEF771FD00200D
:1036D000FEF76EFD6220FEF76BFD0020FEF768FD31
:1036E0007820FEF765FD0020FEF762FD8820FEF7DA
:1036F0005FFD0020FEF75CFD9720FEF759FD0020DE
:10370000FEF756FDA620FEF753FD0020FEF750FD04
:10371000B720FEF74DFD0020FEF74AFDC220FEF760
:1037200047FD0020FEF744FDC720FEF741FD0020C5
:10373000FEF73EFDD120FEF73BFD0020FEF738FDF1
:10374000D520FEF735FD0020FEF732FDDD20FEF727
:103750002FFD0020FEF72CFDF320FEF729FD0020B1
:10376000FEF726FDE420FEF712FD0120FEF720FD06
:103770000020FEF71DFD0120FEF71AFD0020FEF7D8
:1037800017FD0220FEF714FD0020FEF711FD2A2090
:10379000FEF70EFD0020FEF70BFD3C20FEF708FDB6
:1037A0000020FEF705FD4B20FEF702FD0020FEF78E
:1037B000FFFC5D20FEF7FCFC0020FEF7F9FC742006
:1037C000FEF7F6FC0020FEF7F3FC8420FEF7F0FC89
:1037D0000020FEF7EDFC9320FEF7EAFC0020FEF748
:1037E000E7FCA220FEF7E4FC0020FEF7E1FCB3209A
:1037F000FEF7DEFC0020FEF7DBFCBE20FEF7D8FC67
:103800000020FEF7D5FCC420FEF7D2FC0020FEF716
:10381000CFFCCD20FEF7CCFC0020FEF7C9FCD32066
:10382000FEF7C6FC0020FEF7C3FCDD20FEF7C0FC5F
:103830000020FEF7BDFCF320FEF7BAFC0020FEF7E7
:10384000B7FCE520FEF7A3FC0020FEF7B1FC00204A
:10385000FEF7AEFC0020FEF7ABFC0020FEF7A8FC54
:103860000220FEF7A5FC0020FEF7A2FC2920FEF7AF
:103870009FFC0020FEF79CFC3C20FEF799FC0020FA
:10388000FEF796FC4B20FEF793FC0020FEF790FC21
:103890005D20FEF78DFC0020FEF78AFC7420FEF709
:1038A00087FC0020FEF784FC8420FEF781FC0020CA
:1038B000FEF77EFC9320FEF77BFC0020FEF778FCF1
:1038C000A220FEF775FC0020FEF772FCB320FEF785
:1038D0006FFC0020FEF76CFCBE20FEF769FC0020A8
:1038E000FEF766FCC420FEF763FC0020FEF760FCD8
:1038F000CD20FEF75DFC0020FEF75AFCD320FEF73A
:1039000057FC0020FEF754FCDC20FEF751FC0020A1
:10391000FEF74EFCF320FEF74BFC0020FEF748FCC0
:10392000E620FEF734FC1120FEF742FC0020FEF7F3
:103930003FFC3420FEF73CFC0020FEF739FC56200B
:10394000FEF736FC0020FEF733FC7620FEF730FC55
:103950000020FEF72DFC7720FEF72AFC0020FEF762
:1039600027FC6620FEF724FC0020FEF721FC8820BF
:10397000FEF71EFC0020FEF71BFC9920FEF718FC4A
:103980000020FEF715FCBB20FEF712FC0020FEF71E
:103990000FFC9920FEF70CFC0020FEF709FC6620C6
:1039A000FEF706FC0020FEF703FC5520FEF700FCA6
:1039B0000020FEF7FDFB5520FEF7FAFB0020FEF786
:1039C000F7FB4520FEF7F4FB0020FEF7F1FB432058
:1039D000FEF7EEFB0020FEF7EBFB4420FEF7E8FBD2
:1039E0000020FEF7E5FBE720FEF7D1FB3220FEF7D3
:1039F000DFFB0020FEF7DCFB5520FEF7D9FB0020A3
:103A0000FEF7D6FB7620FEF7D3FB0020FEF7D0FBB7
:103A10006620FEF7CDFB0020FEF7CAFB6720FEF70D
:103A2000C7FB0020FEF7C4FB6720FEF7C1FB0020A8
:103A3000FEF7BEFB8720FEF7BBFB0020FEF7B8FBBE
:103A40009920FEF7B5FB0020FEF7B2FBBB20FEF786
:103A5000AFFB0020FEF7ACFB9920FEF7A9FB00208E
:103A6000FEF7A6FB7720FEF7A3FB0020FEF7A0FBE6
:103A70004420FEF79DFB0020FEF79AFB5620FEF740
:103A800097FB0020FEF794FB2320FEF791FB00201C
:103A9000FEF78EFB3320FEF78BFB0020FEF788FB42
:103AA0004520FEF785FB0020FEF782FBE820FEF7AD
:103AB0006EFB0020FEF77CFB0020FEF779FB9920CF
:103AC000FEF776FB0020FEF773FB8720FEF770FB06
:103AD0000020FEF76DFB8820FEF76AFB0020FEF752
:103AE00067FB7720FEF764FB0020FEF761FB662092
:103AF000FEF75EFB0020FEF75BFB8820FEF758FB1D
:103B00000020FEF755FBAA20FEF752FB0020FEF72F
:103B10004FFBBB20FEF74CFB0020FEF749FB992032
:103B2000FEF746FB0020FEF743FB6620FEF740FB56
:103B30000020FEF73DFB5520FEF73AFB0020FEF784
:103B400037FB5520FEF734FB0020FEF731FB442005
:103B5000FEF72EFB0020FEF72BFB4420FEF728FB90
:103B60000020FEF725FB5520FEF722FB0020FEF784
:103B70001FFBE920FEF70BFBAA20FEF719FB002034
:103B8000FEF716FB0020FEF713FB0020FEF710FBEC
:103B90000020FEF7FCFAAA20FEF70AFBCF20FEF772
:103BA000F6FA0020FEF704FB0020FEF701FB0020E0
:103BB000FEF7FEFA0020FEF7FBFA0020FEF7F8FA07
:103BC0000020FEF7F5FA0020FEF7F2FA0020FEF7DB
:103BD000EFFA0020FEF7ECFA0020FEF7E9FA0020E9
:103BE000FEF7E6FA0020FEF7E3FA0020FEF7E0FA1F
:103BF0000020FEF7DDFA0020FEF7DAFA0020FEF7DB
:103C0000D7FA0020FEF7D4FAF020FEF7C0FA002021
:103C1000FEF7CEFA5020FEF7CBFA0020FEF7C8FAE6
:103C20000020FEF7C5FA0020FEF7C2FAF320FEF7E7
:103C3000AEFA0020FEF7BCFAF920FEF7A8FA06203B
:103C4000FEF7B6FA1020FEF7B3FA2920FEF7B0FA15
:103C50000020FEF7ADFA3A20FEF799FA5520FEF75C
:103C6000A7FA1120FEF793FA642004F0DDFB292067
:103C7000FEF78DFA3520FEF78AFA0020FEF798FA53
:103C80005120FEF784FAFF20FEF792FA5320FEF748
:103C90007EFA2C20FEF78CFA5520FEF778FA822067
:103CA000FEF786FA2C20FEF772FAFEF7B4BD552116
:103CB0004FF47040FEF79AFAAA214FF20100FEF786
:103CC00095FA52214FF20200FEF790FA08214FF2C6
:103CD0000300FEF78BFA01214FF20400FEF786FA8B
:103CE0000D214FF43040FEF781FA0D214BF2010017
:103CF000FEF77CFA0D214BF20200FEF777FA342131
:103D00004FF43640FEF772FA34214BF20160FEF7B1
:103D10006DFA34214BF20260FEF768FA0D214FF480
:103D20003140FEF763FA0D214BF20110FEF75EFA07
:103D30000D214BF20210FEF759FA34214FF43740AF
:103D4000FEF754FA34214BF20170FEF74FFA34219A
:103D50004BF20270FEF74AFA00214FF43240FEF7B0
:103D600045FA00214BF20120FEF740FA00214BF208
:103D70000220FEF73BFA24214FF43840FEF736FAD2
:103D800024214BF60100FEF731FA24214BF6020004
:103D9000FEF72CFA01214FF43F40FEF727FA0F21DE
:103DA0004FF43340FEF722FA0F214BF20130FEF7B9
:103DB0001DFA0F214BF20230FEF718FA34214FF4AE
:103DC0003940FEF713FA34214BF60110FEF70EFAD4
:103DD00034214BF60210FEF709FA08214FF4354062
:103DE000FEF704FA08214BF20150FEF7FFF9082113
:103DF0004BF20250FEF7FAF903214FF44240FEF76E
:103E0000F5F924214FF43A40FEF7F0F924214BF65E
:103E10000120FEF7EBF924214BF60220FEF7E6F92C
:103E200000214FF43C40FEF7E1F978214BF60140C8
:103E3000FEF7DCF900214BF60240FEF7D7F900212E
:103E40004FF43D40FEF7D2F978214BF60150FEF7D2
:103E5000CDF900214BF60250FEF7C8F900214FF4CE
:103E60003E40FEF7C3F964214BF60160FEF7BEF950
:103E700000214FF45140FEF7B9F933214DF2011002
:103E8000FEF7B4F900214DF20210FEF7AFF934212C
:103E90004DF20310FEF7AAF900214DF20410FEF7CF
:103EA000A5F93A214DF20510FEF7A0F900214DF2D7
:103EB0000610FEF79BF94A214DF20710FEF796F91E
:103EC00000214DF20810FEF791F95C214DF2091026
:103ED000FEF78CF900214DF20A10FEF787F98121D7
:103EE0004DF20B10FEF782F900214DF20C10FEF797
:103EF0007DF9A6214DF20D10FEF778F900214DF263
:103F00000E10FEF773F9E5214DF20F10FEF76EF972
:103F100001214DF21010FEF769F913214DF2111035
:103F2000FEF764F901214DF21210FEF75FF95421FA
:103F30004DF21310FEF75AF901214DF21410FEF75D
:103F400055F982214DF21510FEF750F901214DF27D
:103F50001610FEF74BF9CA214DF21710FEF746F97D
:103F600002214DF21810FEF741F900214DF219100F
:103F7000FEF73CF902214DF21A10FEF737F9012144
:103F80004DF21B10FEF732F902214DF21C10FEF724
:103F90002DF934214DF21D10FEF728F902214DF2C2
:103FA0001E10FEF723F967214DF21F10FEF71EF9D0
:103FB00002214DF22010FEF719F984214DF2211053
:103FC000FEF714F902214DF22210FEF70FF9A42199
:103FD0004DF22310FEF70AF902214DF22410FEF7EC
:103FE00005F9B7214DF22510FEF700F902214DF237
:103FF0002610FEF7FBF8CF214DF22710FEF7F6F85A
:1040000002214DF22810FEF7F1F8DE214DF22910C1
:10401000FEF7ECF802214DF22A10FEF7E7F8F22144
:104020004DF22B10FEF7E2F802214DF22C10FEF7B4
:10403000DDF8FE214DF22D10FEF7D8F803214DF2E8
:104040002E10FEF7D3F810214DF22F10FEF7CEF808
:1040500003214DF23010FEF7C9F833214DF2311033
:10406000FEF7C4F803214DF23210FEF7BFF86D21C0
:104070004DF23310FEF7BAF800214FF45240FEF72C
:10408000B5F833214DF20120FEF7B0F800214DF2D2
:104090000220FEF7ABF834214DF20320FEF7A6F81C
:1040A00000214DF20420FEF7A1F83A214DF205203F
:1040B000FEF79CF800214DF20620FEF797F84A2102
:1040C0004DF20720FEF792F800214DF20820FEF78E
:1040D0008DF85C214DF20920FEF788F800214DF2A1
:1040E0000A20FEF783F881214DF20B20FEF77EF8BF
:1040F00000214DF20C20FEF779F8A6214DF20D209B
:10410000FEF774F800214DF20E20FEF76FF8E5215E
:104110004DF20F20FEF76AF801214DF21020FEF754
:1041200065F813214DF21120FEF760F801214DF2E0
:104130001220FEF75BF854214DF21320FEF756F8DB
:1041400001214DF21420FEF751F882214DF2152085
:10415000FEF74CF801214DF21620FEF747F8CA2170
:104160004DF21720FEF742F802214DF21820FEF71B
:104170003DF800214DF21920FEF738F802214DF2EA
:104180001A20FEF733F801214DF21B20FEF72EF81E
:1041900002214DF21C20FEF729F834214DF21D209A
:1041A000FEF724F802214DF21E20FEF71FF86721CA
:1041B0004DF21F20FEF71AF802214DF22020FEF7E3
:1041C00015F884214DF22120FEF710F802214DF25E
:1041D0002220FEF70BF8A4214DF22320FEF706F86B
:1041E00002214DF22420FEF701F8B7214DF22520DF
:1041F000FDF7FCFF02214DF22620FDF7F7FFCF214E
:104200004DF22720FDF7F2FF02214DF22820FDF7A5
:10421000EDFFDE214DF22920FDF7E8FF02214DF2EE
:104220002A20FDF7E3FFF2214DF22B20FDF7DEFF00
:1042300002214DF22C20FDF7D9FFFE214DF22D2059
:10424000FDF7D4FF03214DF22E20FDF7CFFF102103
:104250004DF22F20FDF7CAFF03214DF23020FDF76C
:10426000C5FF33214DF23120FDF7C0FF03214DF290
:104270003220FDF7BBFF6D214DF23320FDF7B6FF75
:1042800000214FF45340FDF7B1FF33214DF20130CF
:10429000FDF7ACFF00214DF20230FDF7A7FF3421FE
:1042A0004DF20330FDF7A2FF00214DF20430FDF77F
:1042B0009DFF3A214DF20530FDF798FF00214DF2A8
:1042C0000630FDF793FF4A214DF20730FDF78EFFD0
:1042D00000214DF20830FDF789FF5C214DF20930D5
:1042E000FDF784FF00214DF20A30FDF77FFF8121A9
:1042F0004DF20B30FDF77AFF00214DF20C30FDF747
:1043000075FFA6214DF20D30FDF770FF00214DF233
:104310000E30FDF76BFFE5214DF20F30FDF766FF24
:1043200001214DF21030FDF761FF13214DF21130E4
:10433000FDF75CFF01214DF21230FDF757FF5421CC
:104340004DF21330FDF752FF01214DF21430FDF70D
:104350004DFF82214DF21530FDF748FF01214DF24E
:104360001630FDF743FFCA214DF21730FDF73EFF2F
:1043700002214DF21830FDF739FF00214DF21930BE
:10438000FDF734FF02214DF21A30FDF72FFF012116
:104390004DF21B30FDF72AFF02214DF21C30FDF7D4
:1043A00025FF34214DF21D30FDF720FF02214DF293
:1043B0001E30FDF71BFF67214DF21F30FDF716FF82
:1043C00002214DF22030FDF711FF84214DF2213002
:1043D000FDF70CFF02214DF22230FDF707FFA4216B
:1043E0004DF22330FDF702FF02214DF22430FDF79C
:1043F000FDFEB7214DF22530FDF7F8FE02214DF20A
:104400002630FDF7F3FECF214DF22730FDF7EEFE0B
:1044100002214DF22830FDF7E9FEDE214DF2293070
:10442000FDF7E4FE02214DF22A30FDF7DFFEF22116
:104430004DF22B30FDF7DAFE02214DF22C30FDF764
:10444000D5FEFE214DF22D30FDF7D0FE03214DF2B9
:104450002E30FDF7CBFE10214DF22F30FDF7C6FEBA
:1044600003214DF23030FDF7C1FE33214DF23130E2
:10447000FDF7BCFE03214DF23230FDF7B7FE6D2192
:104480004DF23330FDF7B2FE00214FF45440FDF7FA
:10449000ADFE33214DF20140FDF7A8FE00214DF2A3
:1044A0000240FDF7A3FE34214DF20340FDF79EFECE
:1044B00000214DF20440FDF799FE3A214DF20540EE
:1044C000FDF794FE00214DF20640FDF78FFE4A21D4
:1044D0004DF20740FDF78AFE00214DF20840FDF73E
:1044E00085FE5C214DF20940FDF780FE00214DF272
:1044F0000A40FDF77BFE81214DF20B40FDF776FE71
:1045000000214DF20C40FDF771FEA6214DF20D4049
:10451000FDF76CFE00214DF20E40FDF767FEE52130
:104520004DF20F40FDF762FE01214DF21040FDF704
:104530005DFE13214DF21140FDF758FE01214DF2B1
:104540001240FDF753FE54214DF21340FDF74EFE8D
:1045500001214DF21440FDF749FE82214DF2154034
:10456000FDF744FE01214DF21640FDF73FFECA2142
:104570004DF21740FDF73AFE02214DF21840FDF7CB
:1045800035FE00214DF21940FDF730FE02214DF2BB
:104590001A40FDF72BFE01214DF21B40FDF726FED0
:1045A00002214DF21C40FDF721FE34214DF21D4049
:1045B000FDF71CFE02214DF21E40FDF717FE67219C
:1045C0004DF21F40FDF712FE02214DF22040FDF793
:1045D0000DFE84214DF22140FDF708FE02214DF22F
:1045E0002240FDF703FEA4214DF22340FDF7FEFD1E
:1045F00002214DF22440FDF7F9FDB7214DF225408F
:10460000FDF7F4FD02214DF22640FDF7EFFDCF212D
:104610004DF22740FDF7EAFD02214DF22840FDF75B
:10462000E5FDDE214DF22940FDF7E0FD02214DF2CE
:104630002A40FDF7DBFDF2214DF22B40FDF7D6FDC0
:1046400002214DF22C40FDF7D1FDFE214DF22D400F
:10465000FDF7CCFD03214DF22E40FDF7C7FD1021E3
:104660004DF22F40FDF7C2FD03214DF23040FDF722
:10467000BDFD33214DF23140FDF7B8FD03214DF270
:104680003240FDF7B3FD6D214DF23340FDF7AEFD35
:1046900000214FF45540FDF7A9FD33214DF20150A3
:1046A000FDF7A4FD00214DF20250FDF79FFD3421DE
:1046B0004DF20350FDF79AFD00214DF20450FDF735
:1046C00095FD3A214DF20550FDF790FD00214DF288
:1046D0000650FDF78BFD4A214DF20750FDF786FD90
:1046E00000214DF20850FDF781FD5C214DF209508B
:1046F000FDF77CFD00214DF20A50FDF777FD812189
:104700004DF20B50FDF772FD00214DF20C50FDF7FC
:104710006DFDA6214DF20D50FDF768FD00214DF213
:104720000E50FDF763FDE5214DF20F50FDF75EFDE4
:1047300001214DF21050FDF759FD13214DF211509A
:10474000FDF754FD01214DF21250FDF74FFD5421AC
:104750004DF21350FDF74AFD01214DF21450FDF7C3
:1047600045FD82214DF21550FDF740FD01214DF22E
:104770001650FDF73BFDCA214DF21750FDF736FDEF
:1047800002214DF21850FDF731FD00214DF2195074
:10479000FDF72CFD02214DF21A50FDF727FD0121F6
:1047A0004DF21B50FDF722FD02214DF21C50FDF78A
:1047B0001DFD34214DF21D50FDF718FD02214DF273
:1047C0001E50FDF713FD67214DF21F50FDF70EFD42
:1047D00002214DF22050FDF709FD84214DF22150B8
:1047E000FDF704FD02214DF22250FDF7FFFCA4214C
:1047F0004DF22350FDF7FAFC02214DF22450FDF753
:10480000F5FCB7214DF22550FDF7F0FC02214DF2E9
:104810002650FDF7EBFCCF214DF22750FDF7E6FCCB
:1048200002214DF22850FDF7E1FCDE214DF2295026
:10483000FDF7DCFC02214DF22A50FDF7D7FCF221F6
:104840004DF22B50FDF7D2FC02214DF22C50FDF71A
:10485000CDFCFE214DF22D50FDF7C8FC03214DF299
:104860002E50FDF7C3FC10214DF22F50FDF7BEFC7A
:1048700003214DF23050FDF7B9FC33214DF2315098
:10488000FDF7B4FC03214DF23250FDF7AFFC6D2172
:104890004DF23350FDF7AAFC00214FF45640FDF7CE
:1048A000A5FC33214DF20160FDF7A0FC00214DF283
:1048B0000260FDF79BFC34214DF20360FDF796FC8E
:1048C00000214DF20460FDF791FC3A214DF20560A4
:1048D000FDF78CFC00214DF20660FDF787FC4A21B4
:1048E0004DF20760FDF782FC00214DF20860FDF7F4
:1048F0007DFC5C214DF20960FDF778FC00214DF252
:104900000A60FDF773FC81214DF20B60FDF76EFC30
:1049100000214DF20C60FDF769FCA6214DF20D60FF
:10492000FDF764FC00214DF20E60FDF75FFCE52110
:104930004DF20F60FDF75AFC01214DF21060FDF7BA
:1049400055FC13214DF21160FDF750FC01214DF291
:104950001260FDF74BFC54214DF21360FDF746FC4D
:1049600001214DF21460FDF741FC82214DF21560EA
:10497000FDF73CFC01214DF21660FDF737FCCA2122
:104980004DF21760FDF732FC02214DF21860FDF781
:104990002DFC00214DF21960FDF728FC02214DF29B
:1049A0001A60FDF723FC01214DF21B60FDF71EFC90
:1049B00002214DF21C60FDF719FC34214DF21D60FF
:1049C000FDF714FC02214DF21E60FDF70FFC67217C
:1049D0004DF21F60FDF70AFC02214DF22060FDF749
:1049E00005FC84214DF22160FDF700FC02214DF20F
:1049F0002260FDF7FBFBA4214DF22360FDF7F6FBDF
:104A000002214DF22460FDF7F1FBB7214DF2256044
:104A1000FDF7ECFB02214DF22660FDF7E7FBCF210D
:104A20004DF22760FDF7E2FB02214DF22860FDF711
:104A3000DDFBDE214DF22960FDF7D8FB02214DF2AE
:104A40002A60FDF7D3FBF2214DF22B60FDF7CEFB80
:104A500002214DF22C60FDF7C9FBFE214DF22D60C5
:104A6000FDF7C4FB03214DF22E60FDF7BFFB1021C3
:104A70004DF22F60FDF7BAFB03214DF23060FDF7D8
:104A8000B5FB33214DF23160FDF7B0FB03214DF250
:104A90003260FDF7ABFB6D214DF23360FDF7A6FBF5
:104AA00055214FF47040FDF7A1FBAA214FF2010000
:104AB000FDF79CFB52214FF20200FDF797FB082106
:104AC0004FF20300FDF792FB00214FF20400FDF7C7
:104AD0008DFBCC214FF43140FDF788FB00214BF2D8
:104AE0000110FDF783FB05214FF43640FDF77EFBF7
:104AF00070214FF43740FDF779FB70214BF20170C4
:104B0000FDF774FB01214FF43840FDF76FFB0321E3
:104B10004BF60100FDF76AFB03214BF60200FDF79F
:104B200065FB03214BF60300FDF760FB02214FF408
:104B30003C40FDF75BFB00214BF60140FDF756FBC7
:104B400000214BF60240FDF751FBD0214FF44940C4
:104B5000FDF74CFB02214CF60110FDF747FB5021FD
:104B60004CF60210FDF742FB50214CF60310FDF706
:104B70003DFB50214CF60410FDF738FB00214FF4AB
:104B80005450FDF733FB55214FF46850FDF72EFBD1
:104B90004FF48850FDF7FBFA7820FDF7EEFA4FF45A
:104BA0002450FDF7F4FAFDF736BEE220FDF7EFFAE8
:104BB0001D20FDF7FDFA0220FDF7FAFA0420FDF7AB
:104BC000F7FA6420FDF7D9FAE020FDF7E0FA0120BA
:104BD000FDF7EEFA0A2003F027FCE020FDF7D7FAF4
:104BE0000320FDF7E5FA0C2003F01EFC0120FDF781
:104BF000CEFA0A2003F018FCE620FDF7C8FA2F20B1
:104C0000FDF7D6FAFF20FDF7D3FAFF20FDF7D0FA23
:104C1000B020FDF7BCFA2020FDF7CAFA0020FDF70E
:104C2000C7FA0320FDF7C4FA40F21F30FDF7C0FABF
:104C30000120FDF7BDFA40F2DF10FDF7B9FA0020C0
:104C4000FDF7B6FAB420FDF7A2FA0420FDF7B0FA9A
:104C500040F21F40FDF7ACFA0020FDF7A9FA2E2024
:104C6000FDF7A6FA0020FDF7A3FA0020FDF7A0FA51
:104C70000020FDF79DFA0020FDF79AFAB620FDF717
:104C800086FA0220FDF794FA4FF40370FDF790FACC
:104C90000020FDF78DFA1720FDF78AFA1520FDF7A1
:104CA00087FA0020FDF784FA0020FDF781FAF02052
:104CB000FDF76DFA0320FDF77BFA2920FDF767FA6F
:104CC000D020FDF764FA0020FDF772FABE20FDF750
:104CD0005EFA0520FDF76CFAFE20FDF769FA012067
:104CE000FDF766FA0020FDF763FA0020FDF760FA91
:104CF0000020FDF75DFAB820FDF749FA0320FDF723
:104D000057FA0120FDF754FABA20FDF740FA0120C6
:104D1000FDF74EFA6420FDF777FCFDF77CBD00BF80
:104D20002DE9F04F83B08046A2EB000A8946A3EB41
:104D3000010BBAF1000F0DDD01220092BBF1000F53
:104D400014DD01230193DA451CDD564600252F466C
:104D50002C461BE0BAF1000F05D0A0EB020A4FF081
:104D6000FF320092EAE7CDF800A0E7E7BBF1000FC1
:104D700005D0A1EB030B4FF0FF330193E3E7CDF830
:104D800004B0E0E75E46E1E70134A4B2731C9C4244
:104D900012DC1FFA89F11FFA88F0FDF7ABFB5744CC
:104DA0005D44BE4202DABF1B009B9844AE42EBDA80
:104DB000AD1B019B9944E7E703B0BDE8F08FF8B560
:104DC00007460E4615461C460B46FFF7A9FF23462D
:104DD0003A4631463846FFF7A3FF23462A46214686
:104DE0003846FFF79DFF23462A4631462846FFF7FF
:104DF00097FFF8BD2DE9F04F85B080460F46009231
:104E00005300C3F103030193002608E0009AB31A8C
:104E10009B000A33019919440191531E0093009B92
:104E20009E4247DCB5B205EB080B1FFA8BFBBDF8C1
:104E300000403B1B9BB2029319465846FDF75AFBB4
:104E400004EB080A1FFA8AFA7B1B9AB203921146F6
:104E50005046FDF74FFB05EB07091FFA89F9494654
:104E60005046FDF747FB04EB070A1FFA8AFA514642
:104E70005846FDF73FFBA8EB0505ADB25146284665
:104E8000FDF738FBA8EB0404A4B249462046FDF721
:104E900031FB02992846FDF72DFB03992046FDF7CB
:104EA00029FB0136019A002AB0DAB30006331A440E
:104EB0000192B4E705B0BDE8F08F00002DE9F04F96
:104EC00083B0814688461F469DF830A013F0070343
:104ED00018BF012303EBD7034FEA570B1BFB03FB60
:104EE0005FFA8BF30193203AD1B244464FF0000BA6
:104EF00056E001EB4100464B03EB800313F80B50E7
:104F00000026CDF800B08B4627E0424B03EB01139F
:104F100013F80B50F4E701EBC1003F4B03EB8003A8
:104F200013F80B50ECE73D4B03EBC11313F80B5098
:104F3000E6E73B4B1A6821464846FDF7E9FA6D0063
:104F4000EDB20134A4B2374B5B88A3425CD9A4EB29
:104F50000803BB4210D00136F6B2072E19D815F05F
:104F6000800FE6D1BAF1000FE9D12F4B1A68214624
:104F70004846FDF7CDFAE2E75946DDF800B009F101
:104F800001091FFA89F9274B1B884B453CD9444638
:104F900002E05946DDF800B00BF101025FFA82FB36
:104FA000019B9B4530D2A7F10C03142B2CD801A0F8
:104FB00050F823F0F34E000809500008095000088B
:104FC000095000080B4F000809500008095000085C
:104FD000095000080950000809500008095000084D
:104FE00009500008174F0008095000080950000830
:104FF000095000080950000809500008095000082D
:1050000009500008274F000803B0BDE8F08F00BF2B
:10501000C8170208D81102087C040208FCD4010851
:1050200004000020A41500200000002002460120FA
:1050300002E002FB00F019464B1EDBB20029F8D15A
:10504000704700002DE9F04F83B0824689469046B4
:105050001D469DF830609DF834B000273C462BE09B
:105060001BF0800F0CD1700800FB04A00BF00103B3
:10507000009333462022494680B2FFF71FFF19E014
:10508000700800FB04A00BF00103009333463022AC
:10509000494680B2FFF712FF0CE07008303200FB87
:1050A00004A00BF0010300933346D2B2494680B20C
:1050B000FFF704FF0134E4B2AC421AD2291BC9B293
:1050C0000139C9B20A20FFF7B1FFB8FBF0F00A4A74
:1050D000A2FB0032D20802EB8202A0EB4202D2B263
:1050E000002FDAD16B1E9C42D7DA002AB8D00127F4
:1050F000D3E703B0BDE8F08FCDCCCCCC2DE9F047A1
:1051000082B082460D469DF828700B9E02441FFA1D
:1051100082F90B441FFA83F804460CE0454517D288
:10512000002300933B4629462046FFF7C7FE04EBC9
:105130005704A4B201363278A2F12003DBB25E2B11
:1051400006D84C45EAD35FFA8AF43D44ADB2E5E7B0
:1051500002B0BDE8F08710B430300B0A9B0003F0BA
:105160000C03C45801F01F014FF01F0C0CFA01FC96
:1051700024EA0C0CC2F384628A404CEA0202C25058
:105180005DF8044B704710B414304B0E9B0003F0D5
:105190000403C458C1F304514FF0070C0CFA01FC8E
:1051A00024EA0C0C8A404CEA0202C2505DF8044B1F
:1051B0007047000070B582B00023019390F8503022
:1051C000012B00F0248204460D46012380F8503064
:1051D0000268936813F0040F09D0436D43F0200375
:1051E00043650120002384F8503002B070BD0B6885
:1051F000C3F3130100293CD1C3F384630121994017
:10520000D3690B43D3612A6869682068FFF7A3FF5D
:105210002068836813F0040300D00123826812F031
:10522000080200D0012252EA03062ED022689368B9
:1052300013F0010F40F0E7812B68E868D2F8C01046
:10524000C3F3130621EA060100F01806AE48F04049
:105250000340C3F313030B43C2F8C030EA68AB4BFF
:105260009A4200F0A1802B68002BC0F253810020ED
:10527000B8E793FAA3F333B1B3FA83F303F01F0350
:1052800001219940BCE72023F8E7AA682968FFF7C5
:105290007AFF9F4B1B6803F07043B3F1805F0BD024
:1052A0002268D36813F0100F3BD16B69D268C2F348
:1052B00082025200934006E06B692268D268C2F312
:1052C0008202520093402969042938D02268286854
:1052D00002F1600C5CF8212002F0004200F0F8407E
:1052E000034313434CF82130236828696A7E012A5E
:1052F0001FD03146603353F8202022F000420A4389
:1053000043F8202021682A692B7E012B14D00B69D9
:1053100023F4F04302F01F0206FA02F213430B617A
:1053200084E76B69D268920802F00402520093404D
:10533000C9E74FF00041DDE74FF40066E7E7226878
:10534000136E03F0F8432968B3EB816F1DD0226818
:10535000536E03F0F8432968B3EB816F1AD02268CB
:10536000936E03F0F8432968B3EB816F17D022687E
:10537000D36E03F0F8432968B3EB816F7FF456AF27
:10538000D36E23F00043D36650E7136E23F000433F
:105390001366DCE7536E23F000435366DFE7936E3A
:1053A00023F000439366E2E720682B68C3F31306FB
:1053B0003EBB9A0E013202F01F02092A8CBF002266
:1053C0000122002A55D05EBB990E0131890601F0F9
:1053D000F8418EBB4FEA936C0CF1010C0CF01F0CE2
:1053E000012202FA0CF21143AEBB9B0E013303F013
:1053F0001F0303EB43031B051943AA68FFF7C3FE12
:1054000031E793FAA3F24AB1B2FA82F2013202F022
:105410001F02092A8CBF00220122D2E72022F5E7D1
:1054200093FAA3F131B1B1FA81F10131890601F0AA
:10543000F841CEE72021F8E793FAA3F24AB1B2FA95
:1054400082F2013202F01F024FF0010C0CFA02F25C
:10545000C9E72022F5E793FAA3F343B1B3FA83F344
:10546000013303F01F0303EB43031B05C4E72023B1
:10547000F6E7E6B9990E0131890601F0F84116BB4D
:105480004FEA936C0CF1010C0CF01F0C012202FA94
:105490000CF2114336BB9B0E013303F01F0303EBE9
:1054A00043031E3B1B0543F000731943A5E793FA22
:1054B000A3F131B1B1FA81F10131890601F0F8416E
:1054C000DDE72021F8E793FAA3F24AB1B2FA82F2BB
:1054D000013202F01F024FF0010C0CFA02F2D8E781
:1054E0002022F5E793FAA3F35BB1B3FA83F3013318
:1054F00003F01F0303EB43031E3B1B0543F0007344
:10550000D3E72023F3E700BFFFFF0F000000FF47B2
:105510000010005C22683F493F48824218BF8A421F
:105520000CBF0121002118D13C4EB56805F0E07C8C
:10553000A9B13849886810F0010000D0012036492F
:10554000896811F0010100D0012101430CD0636D85
:1055500043F020036365012044E6314EE5E731491D
:10556000896811F0010FF2D12F498B4207D02F49E2
:105570008B4226D02E498B4234D0002032E615F4DF
:10558000000FF4D1274B9A4201D000202AE64CF4B8
:105590000003B26822F0E0721343B360254B1B682E
:1055A0009B09254AA2FB03239B0901335B0001935E
:1055B00002E0019B013B0193019B002BF9D10020EC
:1055C00010E615F0807FD5D1164B9A4201D000200D
:1055D00008E64CF08073B26822F0E0721343B360C7
:1055E0000020FFE515F4800F0FD10E4B9A4201D039
:1055F0000020F7E54CF48003B26822F0E072134318
:10560000B3600020EEE50020ECE50020EAE5022092
:10561000EBE500BF002002400021024000230240D1
:105620000063025800600258000084CB000052C79B
:105630000000B8CF14000020632D3E0538B50446A5
:1056400003684E494E4A934218BF8B4226D14D4BB8
:105650009B6813F4403F14BF0123002343B300F0C1
:10566000EDFF05466368B3F5003F05D0B3F5403F55
:105670001CD0B3F5803F02D11B0CB5FBF3F502F053
:10568000E7FE41F20303984252D83F4B9D4249D96D
:105690002268936843F48073936038BD3B4B9B68EA
:1056A00013F4403F14BF01230023D7E78508E6E742
:1056B0004FF4002002F040F905466368B3F5101F6F
:1056C0002CD021D8B3F5E01F26D004D9B3F5001FA4
:1056D000D5D14509D3E7B3F5801F10D009D8B3F56C
:1056E000002F0CD0B3F5402F09D0B3F5802F06D092
:1056F000C5E7B3F5A01F02D0B3F5C01FBFD19B0C07
:105700005B00B5FBF3F5BAE7B3F5201F08D0B3F59E
:10571000301FB4D1050AB2E70509B0E78509AEE745
:10572000C509ACE72268936823F480739360B4E7FB
:10573000174B9D4205D82268936823F44073936009
:10574000ABE7144B9D4207D82268936823F440735B
:1057500043F480739360A0E70F4B9D4207D8226803
:10576000936823F4407343F40073936095E72268D1
:10577000936843F4407393608FE700BF00200240BA
:105780000021024000230240002D31010063025835
:1057900021BCBE0041787D0181F0FA0230B583B0B2
:1057A00000230193002800F00A810446436DEBB109
:1057B00023689A6812F0005F03D09968814A0A4012
:1057C0009A6023689A6812F0805F1CD199687E4ABB
:1057D0000A4042F080529A607C4B1B689B097C4ACD
:1057E000A2FB03239B090133019309E0FBF7F8F8BF
:1057F0000023A36584F85030DAE7019B013B019355
:10580000019B002BF9D12268936813F0805F40F070
:105810009980636D43F010036365A36D43F001034A
:10582000A3650125936813F0040300D00123616D83
:1058300011F0100F40F0BB80002B40F0B880636D7A
:1058400023F4817343F002036365936813F0010F3F
:105850001ED16049604B9A4218BF8A420CBF012298
:10586000002271D1896811F0010100D001215A4B49
:105870009B6813F0010300D001230B4308D1002AD9
:1058800068D0564963688A6822F47C1213438B609F
:1058900002F0DEFD41F20303984202D9A368102B07
:1058A0005AD0627D236B43EA4233A2681343227FBE
:1058B00043EA0243227F012A59D0626A22B102F4EC
:1058C0007872A16A0A4313432168C868444A0240B7
:1058D0001A43CA6021688A6812F0040200D00122CB
:1058E0008B6813F0080300D0012313431BD1227DE2
:1058F000E36A43EA8232C8683A4B03401343CB6001
:1059000094F83830012B37D02268136923F0010353
:1059100013612268136923F07043616B0B431361B9
:105920002046FFF78BFEE368012B37D02268136B0C
:1059300023F00F031363636D23F0030343F00103AC
:10594000636539E000256DE7274B9B6813F0010F75
:105950009ED194E7254995E7617D226B42EA413269
:105960001343227F43EA024343F00C03A2E7226A77
:10597000013A43EA4243A0E7206802691C4B134006
:10598000E26B511E226C42EA0142616C0A43A16C37
:105990000A43134343F001030361BAE721680B6B29
:1059A00023F00F03A269013A13430B63C3E7636D4E
:1059B00043F0100363650125284603B030BD01257F
:1059C000FAE700BFC0FFFF5FC0FFFF6F14000020B9
:1059D000632D3E05002002400021024000230240CA
:1059E00003C0F0FFFCBFFFFF0060025800630258D5
:1059F0001EF800FC90F85020012A00F0968030B488
:105A00009AB00346012280F8502000221692179285
:105A10000068474A904236D000220192019A002A3B
:105A200035D0926812F0040200D00122846814F08C
:105A3000040F6BD1002A69D13D4C3E4A904218BFF9
:105A4000A0422DD102F500720868002839D0906874
:105A500020F440404C68204390601868344D354C29
:105A6000A04218BFA8421DD1AC6814F0010400D0B8
:105A700001243048806810F0010000D0012020434C
:105A800015D0002047E002F580720192C6E75A6DFA
:105A900042F020025A65002283F8502001203DE0A8
:105AA000254AD1E72548806810F0010F39D1946864
:105AB000234820400C6889682143084390600020F7
:105AC00029E0916821F4404191601968184C194807
:105AD000814218BFA1420ED1A06810F0010000D091
